{
  "abi": [
    {
      "inputs": [],
      "stateMutability": "nonpayable",
      "type": "constructor"
    },
    {
      "inputs": [],
      "name": "InvalidHash",
      "type": "error"
    },
    {
      "inputs": [],
      "name": "InvalidResponse",
      "type": "error"
    },
    {
      "inputs": [],
      "name": "InvalidSignature",
      "type": "error"
    },
    {
      "inputs": [
        {
          "internalType": "address",
          "name": "sender",
          "type": "address"
        },
        {
          "internalType": "string[]",
          "name": "urls",
          "type": "string[]"
        },
        {
          "internalType": "bytes",
          "name": "callData",
          "type": "bytes"
        },
        {
          "internalType": "bytes4",
          "name": "callbackFunction",
          "type": "bytes4"
        },
        {
          "internalType": "bytes",
          "name": "extraData",
          "type": "bytes"
        }
      ],
      "name": "OffchainLookup",
      "type": "error"
    },
    {
      "inputs": [],
      "name": "RequestError",
      "type": "error"
    },
    {
      "inputs": [],
      "name": "SignatureExpired",
      "type": "error"
    },
    {
      "anonymous": false,
      "inputs": [
        {
          "indexed": true,
          "internalType": "address",
          "name": "previousOwner",
          "type": "address"
        },
        {
          "indexed": true,
          "internalType": "address",
          "name": "newOwner",
          "type": "address"
        }
      ],
      "name": "OwnershipTransferred",
      "type": "event"
    },
    {
      "inputs": [
        {
          "internalType": "bytes",
          "name": "encoded",
          "type": "bytes"
        }
      ],
      "name": "DNSDecode",
      "outputs": [
        {
          "internalType": "string",
          "name": "_name",
          "type": "string"
        },
        {
          "internalType": "bytes32",
          "name": "namehash",
          "type": "bytes32"
        }
      ],
      "stateMutability": "pure",
      "type": "function"
    },
    {
      "inputs": [],
      "name": "Dev",
      "outputs": [
        {
          "internalType": "address",
          "name": "",
          "type": "address"
        }
      ],
      "stateMutability": "view",
      "type": "function"
    },
    {
      "inputs": [
        {
          "internalType": "uint256",
          "name": "",
          "type": "uint256"
        }
      ],
      "name": "Gateways",
      "outputs": [
        {
          "internalType": "string",
          "name": "domain",
          "type": "string"
        },
        {
          "internalType": "address",
          "name": "operator",
          "type": "address"
        }
      ],
      "stateMutability": "view",
      "type": "function"
    },
    {
      "inputs": [
        {
          "internalType": "bytes",
          "name": "response",
          "type": "bytes"
        },
        {
          "internalType": "bytes",
          "name": "extraData",
          "type": "bytes"
        }
      ],
      "name": "__callback",
      "outputs": [
        {
          "internalType": "bytes",
          "name": "",
          "type": "bytes"
        }
      ],
      "stateMutability": "view",
      "type": "function"
    },
    {
      "inputs": [
        {
          "internalType": "address",
          "name": "operator",
          "type": "address"
        },
        {
          "internalType": "string",
          "name": "domain",
          "type": "string"
        }
      ],
      "name": "addGateway",
      "outputs": [],
      "stateMutability": "nonpayable",
      "type": "function"
    },
    {
      "inputs": [],
      "name": "chainID",
      "outputs": [
        {
          "internalType": "string",
          "name": "",
          "type": "string"
        }
      ],
      "stateMutability": "view",
      "type": "function"
    },
    {
      "inputs": [
        {
          "internalType": "address",
          "name": "newDev",
          "type": "address"
        }
      ],
      "name": "changeDev",
      "outputs": [],
      "stateMutability": "nonpayable",
      "type": "function"
    },
    {
      "inputs": [
        {
          "internalType": "address",
          "name": "",
          "type": "address"
        }
      ],
      "name": "isSigner",
      "outputs": [
        {
          "internalType": "bool",
          "name": "",
          "type": "bool"
        }
      ],
      "stateMutability": "view",
      "type": "function"
    },
    {
      "inputs": [
        {
          "internalType": "bytes32",
          "name": "hash",
          "type": "bytes32"
        },
        {
          "internalType": "bytes",
          "name": "signature",
          "type": "bytes"
        }
      ],
      "name": "isValid",
      "outputs": [
        {
          "internalType": "bool",
          "name": "",
          "type": "bool"
        }
      ],
      "stateMutability": "view",
      "type": "function"
    },
    {
      "inputs": [
        {
          "internalType": "string",
          "name": "_name",
          "type": "string"
        }
      ],
      "name": "randomGateways",
      "outputs": [
        {
          "internalType": "string[]",
          "name": "urls",
          "type": "string[]"
        }
      ],
      "stateMutability": "view",
      "type": "function"
    },
    {
      "inputs": [
        {
          "internalType": "uint256",
          "name": "_index",
          "type": "uint256"
        }
      ],
      "name": "removeGateway",
      "outputs": [],
      "stateMutability": "nonpayable",
      "type": "function"
    },
    {
      "inputs": [
        {
          "internalType": "uint256",
          "name": "_index",
          "type": "uint256"
        },
        {
          "internalType": "address",
          "name": "operator",
          "type": "address"
        },
        {
          "internalType": "string",
          "name": "domain",
          "type": "string"
        }
      ],
      "name": "replaceGateway",
      "outputs": [],
      "stateMutability": "nonpayable",
      "type": "function"
    },
    {
      "inputs": [
        {
          "internalType": "bytes",
          "name": "encoded",
          "type": "bytes"
        },
        {
          "internalType": "bytes",
          "name": "data",
          "type": "bytes"
        }
      ],
      "name": "resolve",
      "outputs": [
        {
          "internalType": "bytes",
          "name": "",
          "type": "bytes"
        }
      ],
      "stateMutability": "view",
      "type": "function"
    }
  ],
  "bytecode": {
    "object": "0x60c060405260016080818152603160f81b60a0526200001f9082620001f6565b503480156200002d57600080fd5b50600080546001600160a01b031916331781556040805160808101825260139181019182527f7373686d61747269782e636c75623a3330303200000000000000000000000000606082015290815273a610e343ba79d93b39421fd6bf29067e1ac1aa666020820152600280546001810182559281905281519192027f405787fa12a823e0f2b7631cc41b3ba8828b3321ca811111fa75cd3aa3bb5ace01908190620000d99082620001f6565b50602091820151600191820180546001600160a01b0319166001600160a01b0390921691909117905573a610e343ba79d93b39421fd6bf29067e1ac1aa6660005260039091527f371b2a70d28d03f373e61ab2d46288befcc7612b7721ae6bd393a2e4efd289e9805460ff19169091179055620002c2565b634e487b7160e01b600052604160045260246000fd5b600181811c908216806200017c57607f821691505b6020821081036200019d57634e487b7160e01b600052602260045260246000fd5b50919050565b601f821115620001f157600081815260208120601f850160051c81016020861015620001cc5750805b601f850160051c820191505b81811015620001ed57828155600101620001d8565b5050505b505050565b81516001600160401b0381111562000212576200021262000151565b6200022a8162000223845462000167565b84620001a3565b602080601f831160018114620002625760008415620002495750858301515b600019600386901b1c1916600185901b178555620001ed565b600085815260208120601f198616915b82811015620002935788860151825594840194600190910190840162000272565b5085821015620002b25787850151600019600388901b60f8161c191681555b5050505050600190811b01905550565b6121f880620002d26000396000f3fe608060405234801561001057600080fd5b50600436106100df5760003560e01c80636d6aeb101161008c5780639061b923116100665780639061b92314610211578063adc879e914610231578063c55a5d5914610239578063e5dac7031461024c57600080fd5b80636d6aeb10146101ba5780637df73e27146101db57806388a8c95c146101fe57600080fd5b80631bebc101116100bd5780631bebc10114610156578063356a277a146101765780634f309cb81461019757600080fd5b806301e51ae8146100e45780630a24bf331461012e5780630eb0a9e814610143575b600080fd5b6000546101049073ffffffffffffffffffffffffffffffffffffffff1681565b60405173ffffffffffffffffffffffffffffffffffffffff90911681526020015b60405180910390f35b61014161013c366004611517565b61025f565b005b61014161015136600461156a565b610401565b610169610164366004611669565b610614565b6040516101259190611762565b61018961018436600461177c565b610766565b604051610125929190611795565b6101aa6101a53660046117cd565b610838565b6040519015158152602001610125565b6101cd6101c8366004611800565b610a17565b604051610125929190611842565b6101aa6101e9366004611864565b60036020526000908152604090205460ff1681565b61014161020c366004611864565b610d24565b61022461021f36600461187f565b610dd5565b60405161012591906118df565b610224610f64565b61022461024736600461187f565b610ff2565b61014161025a36600461177c565b6112c2565b60005473ffffffffffffffffffffffffffffffffffffffff16331461028357600080fd5b73ffffffffffffffffffffffffffffffffffffffff831660009081526003602052604090205460ff1615610318576040517f08c379a000000000000000000000000000000000000000000000000000000000815260206004820152600f60248201527f4f50455241544f525f455849535453000000000000000000000000000000000060448201526064015b60405180910390fd5b6040805160606020601f8501819004028201810183529181018381526002928291908690869081908501838280828437600092018290525093855250505073ffffffffffffffffffffffffffffffffffffffff871660209283015283546001810185559381522081519192600202019081906103949082611994565b50602091820151600191820180547fffffffffffffffffffffffff00000000000000000000000000000000000000001673ffffffffffffffffffffffffffffffffffffffff928316179055949094166000908152600390915260409020805460ff19169093179092555050565b60005473ffffffffffffffffffffffffffffffffffffffff16331461042557600080fd5b73ffffffffffffffffffffffffffffffffffffffff831660009081526003602052604090205460ff16156104b5576040517f08c379a000000000000000000000000000000000000000000000000000000000815260206004820152601260248201527f4455504c49434154455f4f50455241544f520000000000000000000000000000604482015260640161030f565b600060036000600287815481106104ce576104ce611a54565b600091825260208083206001600290930201919091015473ffffffffffffffffffffffffffffffffffffffff1683528281019390935260409182019020805493151560ff199094169390931790925581516060601f85018390049092028101820183529182018381528291859085908190850183828082843760009201919091525050509082525073ffffffffffffffffffffffffffffffffffffffff8516602090910152600280548690811061058757610587611a54565b6000918252602090912082516002909202019081906105a69082611994565b50602091820151600191820180547fffffffffffffffffffffffff00000000000000000000000000000000000000001673ffffffffffffffffffffffffffffffffffffffff928316179055949094166000908152600390915260409020805460ff1916909317909255505050565b600280546060916000906106289083611ae1565b610633906001611af5565b90506005811115610642575060055b8067ffffffffffffffff81111561065b5761065b6115c4565b60405190808252806020026020018201604052801561068e57816020015b60608152602001906001900390816106795790505b5092504260005b8281101561075d57838287336106ac600143611b0e565b406040516020016106c09493929190611b21565b6040516020818303038152906040528051906020012060001c6106e39190611b7f565b9150600282815481106106f8576106f8611a54565b906000526020600020906002020160000160018760405160200161071e93929190611c06565b60405160208183030381529060405285828151811061073f5761073f611a54565b6020026020010181905250808061075590611cfd565b915050610695565b50505050919050565b6002818154811061077657600080fd5b9060005260206000209060020201600091509050806000018054610799906118f2565b80601f01602080910402602001604051908101604052809291908181526020018280546107c5906118f2565b80156108125780601f106107e757610100808354040283529160200191610812565b820191906000526020600020905b8154815290600101906020018083116107f557829003601f168201915b5050506001909301549192505073ffffffffffffffffffffffffffffffffffffffff1682565b6000808080604085111561089b57610854602060008789611d17565b61085d91611d41565b925061086c8560208189611d17565b61087591611d41565b91508585604081811061088a5761088a611a54565b919091013560f81c91506109069050565b6108a9602060008789611d17565b6108b291611d41565b925060006108c3866020818a611d17565b6108cc91611d41565b7f7fffffffffffffffffffffffffffffffffffffffffffffffffffffffffffffff81169350905061090260ff82901c601b611af5565b9150505b7f7fffffffffffffffffffffffffffffff5d576e7357a4501ddfe92f46681b20a0821115610960576040517f8baa579f00000000000000000000000000000000000000000000000000000000815260040160405180910390fd5b604080516000808252602082018084528a905260ff841692820192909252606081018590526080810184905260019060a0016020604051602081039080840390855afa1580156109b4573d6000803e3d6000fd5b5050604051601f19015191505073ffffffffffffffffffffffffffffffffffffffff811615801590610a0b575073ffffffffffffffffffffffffffffffffffffffff811660009081526003602052604090205460ff165b98975050505050505050565b60408051600c8082526101a08201909252606091600091829182918291816020015b6060815260200190600190039081610a3957905050905060005b6000888883818110610a6757610a67611a54565b9050013560f81c60f81b7effffffffffffffffffffffffffffffffffffffffffffffffffffffffffffff19161115610b4457878188610aa582611cfd565b9350610ab49284929190611d17565b610abd91611d5f565b60f81c9250878188610acf8683611af5565b9350610ade9284929190611d17565b8080601f0160208091040260200160405190810160405280939291908181526020018383808284376000920191909152505084518592508791508110610b2657610b26611a54565b60200260200101819052508380610b3c90611cfd565b945050610a53565b5080610b4f84611da7565b93508381518110610b6257610b62611a54565b602002602001015194506000801b818480610b7c90611da7565b955081518110610b8e57610b8e611a54565b602002602001015180519060200120604051602001610bb7929190918252602082015260400190565b60405160208183030381529060405280519060200120935082600003610c725780600081518110610bea57610bea611a54565b602002602001015185604051602001610c04929190611dbe565b6040516020818303038152906040528482600081518110610c2757610c27611a54565b602002602001015180519060200120604051602001610c50929190918252602082015260400190565b6040516020818303038152906040528051906020012094509450505050610d1d565b8215610d195780610c8284611da7565b93508381518110610c9557610c95611a54565b602002602001015185604051602001610caf929190611dbe565b604051602081830303815290604052945083818481518110610cd357610cd3611a54565b602002602001015180519060200120604051602001610cfc929190918252602082015260400190565b604051602081830303815290604052805190602001209350610c72565b5050505b9250929050565b60005473ffffffffffffffffffffffffffffffffffffffff163314610d4857600080fd5b6000805460405173ffffffffffffffffffffffffffffffffffffffff808516939216917f8be0079c531659141344cd1fd0a4f28419497f9722a3daafe3b4186f6b6457e091a3600080547fffffffffffffffffffffffff00000000000000000000000000000000000000001673ffffffffffffffffffffffffffffffffffffffff92909216919091179055565b6060600080610de48787610a17565b9150915030610df283610614565b610e0060046000888a611d17565b8460248911610e1e5760405180602001604052806000815250610e60565b610e2b896024818d611d17565b8080601f0160208091040260200160405190810160405280939291908181526020018383808284376000920191909152505050505b604051602001610e739493929190611e16565b60408051601f198184030181529190527fc55a5d59000000000000000000000000000000000000000000000000000000004385610eb1600183611b0e565b6040805191406020830152810188905233606090811b7fffffffffffffffffffffffffffffffffffffffff000000000000000000000000169082015260740160408051601f19818403018152828252805160209182012090830194909452810191909152606081019190915260800160408051601f19818403018152908290527f556f183000000000000000000000000000000000000000000000000000000000825261030f9594939291600401611e43565b60018054610f71906118f2565b80601f0160208091040260200160405190810160405280929190818152602001828054610f9d906118f2565b8015610fea5780601f10610fbf57610100808354040283529160200191610fea565b820191906000526020600020905b815481529060010190602001808311610fcd57829003601f168201915b505050505081565b60606000808061100485870187611ec0565b91945092509050611016836003611af5565b4311806110825750611029600184611b0e565b6040805191406020830152810183905233606090811b7fffffffffffffffffffffffffffffffffffffffff0000000000000000000000001690820152607401604051602081830303815290604052805190602001208114155b156110b9576040517f0af806e000000000000000000000000000000000000000000000000000000000815260040160405180910390fd5b600080806110c98a8c018c611f0c565b9250925092506040518060400160405280600381526020017f307830000000000000000000000000000000000000000000000000000000000081525061110e90611f89565b7fff000000000000000000000000000000000000000000000000000000000000001661113982611f89565b7fff000000000000000000000000000000000000000000000000000000000000001603611192576040517fc715138d00000000000000000000000000000000000000000000000000000000815260040160405180910390fd5b8267ffffffffffffffff164211156111d6576040517f0819bdcd00000000000000000000000000000000000000000000000000000000815260040160405180910390fd5b3073ffffffffffffffffffffffffffffffffffffffff16634f309cb8308588856040516020016112099493929190611fd9565b60405160208183030381529060405280519060200120846040518363ffffffff1660e01b815260040161123d92919061207d565b602060405180830381865afa15801561125a573d6000803e3d6000fd5b505050506040513d601f19601f8201168201806040525081019061127e9190612096565b6112b4576040517f8baa579f00000000000000000000000000000000000000000000000000000000815260040160405180910390fd5b9a9950505050505050505050565b60005473ffffffffffffffffffffffffffffffffffffffff1633146112e657600080fd5b600060036000600284815481106112ff576112ff611a54565b6000918252602080832060029283020160019081015473ffffffffffffffffffffffffffffffffffffffff1685529084019490945260409092019020805460ff191693151593909317909255905490820110156113f65760028054600019810190811061136e5761136e611a54565b90600052602060002090600202016002828154811061138f5761138f611a54565b60009182526020909120600290910201806113aa83826120b8565b50600191820154910180547fffffffffffffffffffffffff00000000000000000000000000000000000000001673ffffffffffffffffffffffffffffffffffffffff9092169190911790555b600280548061140757611407612193565b600082815260208120600019909201916002830201906114278282611456565b5060010180547fffffffffffffffffffffffff0000000000000000000000000000000000000000169055905550565b508054611462906118f2565b6000825580601f10611472575050565b601f0160209004906000526020600020908101906114909190611493565b50565b5b808211156114a85760008155600101611494565b5090565b803573ffffffffffffffffffffffffffffffffffffffff811681146114d057600080fd5b919050565b60008083601f8401126114e757600080fd5b50813567ffffffffffffffff8111156114ff57600080fd5b602083019150836020828501011115610d1d57600080fd5b60008060006040848603121561152c57600080fd5b611535846114ac565b9250602084013567ffffffffffffffff81111561155157600080fd5b61155d868287016114d5565b9497909650939450505050565b6000806000806060858703121561158057600080fd5b84359350611590602086016114ac565b9250604085013567ffffffffffffffff8111156115ac57600080fd5b6115b8878288016114d5565b95989497509550505050565b7f4e487b7100000000000000000000000000000000000000000000000000000000600052604160045260246000fd5b600067ffffffffffffffff8084111561160e5761160e6115c4565b604051601f8501601f19908116603f01168101908282118183101715611636576116366115c4565b8160405280935085815286868601111561164f57600080fd5b858560208301376000602087830101525050509392505050565b60006020828403121561167b57600080fd5b813567ffffffffffffffff81111561169257600080fd5b8201601f810184136116a357600080fd5b6116b2848235602084016115f3565b949350505050565b60005b838110156116d55781810151838201526020016116bd565b50506000910152565b600081518084526116f68160208601602086016116ba565b601f01601f19169290920160200192915050565b600082825180855260208086019550808260051b84010181860160005b8481101561175557601f198684030189526117438383516116de565b98840198925090830190600101611727565b5090979650505050505050565b602081526000611775602083018461170a565b9392505050565b60006020828403121561178e57600080fd5b5035919050565b6040815260006117a860408301856116de565b905073ffffffffffffffffffffffffffffffffffffffff831660208301529392505050565b6000806000604084860312156117e257600080fd5b83359250602084013567ffffffffffffffff81111561155157600080fd5b6000806020838503121561181357600080fd5b823567ffffffffffffffff81111561182a57600080fd5b611836858286016114d5565b90969095509350505050565b60408152600061185560408301856116de565b90508260208301529392505050565b60006020828403121561187657600080fd5b611775826114ac565b6000806000806040858703121561189557600080fd5b843567ffffffffffffffff808211156118ad57600080fd5b6118b9888389016114d5565b909650945060208701359150808211156118d257600080fd5b506115b8878288016114d5565b60208152600061177560208301846116de565b600181811c9082168061190657607f821691505b60208210810361193f577f4e487b7100000000000000000000000000000000000000000000000000000000600052602260045260246000fd5b50919050565b601f82111561198f57600081815260208120601f850160051c8101602086101561196c5750805b601f850160051c820191505b8181101561198b57828155600101611978565b5050505b505050565b815167ffffffffffffffff8111156119ae576119ae6115c4565b6119c2816119bc84546118f2565b84611945565b602080601f8311600181146119f757600084156119df5750858301515b600019600386901b1c1916600185901b17855561198b565b600085815260208120601f198616915b82811015611a2657888601518255948401946001909101908401611a07565b5085821015611a445787850151600019600388901b60f8161c191681555b5050505050600190811b01905550565b7f4e487b7100000000000000000000000000000000000000000000000000000000600052603260045260246000fd5b7f4e487b7100000000000000000000000000000000000000000000000000000000600052601260045260246000fd5b7f4e487b7100000000000000000000000000000000000000000000000000000000600052601160045260246000fd5b600082611af057611af0611a83565b500490565b80820180821115611b0857611b08611ab2565b92915050565b81810381811115611b0857611b08611ab2565b84815260008451611b398160208501602089016116ba565b80830190507fffffffffffffffffffffffffffffffffffffffff0000000000000000000000008560601b1660208201528360348201526054810191505095945050505050565b600082611b8e57611b8e611a83565b500690565b60008154611ba0816118f2565b60018281168015611bb85760018114611bcd57611bfc565b60ff1984168752821515830287019450611bfc565b8560005260208060002060005b85811015611bf35781548a820152908401908201611bda565b50505082870194505b5050505092915050565b7f68747470733a2f2f00000000000000000000000000000000000000000000000081526000611c386008830186611b93565b7f2f6569703135350000000000000000000000000000000000000000000000000081527f3a000000000000000000000000000000000000000000000000000000000000006007820152611c8e6008820186611b93565b90507f2f0000000000000000000000000000000000000000000000000000000000000081528351611cc68160018401602088016116ba565b7f2f7b646174617d000000000000000000000000000000000000000000000000006001929091019182015260080195945050505050565b60006000198203611d1057611d10611ab2565b5060010190565b60008085851115611d2757600080fd5b83861115611d3457600080fd5b5050820193919092039150565b80356020831015611b0857600019602084900360031b1b1692915050565b7fff000000000000000000000000000000000000000000000000000000000000008135818116916001851015611d9f5780818660010360031b1b83161692505b505092915050565b600081611db657611db6611ab2565b506000190190565b60008351611dd08184602088016116ba565b7f2e000000000000000000000000000000000000000000000000000000000000009083019081528351611e0a8160018401602088016116ba565b01600101949350505050565b8385823760008482018481528351611e358160208401602088016116ba565b016020019695505050505050565b73ffffffffffffffffffffffffffffffffffffffff8616815260a060208201526000611e7260a083018761170a565b8281036040840152611e8481876116de565b90507fffffffff00000000000000000000000000000000000000000000000000000000851660608401528281036080840152610a0b81856116de565b600080600060608486031215611ed557600080fd5b505081359360208301359350604090920135919050565b600082601f830112611efd57600080fd5b611775838335602085016115f3565b600080600060608486031215611f2157600080fd5b833567ffffffffffffffff8082168214611f3a57600080fd5b90935060208501359080821115611f5057600080fd5b611f5c87838801611eec565b93506040860135915080821115611f7257600080fd5b50611f7f86828701611eec565b9150509250925092565b6000815160208301517fff0000000000000000000000000000000000000000000000000000000000000080821693506001831015611fd15780818460010360031b1b83161693505b505050919050565b7f190000000000000000000000000000000000000000000000000000000000000081527fffffffffffffffffffffffffffffffffffffffff0000000000000000000000008560601b1660028201527fffffffffffffffff0000000000000000000000000000000000000000000000008460c01b16601682015282601e8201526000825161206d81603e8501602087016116ba565b91909101603e0195945050505050565b8281526040602082015260006116b260408301846116de565b6000602082840312156120a857600080fd5b8151801515811461177557600080fd5b8181036120c3575050565b6120cd82546118f2565b67ffffffffffffffff8111156120e5576120e56115c4565b6120f3816119bc84546118f2565b6000601f821160018114612127576000831561210f5750848201545b600019600385901b1c1916600184901b17845561218c565b600085815260209020601f19841690600086815260209020845b838110156121615782860154825560019586019590910190602001612141565b508583101561217f5781850154600019600388901b60f8161c191681555b50505060018360011b0184555b5050505050565b7f4e487b7100000000000000000000000000000000000000000000000000000000600052603160045260246000fdfea2646970667358221220ad8ffda9317fdefd648ad436c0b5417d85fc655af0ff754babd6bdc3995817f264736f6c63430008100033",
    "linkReferences": {}
  },
  "methodIdentifiers": {
    "DNSDecode(bytes)": "6d6aeb10",
    "Dev()": "01e51ae8",
    "Gateways(uint256)": "356a277a",
    "__callback(bytes,bytes)": "c55a5d59",
    "addGateway(address,string)": "0a24bf33",
    "chainID()": "adc879e9",
    "changeDev(address)": "88a8c95c",
    "isSigner(address)": "7df73e27",
    "isValid(bytes32,bytes)": "4f309cb8",
    "randomGateways(string)": "1bebc101",
    "removeGateway(uint256)": "e5dac703",
    "replaceGateway(uint256,address,string)": "0eb0a9e8",
    "resolve(bytes,bytes)": "9061b923"
  },
  "id": 18
}