{
  "abi": [
    {
      "inputs": [],
      "stateMutability": "nonpayable",
      "type": "constructor"
    },
    {
      "inputs": [],
      "name": "InvalidHash",
      "type": "error"
    },
    {
      "inputs": [],
      "name": "InvalidResponse",
      "type": "error"
    },
    {
      "inputs": [
        {
          "internalType": "string",
          "name": "reason",
          "type": "string"
        }
      ],
      "name": "InvalidSignature",
      "type": "error"
    },
    {
      "inputs": [
        {
          "internalType": "address",
          "name": "sender",
          "type": "address"
        },
        {
          "internalType": "string[]",
          "name": "urls",
          "type": "string[]"
        },
        {
          "internalType": "bytes",
          "name": "callData",
          "type": "bytes"
        },
        {
          "internalType": "bytes4",
          "name": "callbackFunction",
          "type": "bytes4"
        },
        {
          "internalType": "bytes",
          "name": "extraData",
          "type": "bytes"
        }
      ],
      "name": "OffchainLookup",
      "type": "error"
    },
    {
      "inputs": [],
      "name": "RequestError",
      "type": "error"
    },
    {
      "inputs": [],
      "name": "SignatureExpired",
      "type": "error"
    },
    {
      "anonymous": false,
      "inputs": [
        {
          "indexed": false,
          "internalType": "string",
          "name": "chainID",
          "type": "string"
        },
        {
          "indexed": false,
          "internalType": "string",
          "name": "newChainID",
          "type": "string"
        }
      ],
      "name": "ChainIDChanged",
      "type": "event"
    },
    {
      "anonymous": false,
      "inputs": [
        {
          "indexed": false,
          "internalType": "address",
          "name": "operator",
          "type": "address"
        },
        {
          "indexed": false,
          "internalType": "string",
          "name": "domain",
          "type": "string"
        }
      ],
      "name": "NewGateway",
      "type": "event"
    },
    {
      "anonymous": false,
      "inputs": [
        {
          "indexed": true,
          "internalType": "address",
          "name": "previousOwner",
          "type": "address"
        },
        {
          "indexed": true,
          "internalType": "address",
          "name": "newOwner",
          "type": "address"
        }
      ],
      "name": "OwnershipTransferred",
      "type": "event"
    },
    {
      "anonymous": false,
      "inputs": [
        {
          "indexed": false,
          "internalType": "uint256",
          "name": "index",
          "type": "uint256"
        },
        {
          "indexed": false,
          "internalType": "address",
          "name": "operator",
          "type": "address"
        },
        {
          "indexed": false,
          "internalType": "string",
          "name": "domain",
          "type": "string"
        }
      ],
      "name": "RemovedGateway",
      "type": "event"
    },
    {
      "anonymous": false,
      "inputs": [
        {
          "indexed": false,
          "internalType": "uint256",
          "name": "index",
          "type": "uint256"
        },
        {
          "indexed": false,
          "internalType": "address",
          "name": "operator",
          "type": "address"
        },
        {
          "indexed": false,
          "internalType": "string",
          "name": "oldDomain",
          "type": "string"
        },
        {
          "indexed": false,
          "internalType": "string",
          "name": "newDomain",
          "type": "string"
        }
      ],
      "name": "ReplacedGateway",
      "type": "event"
    },
    {
      "inputs": [
        {
          "internalType": "bytes",
          "name": "encoded",
          "type": "bytes"
        }
      ],
      "name": "DNSDecode",
      "outputs": [
        {
          "internalType": "string",
          "name": "_name",
          "type": "string"
        },
        {
          "internalType": "bytes32",
          "name": "namehash",
          "type": "bytes32"
        }
      ],
      "stateMutability": "pure",
      "type": "function"
    },
    {
      "inputs": [],
      "name": "Dev",
      "outputs": [
        {
          "internalType": "address",
          "name": "",
          "type": "address"
        }
      ],
      "stateMutability": "view",
      "type": "function"
    },
    {
      "inputs": [
        {
          "internalType": "uint256",
          "name": "",
          "type": "uint256"
        }
      ],
      "name": "Gateways",
      "outputs": [
        {
          "internalType": "string",
          "name": "domain",
          "type": "string"
        },
        {
          "internalType": "address",
          "name": "operator",
          "type": "address"
        }
      ],
      "stateMutability": "view",
      "type": "function"
    },
    {
      "inputs": [
        {
          "internalType": "bytes",
          "name": "response",
          "type": "bytes"
        },
        {
          "internalType": "bytes",
          "name": "extraData",
          "type": "bytes"
        }
      ],
      "name": "__callback",
      "outputs": [
        {
          "internalType": "bytes",
          "name": "",
          "type": "bytes"
        }
      ],
      "stateMutability": "view",
      "type": "function"
    },
    {
      "inputs": [
        {
          "internalType": "address",
          "name": "operator",
          "type": "address"
        },
        {
          "internalType": "string",
          "name": "domain",
          "type": "string"
        }
      ],
      "name": "addGateway",
      "outputs": [],
      "stateMutability": "nonpayable",
      "type": "function"
    },
    {
      "inputs": [],
      "name": "chainID",
      "outputs": [
        {
          "internalType": "string",
          "name": "",
          "type": "string"
        }
      ],
      "stateMutability": "view",
      "type": "function"
    },
    {
      "inputs": [
        {
          "internalType": "string",
          "name": "newChainID",
          "type": "string"
        }
      ],
      "name": "changeChainID",
      "outputs": [],
      "stateMutability": "nonpayable",
      "type": "function"
    },
    {
      "inputs": [
        {
          "internalType": "address",
          "name": "newDev",
          "type": "address"
        }
      ],
      "name": "changeDev",
      "outputs": [],
      "stateMutability": "nonpayable",
      "type": "function"
    },
    {
      "inputs": [
        {
          "internalType": "address",
          "name": "",
          "type": "address"
        }
      ],
      "name": "isSigner",
      "outputs": [
        {
          "internalType": "bool",
          "name": "",
          "type": "bool"
        }
      ],
      "stateMutability": "view",
      "type": "function"
    },
    {
      "inputs": [
        {
          "internalType": "bytes32",
          "name": "digest",
          "type": "bytes32"
        },
        {
          "internalType": "bytes",
          "name": "signature",
          "type": "bytes"
        }
      ],
      "name": "isValid",
      "outputs": [
        {
          "internalType": "bool",
          "name": "",
          "type": "bool"
        }
      ],
      "stateMutability": "view",
      "type": "function"
    },
    {
      "inputs": [
        {
          "internalType": "string",
          "name": "_name",
          "type": "string"
        }
      ],
      "name": "randomGateways",
      "outputs": [
        {
          "internalType": "string[]",
          "name": "urls",
          "type": "string[]"
        }
      ],
      "stateMutability": "view",
      "type": "function"
    },
    {
      "inputs": [
        {
          "internalType": "uint256",
          "name": "_index",
          "type": "uint256"
        }
      ],
      "name": "removeGateway",
      "outputs": [],
      "stateMutability": "nonpayable",
      "type": "function"
    },
    {
      "inputs": [
        {
          "internalType": "uint256",
          "name": "_index",
          "type": "uint256"
        },
        {
          "internalType": "address",
          "name": "operator",
          "type": "address"
        },
        {
          "internalType": "string",
          "name": "domain",
          "type": "string"
        }
      ],
      "name": "replaceGateway",
      "outputs": [],
      "stateMutability": "nonpayable",
      "type": "function"
    },
    {
      "inputs": [
        {
          "internalType": "bytes",
          "name": "encoded",
          "type": "bytes"
        },
        {
          "internalType": "bytes",
          "name": "data",
          "type": "bytes"
        }
      ],
      "name": "resolve",
      "outputs": [
        {
          "internalType": "bytes",
          "name": "",
          "type": "bytes"
        }
      ],
      "stateMutability": "view",
      "type": "function"
    },
    {
      "inputs": [
        {
          "internalType": "bytes4",
          "name": "sig",
          "type": "bytes4"
        }
      ],
      "name": "supportsInterface",
      "outputs": [
        {
          "internalType": "bool",
          "name": "",
          "type": "bool"
        }
      ],
      "stateMutability": "pure",
      "type": "function"
    }
  ],
  "bytecode": {
    "object": "0x60c060405260016080818152603560f81b60a0526200001f9082620001f6565b503480156200002d57600080fd5b50600080546001600160a01b031916331781556040805160808101825260139181019182527f7373686d61747269782e636c75623a3330303200000000000000000000000000606082015290815273dcefafb32b6e2eaa7172b6216ca5973037fe989f6020820152600280546001810182559281905281519192027f405787fa12a823e0f2b7631cc41b3ba8828b3321ca811111fa75cd3aa3bb5ace01908190620000d99082620001f6565b50602091820151600191820180546001600160a01b0319166001600160a01b0390921691909117905573dcefafb32b6e2eaa7172b6216ca5973037fe989f60005260039091527ffe8d9382d937bda5d38e941161ca52e9d3ea463fce867c889d3347e1bca1eed3805460ff19169091179055620002c2565b634e487b7160e01b600052604160045260246000fd5b600181811c908216806200017c57607f821691505b6020821081036200019d57634e487b7160e01b600052602260045260246000fd5b50919050565b601f821115620001f157600081815260208120601f850160051c81016020861015620001cc5750805b601f850160051c820191505b81811015620001ed57828155600101620001d8565b5050505b505050565b81516001600160401b0381111562000212576200021262000151565b6200022a8162000223845462000167565b84620001a3565b602080601f831160018114620002625760008415620002495750858301515b600019600386901b1c1916600185901b178555620001ed565b600085815260208120601f198616915b82811015620002935788860151825594840194600190910190840162000272565b5085821015620002b25787850151600019600388901b60f8161c191681555b5050505050600190811b01905550565b6126f680620002d26000396000f3fe608060405234801561001057600080fd5b50600436106100f55760003560e01c80636d6aeb1011610097578063adc879e911610066578063adc879e91461025a578063c55a5d5914610262578063c5755f0614610275578063e5dac7031461028857600080fd5b80636d6aeb10146101e35780637df73e271461020457806388a8c95c146102275780639061b9231461023a57600080fd5b80630eb0a9e8116100d35780630eb0a9e81461017c5780631bebc1011461018f578063356a277a146101af5780634f309cb8146101d057600080fd5b806301e51ae8146100fa57806301ffc9a7146101445780630a24bf3314610167575b600080fd5b60005461011a9073ffffffffffffffffffffffffffffffffffffffff1681565b60405173ffffffffffffffffffffffffffffffffffffffff90911681526020015b60405180910390f35b610157610152366004611778565b61029b565b604051901515815260200161013b565b61017a61017536600461182c565b610334565b005b61017a61018a36600461187f565b610510565b6101a261019d36600461197e565b610785565b60405161013b9190611a77565b6101c26101bd366004611a8a565b610932565b60405161013b929190611aa3565b6101576101de366004611adb565b610a04565b6101f66101f1366004611b0e565b610c62565b60405161013b929190611b50565b610157610212366004611b72565b60036020526000908152604090205460ff1681565b61017a610235366004611b72565b610f6f565b61024d610248366004611b8d565b611020565b60405161013b9190611bed565b61024d6111af565b61024d610270366004611b8d565b61123d565b61017a610283366004611b0e565b61147a565b61017a610296366004611a8a565b6114ec565b60007fffffffff0000000000000000000000000000000000000000000000000000000082167f9061b92300000000000000000000000000000000000000000000000000000000148061032e57507fffffffff0000000000000000000000000000000000000000000000000000000082167f01ffc9a700000000000000000000000000000000000000000000000000000000145b92915050565b60005473ffffffffffffffffffffffffffffffffffffffff16331461035857600080fd5b73ffffffffffffffffffffffffffffffffffffffff831660009081526003602052604090205460ff16156103ed576040517f08c379a000000000000000000000000000000000000000000000000000000000815260206004820152600f60248201527f4f50455241544f525f455849535453000000000000000000000000000000000060448201526064015b60405180910390fd5b6040805160606020601f8501819004028201810183529181018381526002928291908690869081908501838280828437600092018290525093855250505073ffffffffffffffffffffffffffffffffffffffff871660209283015283546001810185559381522081519192600202019081906104699082611ca1565b50602091820151600191820180547fffffffffffffffffffffffff00000000000000000000000000000000000000001673ffffffffffffffffffffffffffffffffffffffff928316179055851660009081526003909252604091829020805460ff19169091179055517f64197eae425603001ee7c401e4d5af2d59a27966c0b3bbafa8f0d553a5123eef9061050390859085908590611d8c565b60405180910390a1505050565b60005473ffffffffffffffffffffffffffffffffffffffff16331461053457600080fd5b73ffffffffffffffffffffffffffffffffffffffff831660009081526003602052604090205460ff16156105c4576040517f08c379a000000000000000000000000000000000000000000000000000000000815260206004820152601260248201527f4455504c49434154455f4f50455241544f52000000000000000000000000000060448201526064016103e4565b7f21ff386872700b269f87d1b4da5a1c555b54ba76e49725cb23f0048aea9a13478484600287815481106105fa576105fa611dc5565b9060005260206000209060020201600001858560405161061e959493929190611e71565b60405180910390a16000600360006002878154811061063f5761063f611dc5565b600091825260208083206001600290930201919091015473ffffffffffffffffffffffffffffffffffffffff1683528281019390935260409182019020805493151560ff199094169390931790925581516060601f85018390049092028101820183529182018381528291859085908190850183828082843760009201919091525050509082525073ffffffffffffffffffffffffffffffffffffffff851660209091015260028054869081106106f8576106f8611dc5565b6000918252602090912082516002909202019081906107179082611ca1565b50602091820151600191820180547fffffffffffffffffffffffff00000000000000000000000000000000000000001673ffffffffffffffffffffffffffffffffffffffff928316179055949094166000908152600390915260409020805460ff1916909317909255505050565b600280546060916000906107999083611f17565b6107a4906001611f2b565b905060058111156107b3575060055b8067ffffffffffffffff8111156107cc576107cc6118d9565b6040519080825280602002602001820160405280156107ff57816020015b60608152602001906001900390816107ea5790505b5092506000428533610812600143611f3e565b406040516020016108269493929190611f51565b6040516020818303038152906040528051906020012060001c905060005b828110156109295783823360405160200161088e92919091825260601b7fffffffffffffffffffffffffffffffffffffffff00000000000000000000000016602082015260340190565b6040516020818303038152906040528051906020012060001c6108b19190611faf565b9150600282815481106108c6576108c6611dc5565b90600052602060002090600202016000016001876040516020016108ec93929190612036565b6040516020818303038152906040528582806109079061212d565b93508151811061091957610919611dc5565b6020026020010181905250610844565b50505050919050565b6002818154811061094257600080fd5b906000526020600020906002020160009150905080600001805461096590611c00565b80601f016020809104026020016040519081016040528092919081815260200182805461099190611c00565b80156109de5780601f106109b3576101008083540402835291602001916109de565b820191906000526020600020905b8154815290600101906020018083116109c157829003601f168201915b5050506001909301549192505073ffffffffffffffffffffffffffffffffffffffff1682565b6000808080610a166020828789612147565b610a1f91612171565b90506040851115610a6057610a38604060208789612147565b610a4191612171565b9250610a508560408189612147565b610a5991612171565b9150610b21565b6040859003610abf576000610a78866020818a612147565b610a8191612171565b7f7fffffffffffffffffffffffffffffffffffffffffffffffffffffffffffffff811694509050610ab760ff82901c601b611f2b565b925050610b21565b6040517f2a34f7fe00000000000000000000000000000000000000000000000000000000815260206004820152600c60248201527f57726f6e675f4c656e677468000000000000000000000000000000000000000060448201526064016103e4565b7f7fffffffffffffffffffffffffffffff5d576e7357a4501ddfe92f46681b20a0831115610bab576040517f2a34f7fe00000000000000000000000000000000000000000000000000000000815260206004820152601060248201527f535f56616c75655f4f766572666c6f770000000000000000000000000000000060448201526064016103e4565b604080516000808252602082018084528a905260ff851692820192909252606081018390526080810185905260019060a0016020604051602081039080840390855afa158015610bff573d6000803e3d6000fd5b5050604051601f19015191505073ffffffffffffffffffffffffffffffffffffffff811615801590610c56575073ffffffffffffffffffffffffffffffffffffffff811660009081526003602052604090205460ff165b98975050505050505050565b60408051600c8082526101a08201909252606091600091829182918291816020015b6060815260200190600190039081610c8457905050905060005b6000888883818110610cb257610cb2611dc5565b9050013560f81c60f81b7effffffffffffffffffffffffffffffffffffffffffffffffffffffffffffff19161115610d8f57878188610cf08261212d565b9350610cff9284929190612147565b610d089161218f565b60f81c9250878188610d1a8683611f2b565b9350610d299284929190612147565b8080601f0160208091040260200160405190810160405280939291908181526020018383808284376000920191909152505084518592508791508110610d7157610d71611dc5565b60200260200101819052508380610d879061212d565b945050610c9e565b5080610d9a846121d7565b93508381518110610dad57610dad611dc5565b602002602001015194506000801b818480610dc7906121d7565b955081518110610dd957610dd9611dc5565b602002602001015180519060200120604051602001610e02929190918252602082015260400190565b60405160208183030381529060405280519060200120935082600003610ebd5780600081518110610e3557610e35611dc5565b602002602001015185604051602001610e4f9291906121ee565b6040516020818303038152906040528482600081518110610e7257610e72611dc5565b602002602001015180519060200120604051602001610e9b929190918252602082015260400190565b6040516020818303038152906040528051906020012094509450505050610f68565b8215610f645780610ecd846121d7565b93508381518110610ee057610ee0611dc5565b602002602001015185604051602001610efa9291906121ee565b604051602081830303815290604052945083818481518110610f1e57610f1e611dc5565b602002602001015180519060200120604051602001610f47929190918252602082015260400190565b604051602081830303815290604052805190602001209350610ebd565b5050505b9250929050565b60005473ffffffffffffffffffffffffffffffffffffffff163314610f9357600080fd5b6000805460405173ffffffffffffffffffffffffffffffffffffffff808516939216917f8be0079c531659141344cd1fd0a4f28419497f9722a3daafe3b4186f6b6457e091a3600080547fffffffffffffffffffffffff00000000000000000000000000000000000000001673ffffffffffffffffffffffffffffffffffffffff92909216919091179055565b606060008061102f8787610c62565b915091503061103d83610785565b61104b60046000888a612147565b846024891161106957604051806020016040528060008152506110ab565b611076896024818d612147565b8080601f0160208091040260200160405190810160405280939291908181526020018383808284376000920191909152505050505b6040516020016110be9493929190612246565b60408051601f198184030181529190527fc55a5d590000000000000000000000000000000000000000000000000000000043856110fc600183611f3e565b6040805191406020830152810188905233606090811b7fffffffffffffffffffffffffffffffffffffffff000000000000000000000000169082015260740160408051601f19818403018152828252805160209182012090830194909452810191909152606081019190915260800160408051601f19818403018152908290527f556f18300000000000000000000000000000000000000000000000000000000082526103e49594939291600401612273565b600180546111bc90611c00565b80601f01602080910402602001604051908101604052809291908181526020018280546111e890611c00565b80156112355780601f1061120a57610100808354040283529160200191611235565b820191906000526020600020905b81548152906001019060200180831161121857829003601f168201915b505050505081565b60606000808061124f858701876122f0565b91945092509050611261836003611f2b565b4311806112cd5750611274600184611f3e565b6040805191406020830152810183905233606090811b7fffffffffffffffffffffffffffffffffffffffff0000000000000000000000001690820152607401604051602081830303815290604052805190602001208114155b15611304576040517f0af806e000000000000000000000000000000000000000000000000000000000815260040160405180910390fd5b600080806113148a8c018c61233c565b9250925092508267ffffffffffffffff1642111561135e576040517f0819bdcd00000000000000000000000000000000000000000000000000000000815260040160405180910390fd5b3073ffffffffffffffffffffffffffffffffffffffff16634f309cb83085888560405160200161139194939291906123b9565b60405160208183030381529060405280519060200120846040518363ffffffff1660e01b81526004016113c592919061245d565b602060405180830381865afa1580156113e2573d6000803e3d6000fd5b505050506040513d601f19601f820116820180604052508101906114069190612476565b61146c576040517f2a34f7fe00000000000000000000000000000000000000000000000000000000815260206004820152601060248201527f46696e616c5f436865636b5f4661696c0000000000000000000000000000000060448201526064016103e4565b9a9950505050505050505050565b60005473ffffffffffffffffffffffffffffffffffffffff16331461149e57600080fd5b7fac98d6d5a73e5b219505e373f9cdf3ee7a5f997a0581aec69f9d8a9007d6efc6600183836040516114d293929190612498565b60405180910390a160016114e78284836124c8565b505050565b60005473ffffffffffffffffffffffffffffffffffffffff16331461151057600080fd5b6000600360006002848154811061152957611529611dc5565b600091825260208083206002928302016001015473ffffffffffffffffffffffffffffffffffffffff16845283019390935260409091019020805460ff19169215159290921790915580547fcc507b212207e0679034d2f2ecba842b77bd2f7616c155bed6aa9a4b9f26a25b918391829081106115a8576115a8611dc5565b906000526020600020906002020160010160009054906101000a900473ffffffffffffffffffffffffffffffffffffffff16600284815481106115ed576115ed611dc5565b906000526020600020906002020160000160405161160d93929190612589565b60405180910390a16002546001820110156116c25760028054600019810190811061163a5761163a611dc5565b90600052602060002090600202016002828154811061165b5761165b611dc5565b600091825260209091206002909102018061167683826125be565b50600191820154910180547fffffffffffffffffffffffff00000000000000000000000000000000000000001673ffffffffffffffffffffffffffffffffffffffff9092169190911790555b60028054806116d3576116d3612691565b600082815260208120600019909201916002830201906116f38282611722565b5060010180547fffffffffffffffffffffffff0000000000000000000000000000000000000000169055905550565b50805461172e90611c00565b6000825580601f1061173e575050565b601f01602090049060005260206000209081019061175c919061175f565b50565b5b808211156117745760008155600101611760565b5090565b60006020828403121561178a57600080fd5b81357fffffffff00000000000000000000000000000000000000000000000000000000811681146117ba57600080fd5b9392505050565b803573ffffffffffffffffffffffffffffffffffffffff811681146117e557600080fd5b919050565b60008083601f8401126117fc57600080fd5b50813567ffffffffffffffff81111561181457600080fd5b602083019150836020828501011115610f6857600080fd5b60008060006040848603121561184157600080fd5b61184a846117c1565b9250602084013567ffffffffffffffff81111561186657600080fd5b611872868287016117ea565b9497909650939450505050565b6000806000806060858703121561189557600080fd5b843593506118a5602086016117c1565b9250604085013567ffffffffffffffff8111156118c157600080fd5b6118cd878288016117ea565b95989497509550505050565b7f4e487b7100000000000000000000000000000000000000000000000000000000600052604160045260246000fd5b600067ffffffffffffffff80841115611923576119236118d9565b604051601f8501601f19908116603f0116810190828211818310171561194b5761194b6118d9565b8160405280935085815286868601111561196457600080fd5b858560208301376000602087830101525050509392505050565b60006020828403121561199057600080fd5b813567ffffffffffffffff8111156119a757600080fd5b8201601f810184136119b857600080fd5b6119c784823560208401611908565b949350505050565b60005b838110156119ea5781810151838201526020016119d2565b50506000910152565b60008151808452611a0b8160208601602086016119cf565b601f01601f19169290920160200192915050565b600082825180855260208086019550808260051b84010181860160005b84811015611a6a57601f19868403018952611a588383516119f3565b98840198925090830190600101611a3c565b5090979650505050505050565b6020815260006117ba6020830184611a1f565b600060208284031215611a9c57600080fd5b5035919050565b604081526000611ab660408301856119f3565b905073ffffffffffffffffffffffffffffffffffffffff831660208301529392505050565b600080600060408486031215611af057600080fd5b83359250602084013567ffffffffffffffff81111561186657600080fd5b60008060208385031215611b2157600080fd5b823567ffffffffffffffff811115611b3857600080fd5b611b44858286016117ea565b90969095509350505050565b604081526000611b6360408301856119f3565b90508260208301529392505050565b600060208284031215611b8457600080fd5b6117ba826117c1565b60008060008060408587031215611ba357600080fd5b843567ffffffffffffffff80821115611bbb57600080fd5b611bc7888389016117ea565b90965094506020870135915080821115611be057600080fd5b506118cd878288016117ea565b6020815260006117ba60208301846119f3565b600181811c90821680611c1457607f821691505b602082108103611c4d577f4e487b7100000000000000000000000000000000000000000000000000000000600052602260045260246000fd5b50919050565b601f8211156114e757600081815260208120601f850160051c81016020861015611c7a5750805b601f850160051c820191505b81811015611c9957828155600101611c86565b505050505050565b815167ffffffffffffffff811115611cbb57611cbb6118d9565b611ccf81611cc98454611c00565b84611c53565b602080601f831160018114611d045760008415611cec5750858301515b600019600386901b1c1916600185901b178555611c99565b600085815260208120601f198616915b82811015611d3357888601518255948401946001909101908401611d14565b5085821015611d515787850151600019600388901b60f8161c191681555b5050505050600190811b01905550565b818352818160208501375060006020828401015260006020601f19601f840116840101905092915050565b73ffffffffffffffffffffffffffffffffffffffff84168152604060208201526000611dbc604083018486611d61565b95945050505050565b7f4e487b7100000000000000000000000000000000000000000000000000000000600052603260045260246000fd5b60008154611e0181611c00565b808552602060018381168015611e1e5760018114611e3857611e66565b60ff198516838901528284151560051b8901019550611e66565b866000528260002060005b85811015611e5e5781548a8201860152908301908401611e43565b890184019650505b505050505092915050565b85815273ffffffffffffffffffffffffffffffffffffffff85166020820152608060408201526000611ea66080830186611df4565b8281036060840152610c56818587611d61565b7f4e487b7100000000000000000000000000000000000000000000000000000000600052601260045260246000fd5b7f4e487b7100000000000000000000000000000000000000000000000000000000600052601160045260246000fd5b600082611f2657611f26611eb9565b500490565b8082018082111561032e5761032e611ee8565b8181038181111561032e5761032e611ee8565b84815260008451611f698160208501602089016119cf565b80830190507fffffffffffffffffffffffffffffffffffffffff0000000000000000000000008560601b1660208201528360348201526054810191505095945050505050565b600082611fbe57611fbe611eb9565b500690565b60008154611fd081611c00565b60018281168015611fe85760018114611ffd5761202c565b60ff198416875282151583028701945061202c565b8560005260208060002060005b858110156120235781548a82015290840190820161200a565b50505082870194505b5050505092915050565b7f68747470733a2f2f000000000000000000000000000000000000000000000000815260006120686008830186611fc3565b7f2f6569703135350000000000000000000000000000000000000000000000000081527f3a0000000000000000000000000000000000000000000000000000000000000060078201526120be6008820186611fc3565b90507f2f00000000000000000000000000000000000000000000000000000000000000815283516120f68160018401602088016119cf565b7f2f7b646174617d000000000000000000000000000000000000000000000000006001929091019182015260080195945050505050565b6000600019820361214057612140611ee8565b5060010190565b6000808585111561215757600080fd5b8386111561216457600080fd5b5050820193919092039150565b8035602083101561032e57600019602084900360031b1b1692915050565b7fff0000000000000000000000000000000000000000000000000000000000000081358181169160018510156121cf5780818660010360031b1b83161692505b505092915050565b6000816121e6576121e6611ee8565b506000190190565b600083516122008184602088016119cf565b7f2e00000000000000000000000000000000000000000000000000000000000000908301908152835161223a8160018401602088016119cf565b01600101949350505050565b83858237600084820184815283516122658160208401602088016119cf565b016020019695505050505050565b73ffffffffffffffffffffffffffffffffffffffff8616815260a0602082015260006122a260a0830187611a1f565b82810360408401526122b481876119f3565b90507fffffffff00000000000000000000000000000000000000000000000000000000851660608401528281036080840152610c5681856119f3565b60008060006060848603121561230557600080fd5b505081359360208301359350604090920135919050565b600082601f83011261232d57600080fd5b6117ba83833560208501611908565b60008060006060848603121561235157600080fd5b833567ffffffffffffffff808216821461236a57600080fd5b9093506020850135908082111561238057600080fd5b61238c8783880161231c565b935060408601359150808211156123a257600080fd5b506123af8682870161231c565b9150509250925092565b7f190000000000000000000000000000000000000000000000000000000000000081527fffffffffffffffffffffffffffffffffffffffff0000000000000000000000008560601b1660028201527fffffffffffffffff0000000000000000000000000000000000000000000000008460c01b16601682015282601e8201526000825161244d81603e8501602087016119cf565b91909101603e0195945050505050565b8281526040602082015260006119c760408301846119f3565b60006020828403121561248857600080fd5b815180151581146117ba57600080fd5b6040815260006124ab6040830186611df4565b82810360208401526124be818587611d61565b9695505050505050565b67ffffffffffffffff8311156124e0576124e06118d9565b6124f4836124ee8354611c00565b83611c53565b6000601f84116001811461252857600085156125105750838201355b600019600387901b1c1916600186901b178355612582565b600083815260209020601f19861690835b828110156125595786850135825560209485019460019092019101612539565b50868210156125765760001960f88860031b161c19848701351681555b505060018560011b0183555b5050505050565b83815273ffffffffffffffffffffffffffffffffffffffff83166020820152606060408201526000611dbc6060830184611df4565b8181036125c9575050565b6125d38254611c00565b67ffffffffffffffff8111156125eb576125eb6118d9565b6125f981611cc98454611c00565b6000601f82116001811461262d57600083156126155750848201545b600019600385901b1c1916600184901b178455612582565b600085815260209020601f19841690600086815260209020845b838110156126675782860154825560019586019590910190602001612647565b5085831015611d515793015460001960f8600387901b161c19169092555050600190811b01905550565b7f4e487b7100000000000000000000000000000000000000000000000000000000600052603160045260246000fdfea264697066735822122083de941de5548df9ed51250c3b2c96104044f2c31cb8aea5b93134c16b241cc064736f6c63430008110033",
    "linkReferences": {}
  },
  "methodIdentifiers": {
    "DNSDecode(bytes)": "6d6aeb10",
    "Dev()": "01e51ae8",
    "Gateways(uint256)": "356a277a",
    "__callback(bytes,bytes)": "c55a5d59",
    "addGateway(address,string)": "0a24bf33",
    "chainID()": "adc879e9",
    "changeChainID(string)": "c5755f06",
    "changeDev(address)": "88a8c95c",
    "isSigner(address)": "7df73e27",
    "isValid(bytes32,bytes)": "4f309cb8",
    "randomGateways(string)": "1bebc101",
    "removeGateway(uint256)": "e5dac703",
    "replaceGateway(uint256,address,string)": "0eb0a9e8",
    "resolve(bytes,bytes)": "9061b923",
    "supportsInterface(bytes4)": "01ffc9a7"
  },
  "id": 18
}