{
  "abi": [
    {
      "inputs": [],
      "stateMutability": "nonpayable",
      "type": "constructor"
    },
    {
      "inputs": [],
      "name": "InvalidHash",
      "type": "error"
    },
    {
      "inputs": [],
      "name": "InvalidResponse",
      "type": "error"
    },
    {
      "inputs": [],
      "name": "InvalidSignature",
      "type": "error"
    },
    {
      "inputs": [
        {
          "internalType": "address",
          "name": "sender",
          "type": "address"
        },
        {
          "internalType": "string[]",
          "name": "urls",
          "type": "string[]"
        },
        {
          "internalType": "bytes",
          "name": "callData",
          "type": "bytes"
        },
        {
          "internalType": "bytes4",
          "name": "callbackFunction",
          "type": "bytes4"
        },
        {
          "internalType": "bytes",
          "name": "extraData",
          "type": "bytes"
        }
      ],
      "name": "OffchainLookup",
      "type": "error"
    },
    {
      "inputs": [],
      "name": "RequestError",
      "type": "error"
    },
    {
      "inputs": [],
      "name": "SignatureExpired",
      "type": "error"
    },
    {
      "anonymous": false,
      "inputs": [
        {
          "indexed": false,
          "internalType": "string",
          "name": "chainID",
          "type": "string"
        },
        {
          "indexed": false,
          "internalType": "string",
          "name": "newChainID",
          "type": "string"
        }
      ],
      "name": "ChainIDChanged",
      "type": "event"
    },
    {
      "anonymous": false,
      "inputs": [
        {
          "indexed": false,
          "internalType": "address",
          "name": "operator",
          "type": "address"
        },
        {
          "indexed": false,
          "internalType": "string",
          "name": "domain",
          "type": "string"
        }
      ],
      "name": "NewGateway",
      "type": "event"
    },
    {
      "anonymous": false,
      "inputs": [
        {
          "indexed": true,
          "internalType": "address",
          "name": "previousOwner",
          "type": "address"
        },
        {
          "indexed": true,
          "internalType": "address",
          "name": "newOwner",
          "type": "address"
        }
      ],
      "name": "OwnershipTransferred",
      "type": "event"
    },
    {
      "anonymous": false,
      "inputs": [
        {
          "indexed": false,
          "internalType": "uint256",
          "name": "index",
          "type": "uint256"
        },
        {
          "indexed": false,
          "internalType": "address",
          "name": "operator",
          "type": "address"
        },
        {
          "indexed": false,
          "internalType": "string",
          "name": "domain",
          "type": "string"
        }
      ],
      "name": "RemovedGateway",
      "type": "event"
    },
    {
      "anonymous": false,
      "inputs": [
        {
          "indexed": false,
          "internalType": "uint256",
          "name": "index",
          "type": "uint256"
        },
        {
          "indexed": false,
          "internalType": "address",
          "name": "operator",
          "type": "address"
        },
        {
          "indexed": false,
          "internalType": "string",
          "name": "oldDomain",
          "type": "string"
        },
        {
          "indexed": false,
          "internalType": "string",
          "name": "newDomain",
          "type": "string"
        }
      ],
      "name": "ReplacedGateway",
      "type": "event"
    },
    {
      "inputs": [
        {
          "internalType": "bytes",
          "name": "encoded",
          "type": "bytes"
        }
      ],
      "name": "DNSDecode",
      "outputs": [
        {
          "internalType": "string",
          "name": "_name",
          "type": "string"
        },
        {
          "internalType": "bytes32",
          "name": "namehash",
          "type": "bytes32"
        }
      ],
      "stateMutability": "pure",
      "type": "function"
    },
    {
      "inputs": [],
      "name": "Dev",
      "outputs": [
        {
          "internalType": "address",
          "name": "",
          "type": "address"
        }
      ],
      "stateMutability": "view",
      "type": "function"
    },
    {
      "inputs": [
        {
          "internalType": "uint256",
          "name": "",
          "type": "uint256"
        }
      ],
      "name": "Gateways",
      "outputs": [
        {
          "internalType": "string",
          "name": "domain",
          "type": "string"
        },
        {
          "internalType": "address",
          "name": "operator",
          "type": "address"
        }
      ],
      "stateMutability": "view",
      "type": "function"
    },
    {
      "inputs": [
        {
          "internalType": "bytes",
          "name": "response",
          "type": "bytes"
        },
        {
          "internalType": "bytes",
          "name": "extraData",
          "type": "bytes"
        }
      ],
      "name": "__callback",
      "outputs": [
        {
          "internalType": "bytes",
          "name": "",
          "type": "bytes"
        }
      ],
      "stateMutability": "view",
      "type": "function"
    },
    {
      "inputs": [
        {
          "internalType": "address",
          "name": "operator",
          "type": "address"
        },
        {
          "internalType": "string",
          "name": "domain",
          "type": "string"
        }
      ],
      "name": "addGateway",
      "outputs": [],
      "stateMutability": "nonpayable",
      "type": "function"
    },
    {
      "inputs": [],
      "name": "chainID",
      "outputs": [
        {
          "internalType": "string",
          "name": "",
          "type": "string"
        }
      ],
      "stateMutability": "view",
      "type": "function"
    },
    {
      "inputs": [
        {
          "internalType": "string",
          "name": "newChainID",
          "type": "string"
        }
      ],
      "name": "changeChainID",
      "outputs": [],
      "stateMutability": "nonpayable",
      "type": "function"
    },
    {
      "inputs": [
        {
          "internalType": "address",
          "name": "newDev",
          "type": "address"
        }
      ],
      "name": "changeDev",
      "outputs": [],
      "stateMutability": "nonpayable",
      "type": "function"
    },
    {
      "inputs": [
        {
          "internalType": "address",
          "name": "",
          "type": "address"
        }
      ],
      "name": "isSigner",
      "outputs": [
        {
          "internalType": "bool",
          "name": "",
          "type": "bool"
        }
      ],
      "stateMutability": "view",
      "type": "function"
    },
    {
      "inputs": [
        {
          "internalType": "bytes32",
          "name": "digest",
          "type": "bytes32"
        },
        {
          "internalType": "bytes",
          "name": "signature",
          "type": "bytes"
        }
      ],
      "name": "isValid",
      "outputs": [
        {
          "internalType": "bool",
          "name": "",
          "type": "bool"
        }
      ],
      "stateMutability": "view",
      "type": "function"
    },
    {
      "inputs": [
        {
          "internalType": "string",
          "name": "_name",
          "type": "string"
        }
      ],
      "name": "randomGateways",
      "outputs": [
        {
          "internalType": "string[]",
          "name": "urls",
          "type": "string[]"
        }
      ],
      "stateMutability": "view",
      "type": "function"
    },
    {
      "inputs": [
        {
          "internalType": "uint256",
          "name": "_index",
          "type": "uint256"
        }
      ],
      "name": "removeGateway",
      "outputs": [],
      "stateMutability": "nonpayable",
      "type": "function"
    },
    {
      "inputs": [
        {
          "internalType": "uint256",
          "name": "_index",
          "type": "uint256"
        },
        {
          "internalType": "address",
          "name": "operator",
          "type": "address"
        },
        {
          "internalType": "string",
          "name": "domain",
          "type": "string"
        }
      ],
      "name": "replaceGateway",
      "outputs": [],
      "stateMutability": "nonpayable",
      "type": "function"
    },
    {
      "inputs": [
        {
          "internalType": "bytes",
          "name": "encoded",
          "type": "bytes"
        },
        {
          "internalType": "bytes",
          "name": "data",
          "type": "bytes"
        }
      ],
      "name": "resolve",
      "outputs": [
        {
          "internalType": "bytes",
          "name": "",
          "type": "bytes"
        }
      ],
      "stateMutability": "view",
      "type": "function"
    },
    {
      "inputs": [
        {
          "internalType": "bytes4",
          "name": "sig",
          "type": "bytes4"
        }
      ],
      "name": "supportsInterface",
      "outputs": [
        {
          "internalType": "bool",
          "name": "",
          "type": "bool"
        }
      ],
      "stateMutability": "pure",
      "type": "function"
    }
  ],
  "bytecode": {
    "object": "0x60c060405260016080818152603560f81b60a0526200001f9082620001f6565b503480156200002d57600080fd5b50600080546001600160a01b031916331781556040805160808101825260139181019182527f7373686d61747269782e636c75623a3330303200000000000000000000000000606082015290815273dcefafb32b6e2eaa7172b6216ca5973037fe989f6020820152600280546001810182559281905281519192027f405787fa12a823e0f2b7631cc41b3ba8828b3321ca811111fa75cd3aa3bb5ace01908190620000d99082620001f6565b50602091820151600191820180546001600160a01b0319166001600160a01b0390921691909117905573dcefafb32b6e2eaa7172b6216ca5973037fe989f60005260039091527ffe8d9382d937bda5d38e941161ca52e9d3ea463fce867c889d3347e1bca1eed3805460ff19169091179055620002c2565b634e487b7160e01b600052604160045260246000fd5b600181811c908216806200017c57607f821691505b6020821081036200019d57634e487b7160e01b600052602260045260246000fd5b50919050565b601f821115620001f157600081815260208120601f850160051c81016020861015620001cc5750805b601f850160051c820191505b81811015620001ed57828155600101620001d8565b5050505b505050565b81516001600160401b0381111562000212576200021262000151565b6200022a8162000223845462000167565b84620001a3565b602080601f831160018114620002625760008415620002495750858301515b600019600386901b1c1916600185901b178555620001ed565b600085815260208120601f198616915b82811015620002935788860151825594840194600190910190840162000272565b5085821015620002b25787850151600019600388901b60f8161c191681555b5050505050600190811b01905550565b61270480620002d26000396000f3fe608060405234801561001057600080fd5b50600436106100f55760003560e01c80636d6aeb1011610097578063adc879e911610066578063adc879e91461025a578063c55a5d5914610262578063c5755f0614610275578063e5dac7031461028857600080fd5b80636d6aeb10146101e35780637df73e271461020457806388a8c95c146102275780639061b9231461023a57600080fd5b80630eb0a9e8116100d35780630eb0a9e81461017c5780631bebc1011461018f578063356a277a146101af5780634f309cb8146101d057600080fd5b806301e51ae8146100fa57806301ffc9a7146101445780630a24bf3314610167575b600080fd5b60005461011a9073ffffffffffffffffffffffffffffffffffffffff1681565b60405173ffffffffffffffffffffffffffffffffffffffff90911681526020015b60405180910390f35b61015761015236600461172a565b61029b565b604051901515815260200161013b565b61017a6101753660046117de565b610334565b005b61017a61018a366004611831565b610510565b6101a261019d366004611930565b610785565b60405161013b9190611a29565b6101c26101bd366004611a3c565b610932565b60405161013b929190611a55565b6101576101de366004611a8d565b610a04565b6101f66101f1366004611ac0565b610b81565b60405161013b929190611b02565b610157610212366004611b24565b60036020526000908152604090205460ff1681565b61017a610235366004611b24565b610e8e565b61024d610248366004611b3f565b610f3f565b60405161013b9190611b9f565b61024d6110ce565b61024d610270366004611b3f565b61115c565b61017a610283366004611ac0565b61142c565b61017a610296366004611a3c565b61149e565b60007fffffffff0000000000000000000000000000000000000000000000000000000082167f9061b92300000000000000000000000000000000000000000000000000000000148061032e57507fffffffff0000000000000000000000000000000000000000000000000000000082167f01ffc9a700000000000000000000000000000000000000000000000000000000145b92915050565b60005473ffffffffffffffffffffffffffffffffffffffff16331461035857600080fd5b73ffffffffffffffffffffffffffffffffffffffff831660009081526003602052604090205460ff16156103ed576040517f08c379a000000000000000000000000000000000000000000000000000000000815260206004820152600f60248201527f4f50455241544f525f455849535453000000000000000000000000000000000060448201526064015b60405180910390fd5b6040805160606020601f8501819004028201810183529181018381526002928291908690869081908501838280828437600092018290525093855250505073ffffffffffffffffffffffffffffffffffffffff871660209283015283546001810185559381522081519192600202019081906104699082611c53565b50602091820151600191820180547fffffffffffffffffffffffff00000000000000000000000000000000000000001673ffffffffffffffffffffffffffffffffffffffff928316179055851660009081526003909252604091829020805460ff19169091179055517f64197eae425603001ee7c401e4d5af2d59a27966c0b3bbafa8f0d553a5123eef9061050390859085908590611d3e565b60405180910390a1505050565b60005473ffffffffffffffffffffffffffffffffffffffff16331461053457600080fd5b73ffffffffffffffffffffffffffffffffffffffff831660009081526003602052604090205460ff16156105c4576040517f08c379a000000000000000000000000000000000000000000000000000000000815260206004820152601260248201527f4455504c49434154455f4f50455241544f52000000000000000000000000000060448201526064016103e4565b7f21ff386872700b269f87d1b4da5a1c555b54ba76e49725cb23f0048aea9a13478484600287815481106105fa576105fa611d77565b9060005260206000209060020201600001858560405161061e959493929190611e23565b60405180910390a16000600360006002878154811061063f5761063f611d77565b600091825260208083206001600290930201919091015473ffffffffffffffffffffffffffffffffffffffff1683528281019390935260409182019020805493151560ff199094169390931790925581516060601f85018390049092028101820183529182018381528291859085908190850183828082843760009201919091525050509082525073ffffffffffffffffffffffffffffffffffffffff851660209091015260028054869081106106f8576106f8611d77565b6000918252602090912082516002909202019081906107179082611c53565b50602091820151600191820180547fffffffffffffffffffffffff00000000000000000000000000000000000000001673ffffffffffffffffffffffffffffffffffffffff928316179055949094166000908152600390915260409020805460ff1916909317909255505050565b600280546060916000906107999083611ed5565b6107a4906001611ee9565b905060058111156107b3575060055b8067ffffffffffffffff8111156107cc576107cc61188b565b6040519080825280602002602001820160405280156107ff57816020015b60608152602001906001900390816107ea5790505b5092506000428533610812600143611efc565b406040516020016108269493929190611f0f565b6040516020818303038152906040528051906020012060001c905060005b828110156109295783823360405160200161088e92919091825260601b7fffffffffffffffffffffffffffffffffffffffff00000000000000000000000016602082015260340190565b6040516020818303038152906040528051906020012060001c6108b19190611f6d565b9150600282815481106108c6576108c6611d77565b90600052602060002090600202016000016001876040516020016108ec93929190611ff4565b604051602081830303815290604052858280610907906120eb565b93508151811061091957610919611d77565b6020026020010181905250610844565b50505050919050565b6002818154811061094257600080fd5b906000526020600020906002020160009150905080600001805461096590611bb2565b80601f016020809104026020016040519081016040528092919081815260200182805461099190611bb2565b80156109de5780601f106109b3576101008083540402835291602001916109de565b820191906000526020600020905b8154815290600101906020018083116109c157829003601f168201915b5050506001909301549192505073ffffffffffffffffffffffffffffffffffffffff1682565b600080610a146020828587612105565b610a1d9161212f565b90506000610a2e8460208188612105565b610a379161212f565b90507f7fffffffffffffffffffffffffffffffffffffffffffffffffffffffffffffff81166000610a6d60ff84901c601b611ee9565b90507f7fffffffffffffffffffffffffffffff5d576e7357a4501ddfe92f46681b20a0821115610ac9576040517f8baa579f00000000000000000000000000000000000000000000000000000000815260040160405180910390fd5b604080516000808252602082018084528b905260ff841692820192909252606081018690526080810184905260019060a0016020604051602081039080840390855afa158015610b1d573d6000803e3d6000fd5b5050604051601f19015191505073ffffffffffffffffffffffffffffffffffffffff811615801590610b74575073ffffffffffffffffffffffffffffffffffffffff811660009081526003602052604090205460ff165b9998505050505050505050565b60408051600c8082526101a08201909252606091600091829182918291816020015b6060815260200190600190039081610ba357905050905060005b6000888883818110610bd157610bd1611d77565b9050013560f81c60f81b7effffffffffffffffffffffffffffffffffffffffffffffffffffffffffffff19161115610cae57878188610c0f826120eb565b9350610c1e9284929190612105565b610c279161214d565b60f81c9250878188610c398683611ee9565b9350610c489284929190612105565b8080601f0160208091040260200160405190810160405280939291908181526020018383808284376000920191909152505084518592508791508110610c9057610c90611d77565b60200260200101819052508380610ca6906120eb565b945050610bbd565b5080610cb984612195565b93508381518110610ccc57610ccc611d77565b602002602001015194506000801b818480610ce690612195565b955081518110610cf857610cf8611d77565b602002602001015180519060200120604051602001610d21929190918252602082015260400190565b60405160208183030381529060405280519060200120935082600003610ddc5780600081518110610d5457610d54611d77565b602002602001015185604051602001610d6e9291906121ac565b6040516020818303038152906040528482600081518110610d9157610d91611d77565b602002602001015180519060200120604051602001610dba929190918252602082015260400190565b6040516020818303038152906040528051906020012094509450505050610e87565b8215610e835780610dec84612195565b93508381518110610dff57610dff611d77565b602002602001015185604051602001610e199291906121ac565b604051602081830303815290604052945083818481518110610e3d57610e3d611d77565b602002602001015180519060200120604051602001610e66929190918252602082015260400190565b604051602081830303815290604052805190602001209350610ddc565b5050505b9250929050565b60005473ffffffffffffffffffffffffffffffffffffffff163314610eb257600080fd5b6000805460405173ffffffffffffffffffffffffffffffffffffffff808516939216917f8be0079c531659141344cd1fd0a4f28419497f9722a3daafe3b4186f6b6457e091a3600080547fffffffffffffffffffffffff00000000000000000000000000000000000000001673ffffffffffffffffffffffffffffffffffffffff92909216919091179055565b6060600080610f4e8787610b81565b9150915030610f5c83610785565b610f6a60046000888a612105565b8460248911610f885760405180602001604052806000815250610fca565b610f95896024818d612105565b8080601f0160208091040260200160405190810160405280939291908181526020018383808284376000920191909152505050505b604051602001610fdd9493929190612204565b60408051601f198184030181529190527fc55a5d5900000000000000000000000000000000000000000000000000000000438561101b600183611efc565b6040805191406020830152810188905233606090811b7fffffffffffffffffffffffffffffffffffffffff000000000000000000000000169082015260740160408051601f19818403018152828252805160209182012090830194909452810191909152606081019190915260800160408051601f19818403018152908290527f556f18300000000000000000000000000000000000000000000000000000000082526103e49594939291600401612231565b600180546110db90611bb2565b80601f016020809104026020016040519081016040528092919081815260200182805461110790611bb2565b80156111545780601f1061112957610100808354040283529160200191611154565b820191906000526020600020905b81548152906001019060200180831161113757829003601f168201915b505050505081565b60606000808061116e858701876122ae565b91945092509050611180836003611ee9565b4311806111ec5750611193600184611efc565b6040805191406020830152810183905233606090811b7fffffffffffffffffffffffffffffffffffffffff0000000000000000000000001690820152607401604051602081830303815290604052805190602001208114155b15611223576040517f0af806e000000000000000000000000000000000000000000000000000000000815260040160405180910390fd5b600080806112338a8c018c6122fa565b9250925092506040518060400160405280600381526020017f307830000000000000000000000000000000000000000000000000000000000081525061127890612377565b7fff00000000000000000000000000000000000000000000000000000000000000166112a382612377565b7fff0000000000000000000000000000000000000000000000000000000000000016036112fc576040517fc715138d00000000000000000000000000000000000000000000000000000000815260040160405180910390fd5b8267ffffffffffffffff16421115611340576040517f0819bdcd00000000000000000000000000000000000000000000000000000000815260040160405180910390fd5b3073ffffffffffffffffffffffffffffffffffffffff16634f309cb83085888560405160200161137394939291906123c7565b60405160208183030381529060405280519060200120846040518363ffffffff1660e01b81526004016113a792919061246b565b602060405180830381865afa1580156113c4573d6000803e3d6000fd5b505050506040513d601f19601f820116820180604052508101906113e89190612484565b61141e576040517f8baa579f00000000000000000000000000000000000000000000000000000000815260040160405180910390fd5b9a9950505050505050505050565b60005473ffffffffffffffffffffffffffffffffffffffff16331461145057600080fd5b7fac98d6d5a73e5b219505e373f9cdf3ee7a5f997a0581aec69f9d8a9007d6efc660018383604051611484939291906124a6565b60405180910390a160016114998284836124d6565b505050565b60005473ffffffffffffffffffffffffffffffffffffffff1633146114c257600080fd5b600060036000600284815481106114db576114db611d77565b600091825260208083206002928302016001015473ffffffffffffffffffffffffffffffffffffffff16845283019390935260409091019020805460ff19169215159290921790915580547fcc507b212207e0679034d2f2ecba842b77bd2f7616c155bed6aa9a4b9f26a25b9183918290811061155a5761155a611d77565b906000526020600020906002020160010160009054906101000a900473ffffffffffffffffffffffffffffffffffffffff166002848154811061159f5761159f611d77565b90600052602060002090600202016000016040516115bf93929190612597565b60405180910390a1600254600182011015611674576002805460001981019081106115ec576115ec611d77565b90600052602060002090600202016002828154811061160d5761160d611d77565b600091825260209091206002909102018061162883826125cc565b50600191820154910180547fffffffffffffffffffffffff00000000000000000000000000000000000000001673ffffffffffffffffffffffffffffffffffffffff9092169190911790555b60028054806116855761168561269f565b600082815260208120600019909201916002830201906116a582826116d4565b5060010180547fffffffffffffffffffffffff0000000000000000000000000000000000000000169055905550565b5080546116e090611bb2565b6000825580601f106116f0575050565b601f01602090049060005260206000209081019061170e9190611711565b50565b5b808211156117265760008155600101611712565b5090565b60006020828403121561173c57600080fd5b81357fffffffff000000000000000000000000000000000000000000000000000000008116811461176c57600080fd5b9392505050565b803573ffffffffffffffffffffffffffffffffffffffff8116811461179757600080fd5b919050565b60008083601f8401126117ae57600080fd5b50813567ffffffffffffffff8111156117c657600080fd5b602083019150836020828501011115610e8757600080fd5b6000806000604084860312156117f357600080fd5b6117fc84611773565b9250602084013567ffffffffffffffff81111561181857600080fd5b6118248682870161179c565b9497909650939450505050565b6000806000806060858703121561184757600080fd5b8435935061185760208601611773565b9250604085013567ffffffffffffffff81111561187357600080fd5b61187f8782880161179c565b95989497509550505050565b7f4e487b7100000000000000000000000000000000000000000000000000000000600052604160045260246000fd5b600067ffffffffffffffff808411156118d5576118d561188b565b604051601f8501601f19908116603f011681019082821181831017156118fd576118fd61188b565b8160405280935085815286868601111561191657600080fd5b858560208301376000602087830101525050509392505050565b60006020828403121561194257600080fd5b813567ffffffffffffffff81111561195957600080fd5b8201601f8101841361196a57600080fd5b611979848235602084016118ba565b949350505050565b60005b8381101561199c578181015183820152602001611984565b50506000910152565b600081518084526119bd816020860160208601611981565b601f01601f19169290920160200192915050565b600082825180855260208086019550808260051b84010181860160005b84811015611a1c57601f19868403018952611a0a8383516119a5565b988401989250908301906001016119ee565b5090979650505050505050565b60208152600061176c60208301846119d1565b600060208284031215611a4e57600080fd5b5035919050565b604081526000611a6860408301856119a5565b905073ffffffffffffffffffffffffffffffffffffffff831660208301529392505050565b600080600060408486031215611aa257600080fd5b83359250602084013567ffffffffffffffff81111561181857600080fd5b60008060208385031215611ad357600080fd5b823567ffffffffffffffff811115611aea57600080fd5b611af68582860161179c565b90969095509350505050565b604081526000611b1560408301856119a5565b90508260208301529392505050565b600060208284031215611b3657600080fd5b61176c82611773565b60008060008060408587031215611b5557600080fd5b843567ffffffffffffffff80821115611b6d57600080fd5b611b798883890161179c565b90965094506020870135915080821115611b9257600080fd5b5061187f8782880161179c565b60208152600061176c60208301846119a5565b600181811c90821680611bc657607f821691505b602082108103611bff577f4e487b7100000000000000000000000000000000000000000000000000000000600052602260045260246000fd5b50919050565b601f82111561149957600081815260208120601f850160051c81016020861015611c2c5750805b601f850160051c820191505b81811015611c4b57828155600101611c38565b505050505050565b815167ffffffffffffffff811115611c6d57611c6d61188b565b611c8181611c7b8454611bb2565b84611c05565b602080601f831160018114611cb65760008415611c9e5750858301515b600019600386901b1c1916600185901b178555611c4b565b600085815260208120601f198616915b82811015611ce557888601518255948401946001909101908401611cc6565b5085821015611d035787850151600019600388901b60f8161c191681555b5050505050600190811b01905550565b818352818160208501375060006020828401015260006020601f19601f840116840101905092915050565b73ffffffffffffffffffffffffffffffffffffffff84168152604060208201526000611d6e604083018486611d13565b95945050505050565b7f4e487b7100000000000000000000000000000000000000000000000000000000600052603260045260246000fd5b60008154611db381611bb2565b808552602060018381168015611dd05760018114611dea57611e18565b60ff198516838901528284151560051b8901019550611e18565b866000528260002060005b85811015611e105781548a8201860152908301908401611df5565b890184019650505b505050505092915050565b85815273ffffffffffffffffffffffffffffffffffffffff85166020820152608060408201526000611e586080830186611da6565b8281036060840152611e6b818587611d13565b98975050505050505050565b7f4e487b7100000000000000000000000000000000000000000000000000000000600052601260045260246000fd5b7f4e487b7100000000000000000000000000000000000000000000000000000000600052601160045260246000fd5b600082611ee457611ee4611e77565b500490565b8082018082111561032e5761032e611ea6565b8181038181111561032e5761032e611ea6565b84815260008451611f27816020850160208901611981565b80830190507fffffffffffffffffffffffffffffffffffffffff0000000000000000000000008560601b1660208201528360348201526054810191505095945050505050565b600082611f7c57611f7c611e77565b500690565b60008154611f8e81611bb2565b60018281168015611fa65760018114611fbb57611fea565b60ff1984168752821515830287019450611fea565b8560005260208060002060005b85811015611fe15781548a820152908401908201611fc8565b50505082870194505b5050505092915050565b7f68747470733a2f2f000000000000000000000000000000000000000000000000815260006120266008830186611f81565b7f2f6569703135350000000000000000000000000000000000000000000000000081527f3a00000000000000000000000000000000000000000000000000000000000000600782015261207c6008820186611f81565b90507f2f00000000000000000000000000000000000000000000000000000000000000815283516120b4816001840160208801611981565b7f2f7b646174617d000000000000000000000000000000000000000000000000006001929091019182015260080195945050505050565b600060001982036120fe576120fe611ea6565b5060010190565b6000808585111561211557600080fd5b8386111561212257600080fd5b5050820193919092039150565b8035602083101561032e57600019602084900360031b1b1692915050565b7fff00000000000000000000000000000000000000000000000000000000000000813581811691600185101561218d5780818660010360031b1b83161692505b505092915050565b6000816121a4576121a4611ea6565b506000190190565b600083516121be818460208801611981565b7f2e0000000000000000000000000000000000000000000000000000000000000090830190815283516121f8816001840160208801611981565b01600101949350505050565b8385823760008482018481528351612223816020840160208801611981565b016020019695505050505050565b73ffffffffffffffffffffffffffffffffffffffff8616815260a06020820152600061226060a08301876119d1565b828103604084015261227281876119a5565b90507fffffffff00000000000000000000000000000000000000000000000000000000851660608401528281036080840152611e6b81856119a5565b6000806000606084860312156122c357600080fd5b505081359360208301359350604090920135919050565b600082601f8301126122eb57600080fd5b61176c838335602085016118ba565b60008060006060848603121561230f57600080fd5b833567ffffffffffffffff808216821461232857600080fd5b9093506020850135908082111561233e57600080fd5b61234a878388016122da565b9350604086013591508082111561236057600080fd5b5061236d868287016122da565b9150509250925092565b6000815160208301517fff00000000000000000000000000000000000000000000000000000000000000808216935060018310156123bf5780818460010360031b1b83161693505b505050919050565b7f190000000000000000000000000000000000000000000000000000000000000081527fffffffffffffffffffffffffffffffffffffffff0000000000000000000000008560601b1660028201527fffffffffffffffff0000000000000000000000000000000000000000000000008460c01b16601682015282601e8201526000825161245b81603e850160208701611981565b91909101603e0195945050505050565b82815260406020820152600061197960408301846119a5565b60006020828403121561249657600080fd5b8151801515811461176c57600080fd5b6040815260006124b96040830186611da6565b82810360208401526124cc818587611d13565b9695505050505050565b67ffffffffffffffff8311156124ee576124ee61188b565b612502836124fc8354611bb2565b83611c05565b6000601f841160018114612536576000851561251e5750838201355b600019600387901b1c1916600186901b178355612590565b600083815260209020601f19861690835b828110156125675786850135825560209485019460019092019101612547565b50868210156125845760001960f88860031b161c19848701351681555b505060018560011b0183555b5050505050565b83815273ffffffffffffffffffffffffffffffffffffffff83166020820152606060408201526000611d6e6060830184611da6565b8181036125d7575050565b6125e18254611bb2565b67ffffffffffffffff8111156125f9576125f961188b565b61260781611c7b8454611bb2565b6000601f82116001811461263b57600083156126235750848201545b600019600385901b1c1916600184901b178455612590565b600085815260209020601f19841690600086815260209020845b838110156126755782860154825560019586019590910190602001612655565b5085831015611d035793015460001960f8600387901b161c19169092555050600190811b01905550565b7f4e487b7100000000000000000000000000000000000000000000000000000000600052603160045260246000fdfea2646970667358221220181debaae9f48b0f0b8770793fbb3634119ba1afc4dcd1b69211b318d6f7ff6264736f6c63430008100033",
    "linkReferences": {}
  },
  "methodIdentifiers": {
    "DNSDecode(bytes)": "6d6aeb10",
    "Dev()": "01e51ae8",
    "Gateways(uint256)": "356a277a",
    "__callback(bytes,bytes)": "c55a5d59",
    "addGateway(address,string)": "0a24bf33",
    "chainID()": "adc879e9",
    "changeChainID(string)": "c5755f06",
    "changeDev(address)": "88a8c95c",
    "isSigner(address)": "7df73e27",
    "isValid(bytes32,bytes)": "4f309cb8",
    "randomGateways(string)": "1bebc101",
    "removeGateway(uint256)": "e5dac703",
    "replaceGateway(uint256,address,string)": "0eb0a9e8",
    "resolve(bytes,bytes)": "9061b923",
    "supportsInterface(bytes4)": "01ffc9a7"
  },
  "id": 19
}