{
  "abi": [
    {
      "inputs": [],
      "stateMutability": "nonpayable",
      "type": "constructor"
    },
    {
      "inputs": [],
      "name": "InvalidHash",
      "type": "error"
    },
    {
      "inputs": [],
      "name": "InvalidResponse",
      "type": "error"
    },
    {
      "inputs": [],
      "name": "InvalidSignature",
      "type": "error"
    },
    {
      "inputs": [
        {
          "internalType": "address",
          "name": "sender",
          "type": "address"
        },
        {
          "internalType": "string[]",
          "name": "urls",
          "type": "string[]"
        },
        {
          "internalType": "bytes",
          "name": "callData",
          "type": "bytes"
        },
        {
          "internalType": "bytes4",
          "name": "callbackFunction",
          "type": "bytes4"
        },
        {
          "internalType": "bytes",
          "name": "extraData",
          "type": "bytes"
        }
      ],
      "name": "OffchainLookup",
      "type": "error"
    },
    {
      "inputs": [],
      "name": "RequestError",
      "type": "error"
    },
    {
      "inputs": [],
      "name": "SignatureExpired",
      "type": "error"
    },
    {
      "inputs": [
        {
          "internalType": "bytes",
          "name": "encoded",
          "type": "bytes"
        }
      ],
      "name": "DNSDecode",
      "outputs": [
        {
          "internalType": "string",
          "name": "_name",
          "type": "string"
        },
        {
          "internalType": "bytes32",
          "name": "namehash",
          "type": "bytes32"
        }
      ],
      "stateMutability": "pure",
      "type": "function"
    },
    {
      "inputs": [],
      "name": "Dev",
      "outputs": [
        {
          "internalType": "address",
          "name": "",
          "type": "address"
        }
      ],
      "stateMutability": "view",
      "type": "function"
    },
    {
      "inputs": [
        {
          "internalType": "uint256",
          "name": "",
          "type": "uint256"
        }
      ],
      "name": "Gateways",
      "outputs": [
        {
          "internalType": "string",
          "name": "domain",
          "type": "string"
        },
        {
          "internalType": "address",
          "name": "operator",
          "type": "address"
        }
      ],
      "stateMutability": "view",
      "type": "function"
    },
    {
      "inputs": [
        {
          "internalType": "bytes",
          "name": "response",
          "type": "bytes"
        },
        {
          "internalType": "bytes",
          "name": "extraData",
          "type": "bytes"
        }
      ],
      "name": "__callback",
      "outputs": [
        {
          "internalType": "bytes",
          "name": "",
          "type": "bytes"
        }
      ],
      "stateMutability": "view",
      "type": "function"
    },
    {
      "inputs": [
        {
          "internalType": "address",
          "name": "operator",
          "type": "address"
        },
        {
          "internalType": "string",
          "name": "domain",
          "type": "string"
        }
      ],
      "name": "addGateway",
      "outputs": [],
      "stateMutability": "nonpayable",
      "type": "function"
    },
    {
      "inputs": [
        {
          "internalType": "address",
          "name": "",
          "type": "address"
        }
      ],
      "name": "isSigner",
      "outputs": [
        {
          "internalType": "bool",
          "name": "",
          "type": "bool"
        }
      ],
      "stateMutability": "view",
      "type": "function"
    },
    {
      "inputs": [
        {
          "internalType": "bytes32",
          "name": "hash",
          "type": "bytes32"
        },
        {
          "internalType": "bytes",
          "name": "signature",
          "type": "bytes"
        }
      ],
      "name": "isValid",
      "outputs": [
        {
          "internalType": "bool",
          "name": "",
          "type": "bool"
        }
      ],
      "stateMutability": "view",
      "type": "function"
    },
    {
      "inputs": [
        {
          "internalType": "string",
          "name": "_name",
          "type": "string"
        }
      ],
      "name": "randomGateways",
      "outputs": [
        {
          "internalType": "string[]",
          "name": "urls",
          "type": "string[]"
        }
      ],
      "stateMutability": "view",
      "type": "function"
    },
    {
      "inputs": [
        {
          "internalType": "uint256",
          "name": "_index",
          "type": "uint256"
        }
      ],
      "name": "removeGateway",
      "outputs": [],
      "stateMutability": "nonpayable",
      "type": "function"
    },
    {
      "inputs": [
        {
          "internalType": "uint256",
          "name": "_index",
          "type": "uint256"
        },
        {
          "internalType": "address",
          "name": "operator",
          "type": "address"
        },
        {
          "internalType": "string",
          "name": "domain",
          "type": "string"
        }
      ],
      "name": "replaceGateway",
      "outputs": [],
      "stateMutability": "nonpayable",
      "type": "function"
    },
    {
      "inputs": [
        {
          "internalType": "bytes",
          "name": "encoded",
          "type": "bytes"
        },
        {
          "internalType": "bytes",
          "name": "data",
          "type": "bytes"
        }
      ],
      "name": "resolve",
      "outputs": [
        {
          "internalType": "bytes",
          "name": "",
          "type": "bytes"
        }
      ],
      "stateMutability": "view",
      "type": "function"
    },
    {
      "inputs": [],
      "name": "testnet",
      "outputs": [
        {
          "internalType": "string",
          "name": "",
          "type": "string"
        }
      ],
      "stateMutability": "view",
      "type": "function"
    }
  ],
  "bytecode": {
    "object": "0x60c06040526008608090815267657468657265756d60c01b60a052600190620000299082620001ee565b503480156200003757600080fd5b506040805160808101825260139181019182527f7373686d61747269782e636c75623a3330303200000000000000000000000000606082015290815273a610e343ba79d93b39421fd6bf29067e1ac1aa666020820152600280546001810182556000829052825191027f405787fa12a823e0f2b7631cc41b3ba8828b3321ca811111fa75cd3aa3bb5ace01908190620000d19082620001ee565b50602091820151600191820180546001600160a01b0319166001600160a01b0390921691909117905573a610e343ba79d93b39421fd6bf29067e1ac1aa6660005260039091527f371b2a70d28d03f373e61ab2d46288befcc7612b7721ae6bd393a2e4efd289e9805460ff19169091179055620002ba565b634e487b7160e01b600052604160045260246000fd5b600181811c908216806200017457607f821691505b6020821081036200019557634e487b7160e01b600052602260045260246000fd5b50919050565b601f821115620001e957600081815260208120601f850160051c81016020861015620001c45750805b601f850160051c820191505b81811015620001e557828155600101620001d0565b5050505b505050565b81516001600160401b038111156200020a576200020a62000149565b62000222816200021b84546200015f565b846200019b565b602080601f8311600181146200025a5760008415620002415750858301515b600019600386901b1c1916600185901b178555620001e5565b600085815260208120601f198616915b828110156200028b578886015182559484019460019091019084016200026a565b5085821015620002aa5787850151600019600388901b60f8161c191681555b5050505050600190811b01905550565b6120a280620002ca6000396000f3fe608060405234801561001057600080fd5b50600436106100d45760003560e01c80634f309cb8116100815780639061b9231161005b5780639061b92314610208578063c55a5d591461021b578063e5dac7031461022e57600080fd5b80634f309cb8146101a15780636d6aeb10146101c45780637df73e27146101e557600080fd5b80630eb0a9e8116100b25780630eb0a9e81461014d5780631bebc10114610160578063356a277a1461018057600080fd5b806301e51ae8146100d95780630a24bf33146101235780630b48b67814610138575b600080fd5b6000546100f99073ffffffffffffffffffffffffffffffffffffffff1681565b60405173ffffffffffffffffffffffffffffffffffffffff90911681526020015b60405180910390f35b6101366101313660046113ec565b610241565b005b6101406103e3565b60405161011a919061148f565b61013661015b3660046114a9565b610471565b61017361016e3660046115a8565b610684565b60405161011a9190611651565b61019361018e366004611664565b6107d6565b60405161011a92919061167d565b6101b46101af3660046116b5565b6108a8565b604051901515815260200161011a565b6101d76101d23660046116e8565b610a87565b60405161011a92919061172a565b6101b46101f336600461174c565b60036020526000908152604090205460ff1681565b610140610216366004611767565b610d94565b610140610229366004611767565b610ec7565b61013661023c366004611664565b611197565b60005473ffffffffffffffffffffffffffffffffffffffff16331461026557600080fd5b73ffffffffffffffffffffffffffffffffffffffff831660009081526003602052604090205460ff16156102fa576040517f08c379a000000000000000000000000000000000000000000000000000000000815260206004820152600f60248201527f4f50455241544f525f455849535453000000000000000000000000000000000060448201526064015b60405180910390fd5b6040805160606020601f8501819004028201810183529181018381526002928291908690869081908501838280828437600092018290525093855250505073ffffffffffffffffffffffffffffffffffffffff871660209283015283546001810185559381522081519192600202019081906103769082611869565b50602091820151600191820180547fffffffffffffffffffffffff00000000000000000000000000000000000000001673ffffffffffffffffffffffffffffffffffffffff928316179055949094166000908152600390915260409020805460ff19169093179092555050565b600180546103f0906117c7565b80601f016020809104026020016040519081016040528092919081815260200182805461041c906117c7565b80156104695780601f1061043e57610100808354040283529160200191610469565b820191906000526020600020905b81548152906001019060200180831161044c57829003601f168201915b505050505081565b60005473ffffffffffffffffffffffffffffffffffffffff16331461049557600080fd5b73ffffffffffffffffffffffffffffffffffffffff831660009081526003602052604090205460ff1615610525576040517f08c379a000000000000000000000000000000000000000000000000000000000815260206004820152601260248201527f4455504c49434154455f4f50455241544f52000000000000000000000000000060448201526064016102f1565b6000600360006002878154811061053e5761053e611929565b600091825260208083206001600290930201919091015473ffffffffffffffffffffffffffffffffffffffff1683528281019390935260409182019020805493151560ff199094169390931790925581516060601f85018390049092028101820183529182018381528291859085908190850183828082843760009201919091525050509082525073ffffffffffffffffffffffffffffffffffffffff851660209091015260028054869081106105f7576105f7611929565b6000918252602090912082516002909202019081906106169082611869565b50602091820151600191820180547fffffffffffffffffffffffff00000000000000000000000000000000000000001673ffffffffffffffffffffffffffffffffffffffff928316179055949094166000908152600390915260409020805460ff1916909317909255505050565b6002805460609160009061069890836119b6565b6106a39060016119ca565b905060058111156106b2575060055b8067ffffffffffffffff8111156106cb576106cb611503565b6040519080825280602002602001820160405280156106fe57816020015b60608152602001906001900390816106e95790505b5092504260005b828110156107cd578382873361071c6001436119e3565b4060405160200161073094939291906119f6565b6040516020818303038152906040528051906020012060001c6107539190611a54565b91506002828154811061076857610768611929565b906000526020600020906002020160000160018760405160200161078e93929190611adb565b6040516020818303038152906040528582815181106107af576107af611929565b602002602001018190525080806107c590611bac565b915050610705565b50505050919050565b600281815481106107e657600080fd5b9060005260206000209060020201600091509050806000018054610809906117c7565b80601f0160208091040260200160405190810160405280929190818152602001828054610835906117c7565b80156108825780601f1061085757610100808354040283529160200191610882565b820191906000526020600020905b81548152906001019060200180831161086557829003601f168201915b5050506001909301549192505073ffffffffffffffffffffffffffffffffffffffff1682565b6000808080604085111561090b576108c4602060008789611bc6565b6108cd91611bf0565b92506108dc8560208189611bc6565b6108e591611bf0565b9150858560408181106108fa576108fa611929565b919091013560f81c91506109769050565b610919602060008789611bc6565b61092291611bf0565b92506000610933866020818a611bc6565b61093c91611bf0565b7f7fffffffffffffffffffffffffffffffffffffffffffffffffffffffffffffff81169350905061097260ff82901c601b6119ca565b9150505b7f7fffffffffffffffffffffffffffffff5d576e7357a4501ddfe92f46681b20a08211156109d0576040517f8baa579f00000000000000000000000000000000000000000000000000000000815260040160405180910390fd5b604080516000808252602082018084528a905260ff841692820192909252606081018590526080810184905260019060a0016020604051602081039080840390855afa158015610a24573d6000803e3d6000fd5b5050604051601f19015191505073ffffffffffffffffffffffffffffffffffffffff811615801590610a7b575073ffffffffffffffffffffffffffffffffffffffff811660009081526003602052604090205460ff165b98975050505050505050565b60408051600c8082526101a08201909252606091600091829182918291816020015b6060815260200190600190039081610aa957905050905060005b6000888883818110610ad757610ad7611929565b9050013560f81c60f81b7effffffffffffffffffffffffffffffffffffffffffffffffffffffffffffff19161115610bb457878188610b1582611bac565b9350610b249284929190611bc6565b610b2d91611c0e565b60f81c9250878188610b3f86836119ca565b9350610b4e9284929190611bc6565b8080601f0160208091040260200160405190810160405280939291908181526020018383808284376000920191909152505084518592508791508110610b9657610b96611929565b60200260200101819052508380610bac90611bac565b945050610ac3565b5080610bbf84611c56565b93508381518110610bd257610bd2611929565b602002602001015194506000801b818480610bec90611c56565b955081518110610bfe57610bfe611929565b602002602001015180519060200120604051602001610c27929190918252602082015260400190565b60405160208183030381529060405280519060200120935082600003610ce25780600081518110610c5a57610c5a611929565b602002602001015185604051602001610c74929190611c6d565b6040516020818303038152906040528482600081518110610c9757610c97611929565b602002602001015180519060200120604051602001610cc0929190918252602082015260400190565b6040516020818303038152906040528051906020012094509450505050610d8d565b8215610d895780610cf284611c56565b93508381518110610d0557610d05611929565b602002602001015185604051602001610d1f929190611c6d565b604051602081830303815290604052945083818481518110610d4357610d43611929565b602002602001015180519060200120604051602001610d6c929190918252602082015260400190565b604051602081830303815290604052805190602001209350610ce2565b5050505b9250929050565b6060600080610da38787610a87565b9150915030610db183610684565b610dbf60046000888a611bc6565b848b8b604051602001610dd6959493929190611cc5565b60408051601f198184030181529190527fc55a5d59000000000000000000000000000000000000000000000000000000004385610e146001836119e3565b6040805191406020830152810188905233606090811b7fffffffffffffffffffffffffffffffffffffffff000000000000000000000000169082015260740160408051601f19818403018152828252805160209182012090830194909452810191909152606081019190915260800160408051601f19818403018152908290527f556f18300000000000000000000000000000000000000000000000000000000082526102f19594939291600401611ced565b606060008080610ed985870187611d6a565b91945092509050610eeb8360036119ca565b431180610f575750610efe6001846119e3565b6040805191406020830152810183905233606090811b7fffffffffffffffffffffffffffffffffffffffff0000000000000000000000001690820152607401604051602081830303815290604052805190602001208114155b15610f8e576040517f0af806e000000000000000000000000000000000000000000000000000000000815260040160405180910390fd5b60008080610f9e8a8c018c611db6565b9250925092506040518060400160405280600381526020017f3078300000000000000000000000000000000000000000000000000000000000815250610fe390611e33565b7fff000000000000000000000000000000000000000000000000000000000000001661100e82611e33565b7fff000000000000000000000000000000000000000000000000000000000000001603611067576040517fc715138d00000000000000000000000000000000000000000000000000000000815260040160405180910390fd5b8267ffffffffffffffff164211156110ab576040517f0819bdcd00000000000000000000000000000000000000000000000000000000815260040160405180910390fd5b3073ffffffffffffffffffffffffffffffffffffffff16634f309cb8308588856040516020016110de9493929190611e83565b60405160208183030381529060405280519060200120846040518363ffffffff1660e01b8152600401611112929190611f27565b602060405180830381865afa15801561112f573d6000803e3d6000fd5b505050506040513d601f19601f820116820180604052508101906111539190611f40565b611189576040517f8baa579f00000000000000000000000000000000000000000000000000000000815260040160405180910390fd5b9a9950505050505050505050565b60005473ffffffffffffffffffffffffffffffffffffffff1633146111bb57600080fd5b600060036000600284815481106111d4576111d4611929565b6000918252602080832060029283020160019081015473ffffffffffffffffffffffffffffffffffffffff1685529084019490945260409092019020805460ff191693151593909317909255905490820110156112cb5760028054600019810190811061124357611243611929565b90600052602060002090600202016002828154811061126457611264611929565b600091825260209091206002909102018061127f8382611f62565b50600191820154910180547fffffffffffffffffffffffff00000000000000000000000000000000000000001673ffffffffffffffffffffffffffffffffffffffff9092169190911790555b60028054806112dc576112dc61203d565b600082815260208120600019909201916002830201906112fc828261132b565b5060010180547fffffffffffffffffffffffff0000000000000000000000000000000000000000169055905550565b508054611337906117c7565b6000825580601f10611347575050565b601f0160209004906000526020600020908101906113659190611368565b50565b5b8082111561137d5760008155600101611369565b5090565b803573ffffffffffffffffffffffffffffffffffffffff811681146113a557600080fd5b919050565b60008083601f8401126113bc57600080fd5b50813567ffffffffffffffff8111156113d457600080fd5b602083019150836020828501011115610d8d57600080fd5b60008060006040848603121561140157600080fd5b61140a84611381565b9250602084013567ffffffffffffffff81111561142657600080fd5b611432868287016113aa565b9497909650939450505050565b60005b8381101561145a578181015183820152602001611442565b50506000910152565b6000815180845261147b81602086016020860161143f565b601f01601f19169290920160200192915050565b6020815260006114a26020830184611463565b9392505050565b600080600080606085870312156114bf57600080fd5b843593506114cf60208601611381565b9250604085013567ffffffffffffffff8111156114eb57600080fd5b6114f7878288016113aa565b95989497509550505050565b7f4e487b7100000000000000000000000000000000000000000000000000000000600052604160045260246000fd5b600067ffffffffffffffff8084111561154d5761154d611503565b604051601f8501601f19908116603f0116810190828211818310171561157557611575611503565b8160405280935085815286868601111561158e57600080fd5b858560208301376000602087830101525050509392505050565b6000602082840312156115ba57600080fd5b813567ffffffffffffffff8111156115d157600080fd5b8201601f810184136115e257600080fd5b6115f184823560208401611532565b949350505050565b600082825180855260208086019550808260051b84010181860160005b8481101561164457601f19868403018952611632838351611463565b98840198925090830190600101611616565b5090979650505050505050565b6020815260006114a260208301846115f9565b60006020828403121561167657600080fd5b5035919050565b6040815260006116906040830185611463565b905073ffffffffffffffffffffffffffffffffffffffff831660208301529392505050565b6000806000604084860312156116ca57600080fd5b83359250602084013567ffffffffffffffff81111561142657600080fd5b600080602083850312156116fb57600080fd5b823567ffffffffffffffff81111561171257600080fd5b61171e858286016113aa565b90969095509350505050565b60408152600061173d6040830185611463565b90508260208301529392505050565b60006020828403121561175e57600080fd5b6114a282611381565b6000806000806040858703121561177d57600080fd5b843567ffffffffffffffff8082111561179557600080fd5b6117a1888389016113aa565b909650945060208701359150808211156117ba57600080fd5b506114f7878288016113aa565b600181811c908216806117db57607f821691505b602082108103611814577f4e487b7100000000000000000000000000000000000000000000000000000000600052602260045260246000fd5b50919050565b601f82111561186457600081815260208120601f850160051c810160208610156118415750805b601f850160051c820191505b818110156118605782815560010161184d565b5050505b505050565b815167ffffffffffffffff81111561188357611883611503565b6118978161189184546117c7565b8461181a565b602080601f8311600181146118cc57600084156118b45750858301515b600019600386901b1c1916600185901b178555611860565b600085815260208120601f198616915b828110156118fb578886015182559484019460019091019084016118dc565b50858210156119195787850151600019600388901b60f8161c191681555b5050505050600190811b01905550565b7f4e487b7100000000000000000000000000000000000000000000000000000000600052603260045260246000fd5b7f4e487b7100000000000000000000000000000000000000000000000000000000600052601260045260246000fd5b7f4e487b7100000000000000000000000000000000000000000000000000000000600052601160045260246000fd5b6000826119c5576119c5611958565b500490565b808201808211156119dd576119dd611987565b92915050565b818103818111156119dd576119dd611987565b84815260008451611a0e81602085016020890161143f565b80830190507fffffffffffffffffffffffffffffffffffffffff0000000000000000000000008560601b1660208201528360348201526054810191505095945050505050565b600082611a6357611a63611958565b500690565b60008154611a75816117c7565b60018281168015611a8d5760018114611aa257611ad1565b60ff1984168752821515830287019450611ad1565b8560005260208060002060005b85811015611ac85781548a820152908401908201611aaf565b50505082870194505b5050505092915050565b7f68747470733a2f2f00000000000000000000000000000000000000000000000081526000611b0d6008830186611a68565b7f2f000000000000000000000000000000000000000000000000000000000000008152611b3d6001820186611a68565b90507f3a0000000000000000000000000000000000000000000000000000000000000081528351611b7581600184016020880161143f565b7f2f7b646174617d000000000000000000000000000000000000000000000000006001929091019182015260080195945050505050565b60006000198203611bbf57611bbf611987565b5060010190565b60008085851115611bd657600080fd5b83861115611be357600080fd5b5050820193919092039150565b803560208310156119dd57600019602084900360031b1b1692915050565b7fff000000000000000000000000000000000000000000000000000000000000008135818116916001851015611c4e5780818660010360031b1b83161692505b505092915050565b600081611c6557611c65611987565b506000190190565b60008351611c7f81846020880161143f565b7f2e000000000000000000000000000000000000000000000000000000000000009083019081528351611cb981600184016020880161143f565b01600101949350505050565b8486823760008582018581528385602083013760009301602001928352509095945050505050565b73ffffffffffffffffffffffffffffffffffffffff8616815260a060208201526000611d1c60a08301876115f9565b8281036040840152611d2e8187611463565b90507fffffffff00000000000000000000000000000000000000000000000000000000851660608401528281036080840152610a7b8185611463565b600080600060608486031215611d7f57600080fd5b505081359360208301359350604090920135919050565b600082601f830112611da757600080fd5b6114a283833560208501611532565b600080600060608486031215611dcb57600080fd5b833567ffffffffffffffff8082168214611de457600080fd5b90935060208501359080821115611dfa57600080fd5b611e0687838801611d96565b93506040860135915080821115611e1c57600080fd5b50611e2986828701611d96565b9150509250925092565b6000815160208301517fff0000000000000000000000000000000000000000000000000000000000000080821693506001831015611e7b5780818460010360031b1b83161693505b505050919050565b7f190000000000000000000000000000000000000000000000000000000000000081527fffffffffffffffffffffffffffffffffffffffff0000000000000000000000008560601b1660028201527fffffffffffffffff0000000000000000000000000000000000000000000000008460c01b16601682015282601e82015260008251611f1781603e85016020870161143f565b91909101603e0195945050505050565b8281526040602082015260006115f16040830184611463565b600060208284031215611f5257600080fd5b815180151581146114a257600080fd5b818103611f6d575050565b611f7782546117c7565b67ffffffffffffffff811115611f8f57611f8f611503565b611f9d8161189184546117c7565b6000601f821160018114611fd15760008315611fb95750848201545b600019600385901b1c1916600184901b178455612036565b600085815260209020601f19841690600086815260209020845b8381101561200b5782860154825560019586019590910190602001611feb565b50858310156120295781850154600019600388901b60f8161c191681555b50505060018360011b0184555b5050505050565b7f4e487b7100000000000000000000000000000000000000000000000000000000600052603160045260246000fdfea264697066735822122001cddfdf988798baedc12e9b9b5ee3980483536c9aaec3ebb0600cf13ddb4e2764736f6c63430008100033",
    "linkReferences": {}
  },
  "methodIdentifiers": {
    "DNSDecode(bytes)": "6d6aeb10",
    "Dev()": "01e51ae8",
    "Gateways(uint256)": "356a277a",
    "__callback(bytes,bytes)": "c55a5d59",
    "addGateway(address,string)": "0a24bf33",
    "isSigner(address)": "7df73e27",
    "isValid(bytes32,bytes)": "4f309cb8",
    "randomGateways(string)": "1bebc101",
    "removeGateway(uint256)": "e5dac703",
    "replaceGateway(uint256,address,string)": "0eb0a9e8",
    "resolve(bytes,bytes)": "9061b923",
    "testnet()": "0b48b678"
  },
  "id": 19
}