{
  "abi": [
    {
      "inputs": [],
      "stateMutability": "nonpayable",
      "type": "constructor"
    },
    {
      "inputs": [],
      "name": "InvalidHash",
      "type": "error"
    },
    {
      "inputs": [],
      "name": "InvalidSignature",
      "type": "error"
    },
    {
      "inputs": [
        {
          "internalType": "address",
          "name": "sender",
          "type": "address"
        },
        {
          "internalType": "string[]",
          "name": "urls",
          "type": "string[]"
        },
        {
          "internalType": "bytes",
          "name": "callData",
          "type": "bytes"
        },
        {
          "internalType": "bytes4",
          "name": "callbackFunction",
          "type": "bytes4"
        },
        {
          "internalType": "bytes",
          "name": "extraData",
          "type": "bytes"
        }
      ],
      "name": "OffchainLookup",
      "type": "error"
    },
    {
      "inputs": [],
      "name": "RequestError",
      "type": "error"
    },
    {
      "inputs": [],
      "name": "SignatureExpired",
      "type": "error"
    },
    {
      "inputs": [
        {
          "internalType": "bytes",
          "name": "name",
          "type": "bytes"
        }
      ],
      "name": "DNSDecode",
      "outputs": [
        {
          "internalType": "string",
          "name": "gname",
          "type": "string"
        },
        {
          "internalType": "bytes32",
          "name": "_namehash",
          "type": "bytes32"
        }
      ],
      "stateMutability": "pure",
      "type": "function"
    },
    {
      "inputs": [],
      "name": "Dev",
      "outputs": [
        {
          "internalType": "address",
          "name": "",
          "type": "address"
        }
      ],
      "stateMutability": "view",
      "type": "function"
    },
    {
      "inputs": [],
      "name": "ENS",
      "outputs": [
        {
          "internalType": "contract iENS",
          "name": "",
          "type": "address"
        }
      ],
      "stateMutability": "view",
      "type": "function"
    },
    {
      "inputs": [
        {
          "internalType": "uint256",
          "name": "",
          "type": "uint256"
        }
      ],
      "name": "Gateways",
      "outputs": [
        {
          "internalType": "string",
          "name": "domain",
          "type": "string"
        },
        {
          "internalType": "address",
          "name": "operator",
          "type": "address"
        }
      ],
      "stateMutability": "view",
      "type": "function"
    },
    {
      "inputs": [
        {
          "internalType": "bytes",
          "name": "response",
          "type": "bytes"
        },
        {
          "internalType": "bytes",
          "name": "extraData",
          "type": "bytes"
        }
      ],
      "name": "__callback",
      "outputs": [
        {
          "internalType": "bytes",
          "name": "",
          "type": "bytes"
        }
      ],
      "stateMutability": "view",
      "type": "function"
    },
    {
      "inputs": [
        {
          "internalType": "address",
          "name": "operator",
          "type": "address"
        },
        {
          "internalType": "string",
          "name": "domain",
          "type": "string"
        }
      ],
      "name": "addGateway",
      "outputs": [],
      "stateMutability": "nonpayable",
      "type": "function"
    },
    {
      "inputs": [
        {
          "internalType": "address",
          "name": "",
          "type": "address"
        }
      ],
      "name": "isSigner",
      "outputs": [
        {
          "internalType": "bool",
          "name": "",
          "type": "bool"
        }
      ],
      "stateMutability": "view",
      "type": "function"
    },
    {
      "inputs": [
        {
          "internalType": "bytes32",
          "name": "hash",
          "type": "bytes32"
        },
        {
          "internalType": "bytes",
          "name": "signature",
          "type": "bytes"
        }
      ],
      "name": "isValid",
      "outputs": [
        {
          "internalType": "bool",
          "name": "",
          "type": "bool"
        }
      ],
      "stateMutability": "view",
      "type": "function"
    },
    {
      "inputs": [
        {
          "internalType": "string",
          "name": "gname",
          "type": "string"
        }
      ],
      "name": "randomGateways",
      "outputs": [
        {
          "internalType": "string[]",
          "name": "urls",
          "type": "string[]"
        }
      ],
      "stateMutability": "view",
      "type": "function"
    },
    {
      "inputs": [
        {
          "internalType": "uint256",
          "name": "_index",
          "type": "uint256"
        }
      ],
      "name": "removeGateway",
      "outputs": [],
      "stateMutability": "nonpayable",
      "type": "function"
    },
    {
      "inputs": [
        {
          "internalType": "uint256",
          "name": "_index",
          "type": "uint256"
        },
        {
          "internalType": "address",
          "name": "operator",
          "type": "address"
        },
        {
          "internalType": "string",
          "name": "domain",
          "type": "string"
        }
      ],
      "name": "replaceGateway",
      "outputs": [],
      "stateMutability": "nonpayable",
      "type": "function"
    },
    {
      "inputs": [
        {
          "internalType": "bytes",
          "name": "name",
          "type": "bytes"
        },
        {
          "internalType": "bytes",
          "name": "data",
          "type": "bytes"
        }
      ],
      "name": "resolve",
      "outputs": [
        {
          "internalType": "bytes",
          "name": "",
          "type": "bytes"
        }
      ],
      "stateMutability": "view",
      "type": "function"
    }
  ],
  "bytecode": {
    "object": "0x60806040523480156200001157600080fd5b506040805160808101825260129181019182527133b7b2b93634973730b6b2b9bcb9973c3cbd60711b606082015290815273a0896ab9606ea2cf884549030ddc960a11b1e6306020820152600280546001810182556000829052825191027f405787fa12a823e0f2b7631cc41b3ba8828b3321ca811111fa75cd3aa3bb5ace01908190620000a09082620001d3565b50602091820151600191820180546001600160a01b039092166001600160a01b031992831617905573a0896ab9606ea2cf884549030ddc960a11b1e63060005260039092527fef746fa440ab52dde8c389f211b1107997d54ba803719d1d3af89bcb0a152121805460ff19168217905580549091166e0c2e074ec69a0dfb2997ba6c7d2e1e1790556200029f565b634e487b7160e01b600052604160045260246000fd5b600181811c908216806200015957607f821691505b6020821081036200017a57634e487b7160e01b600052602260045260246000fd5b50919050565b601f821115620001ce57600081815260208120601f850160051c81016020861015620001a95750805b601f850160051c820191505b81811015620001ca57828155600101620001b5565b5050505b505050565b81516001600160401b03811115620001ef57620001ef6200012e565b620002078162000200845462000144565b8462000180565b602080601f8311600181146200023f5760008415620002265750858301515b600019600386901b1c1916600185901b178555620001ca565b600085815260208120601f198616915b8281101562000270578886015182559484019460019091019084016200024f565b50858210156200028f5787850151600019600388901b60f8161c191681555b5050505050600190811b01905550565b611f4e80620002af6000396000f3fe608060405234801561001057600080fd5b50600436106100d45760003560e01c80634f309cb8116100815780639061b9231161005b5780639061b92314610213578063c55a5d5914610233578063e5dac7031461024657600080fd5b80634f309cb8146101ac5780636d6aeb10146101cf5780637df73e27146101f057600080fd5b80631bebc101116100b25780631bebc1011461014b5780631d2e2cc41461016b578063356a277a1461018b57600080fd5b806301e51ae8146100d95780630a24bf33146101235780630eb0a9e814610138575b600080fd5b6000546100f99073ffffffffffffffffffffffffffffffffffffffff1681565b60405173ffffffffffffffffffffffffffffffffffffffff90911681526020015b60405180910390f35b61013661013136600461130c565b610259565b005b61013661014636600461135f565b6103fb565b61015e61015936600461145e565b61060e565b60405161011a9190611554565b6001546100f99073ffffffffffffffffffffffffffffffffffffffff1681565b61019e61019936600461156e565b61075d565b60405161011a929190611587565b6101bf6101ba3660046115bf565b61082f565b604051901515815260200161011a565b6101e26101dd3660046115f2565b610a0e565b60405161011a929190611634565b6101bf6101fe366004611656565b60036020526000908152604090205460ff1681565b610226610221366004611671565b610d1b565b60405161011a91906116d1565b610226610241366004611671565b610eaa565b61013661025436600461156e565b6110b7565b60005473ffffffffffffffffffffffffffffffffffffffff16331461027d57600080fd5b73ffffffffffffffffffffffffffffffffffffffff831660009081526003602052604090205460ff1615610312576040517f08c379a000000000000000000000000000000000000000000000000000000000815260206004820152600f60248201527f4f50455241544f525f455849535453000000000000000000000000000000000060448201526064015b60405180910390fd5b6040805160606020601f8501819004028201810183529181018381526002928291908690869081908501838280828437600092018290525093855250505073ffffffffffffffffffffffffffffffffffffffff8716602092830152835460018101855593815220815191926002020190819061038e9082611786565b50602091820151600191820180547fffffffffffffffffffffffff00000000000000000000000000000000000000001673ffffffffffffffffffffffffffffffffffffffff928316179055949094166000908152600390915260409020805460ff19169093179092555050565b60005473ffffffffffffffffffffffffffffffffffffffff16331461041f57600080fd5b73ffffffffffffffffffffffffffffffffffffffff831660009081526003602052604090205460ff16156104af576040517f08c379a000000000000000000000000000000000000000000000000000000000815260206004820152601260248201527f4475706c69636174655f4f70657261746f7200000000000000000000000000006044820152606401610309565b600060036000600287815481106104c8576104c8611846565b600091825260208083206001600290930201919091015473ffffffffffffffffffffffffffffffffffffffff1683528281019390935260409182019020805493151560ff199094169390931790925581516060601f85018390049092028101820183529182018381528291859085908190850183828082843760009201919091525050509082525073ffffffffffffffffffffffffffffffffffffffff8516602090910152600280548690811061058157610581611846565b6000918252602090912082516002909202019081906105a09082611786565b50602091820151600191820180547fffffffffffffffffffffffff00000000000000000000000000000000000000001673ffffffffffffffffffffffffffffffffffffffff928316179055949094166000908152600390915260409020805460ff1916909317909255505050565b6002805460609160009061062290836118d3565b61062d9060016118e7565b9050600581111561063c575060055b8067ffffffffffffffff811115610655576106556113b9565b60405190808252806020026020018201604052801561068857816020015b60608152602001906001900390816106735790505b5092504260005b8281101561075457838287336106a6600143611900565b406040516020016106ba949392919061192f565b6040516020818303038152906040528051906020012060001c6106dd919061198d565b9150600282815481106106f2576106f2611846565b9060005260206000209060020201600001866040516020016107159291906119a1565b60405160208183030381529060405285828151811061073657610736611846565b6020026020010181905250808061074c90611aa3565b91505061068f565b50505050919050565b6002818154811061076d57600080fd5b9060005260206000209060020201600091509050806000018054610790906116e4565b80601f01602080910402602001604051908101604052809291908181526020018280546107bc906116e4565b80156108095780601f106107de57610100808354040283529160200191610809565b820191906000526020600020905b8154815290600101906020018083116107ec57829003601f168201915b5050506001909301549192505073ffffffffffffffffffffffffffffffffffffffff1682565b600080808060408511156108925761084b602060008789611abd565b61085491611ae7565b92506108638560208189611abd565b61086c91611ae7565b91508585604081811061088157610881611846565b919091013560f81c91506108fd9050565b6108a0602060008789611abd565b6108a991611ae7565b925060006108ba866020818a611abd565b6108c391611ae7565b7f7fffffffffffffffffffffffffffffffffffffffffffffffffffffffffffffff8116935090506108f960ff82901c601b6118e7565b9150505b7f7fffffffffffffffffffffffffffffff5d576e7357a4501ddfe92f46681b20a0821115610957576040517f8baa579f00000000000000000000000000000000000000000000000000000000815260040160405180910390fd5b604080516000808252602082018084528a905260ff841692820192909252606081018590526080810184905260019060a0016020604051602081039080840390855afa1580156109ab573d6000803e3d6000fd5b5050604051601f19015191505073ffffffffffffffffffffffffffffffffffffffff811615801590610a02575073ffffffffffffffffffffffffffffffffffffffff811660009081526003602052604090205460ff165b98975050505050505050565b60408051600c8082526101a08201909252606091600091829182918291816020015b6060815260200190600190039081610a3057905050905060005b6000888883818110610a5e57610a5e611846565b9050013560f81c60f81b7effffffffffffffffffffffffffffffffffffffffffffffffffffffffffffff19161115610b3b57878188610a9c82611aa3565b9350610aab9284929190611abd565b610ab491611b05565b60f81c9250878188610ac686836118e7565b9350610ad59284929190611abd565b8080601f0160208091040260200160405190810160405280939291908181526020018383808284376000920191909152505084518592508791508110610b1d57610b1d611846565b60200260200101819052508380610b3390611aa3565b945050610a4a565b5080610b4684611b4d565b93508381518110610b5957610b59611846565b602002602001015194506000801b818480610b7390611b4d565b955081518110610b8557610b85611846565b602002602001015180519060200120604051602001610bae929190918252602082015260400190565b60405160208183030381529060405280519060200120935082600003610c695780600081518110610be157610be1611846565b602002602001015185604051602001610bfb929190611b64565b6040516020818303038152906040528482600081518110610c1e57610c1e611846565b602002602001015180519060200120604051602001610c47929190918252602082015260400190565b6040516020818303038152906040528051906020012094509450505050610d14565b8215610d105780610c7984611b4d565b93508381518110610c8c57610c8c611846565b602002602001015185604051602001610ca6929190611b64565b604051602081830303815290604052945083818481518110610cca57610cca611846565b602002602001015180519060200120604051602001610cf3929190918252602082015260400190565b604051602081830303815290604052805190602001209350610c69565b5050505b9250929050565b6060600080610d2a8787610a0e565b9150915030610d388361060e565b610d4660046000888a611abd565b8460248911610d645760405180602001604052806000815250610da6565b610d71896024818d611abd565b8080601f0160208091040260200160405190810160405280939291908181526020018383808284376000920191909152505050505b604051602001610db99493929190611bbc565b60408051601f198184030181529190527fc55a5d59000000000000000000000000000000000000000000000000000000004385610df7600183611900565b6040805191406020830152810188905233606090811b7fffffffffffffffffffffffffffffffffffffffff000000000000000000000000169082015260740160408051601f19818403018152828252805160209182012090830194909452810191909152606081019190915260800160408051601f19818403018152908290527f556f18300000000000000000000000000000000000000000000000000000000082526103099594939291600401611be9565b606060008080610ebc85870187611c66565b91945092509050610ece8360036118e7565b431180610f3a5750610ee1600184611900565b6040805191406020830152810183905233606090811b7fffffffffffffffffffffffffffffffffffffffff0000000000000000000000001690820152607401604051602081830303815290604052805190602001208114155b15610f71576040517f0af806e000000000000000000000000000000000000000000000000000000000815260040160405180910390fd5b60008080610f818a8c018c611cb2565b9250925092508267ffffffffffffffff16421115610fcb576040517f0819bdcd00000000000000000000000000000000000000000000000000000000815260040160405180910390fd5b3073ffffffffffffffffffffffffffffffffffffffff16634f309cb830858885604051602001610ffe9493929190611d2f565b60405160208183030381529060405280519060200120846040518363ffffffff1660e01b8152600401611032929190611dd3565b602060405180830381865afa15801561104f573d6000803e3d6000fd5b505050506040513d601f19601f820116820180604052508101906110739190611dec565b6110a9576040517f8baa579f00000000000000000000000000000000000000000000000000000000815260040160405180910390fd5b9a9950505050505050505050565b60005473ffffffffffffffffffffffffffffffffffffffff1633146110db57600080fd5b600060036000600284815481106110f4576110f4611846565b6000918252602080832060029283020160019081015473ffffffffffffffffffffffffffffffffffffffff1685529084019490945260409092019020805460ff191693151593909317909255905490820110156111eb5760028054600019810190811061116357611163611846565b90600052602060002090600202016002828154811061118457611184611846565b600091825260209091206002909102018061119f8382611e0e565b50600191820154910180547fffffffffffffffffffffffff00000000000000000000000000000000000000001673ffffffffffffffffffffffffffffffffffffffff9092169190911790555b60028054806111fc576111fc611ee9565b6000828152602081206000199092019160028302019061121c828261124b565b5060010180547fffffffffffffffffffffffff0000000000000000000000000000000000000000169055905550565b508054611257906116e4565b6000825580601f10611267575050565b601f0160209004906000526020600020908101906112859190611288565b50565b5b8082111561129d5760008155600101611289565b5090565b803573ffffffffffffffffffffffffffffffffffffffff811681146112c557600080fd5b919050565b60008083601f8401126112dc57600080fd5b50813567ffffffffffffffff8111156112f457600080fd5b602083019150836020828501011115610d1457600080fd5b60008060006040848603121561132157600080fd5b61132a846112a1565b9250602084013567ffffffffffffffff81111561134657600080fd5b611352868287016112ca565b9497909650939450505050565b6000806000806060858703121561137557600080fd5b84359350611385602086016112a1565b9250604085013567ffffffffffffffff8111156113a157600080fd5b6113ad878288016112ca565b95989497509550505050565b7f4e487b7100000000000000000000000000000000000000000000000000000000600052604160045260246000fd5b600067ffffffffffffffff80841115611403576114036113b9565b604051601f8501601f19908116603f0116810190828211818310171561142b5761142b6113b9565b8160405280935085815286868601111561144457600080fd5b858560208301376000602087830101525050509392505050565b60006020828403121561147057600080fd5b813567ffffffffffffffff81111561148757600080fd5b8201601f8101841361149857600080fd5b6114a7848235602084016113e8565b949350505050565b60005b838110156114ca5781810151838201526020016114b2565b50506000910152565b600081518084526114eb8160208601602086016114af565b601f01601f19169290920160200192915050565b600081518084526020808501808196508360051b8101915082860160005b858110156115475782840389526115358483516114d3565b9885019893509084019060010161151d565b5091979650505050505050565b60208152600061156760208301846114ff565b9392505050565b60006020828403121561158057600080fd5b5035919050565b60408152600061159a60408301856114d3565b905073ffffffffffffffffffffffffffffffffffffffff831660208301529392505050565b6000806000604084860312156115d457600080fd5b83359250602084013567ffffffffffffffff81111561134657600080fd5b6000806020838503121561160557600080fd5b823567ffffffffffffffff81111561161c57600080fd5b611628858286016112ca565b90969095509350505050565b60408152600061164760408301856114d3565b90508260208301529392505050565b60006020828403121561166857600080fd5b611567826112a1565b6000806000806040858703121561168757600080fd5b843567ffffffffffffffff8082111561169f57600080fd5b6116ab888389016112ca565b909650945060208701359150808211156116c457600080fd5b506113ad878288016112ca565b60208152600061156760208301846114d3565b600181811c908216806116f857607f821691505b602082108103611731577f4e487b7100000000000000000000000000000000000000000000000000000000600052602260045260246000fd5b50919050565b601f82111561178157600081815260208120601f850160051c8101602086101561175e5750805b601f850160051c820191505b8181101561177d5782815560010161176a565b5050505b505050565b815167ffffffffffffffff8111156117a0576117a06113b9565b6117b4816117ae84546116e4565b84611737565b602080601f8311600181146117e957600084156117d15750858301515b600019600386901b1c1916600185901b17855561177d565b600085815260208120601f198616915b82811015611818578886015182559484019460019091019084016117f9565b50858210156118365787850151600019600388901b60f8161c191681555b5050505050600190811b01905550565b7f4e487b7100000000000000000000000000000000000000000000000000000000600052603260045260246000fd5b7f4e487b7100000000000000000000000000000000000000000000000000000000600052601260045260246000fd5b7f4e487b7100000000000000000000000000000000000000000000000000000000600052601160045260246000fd5b6000826118e2576118e2611875565b500490565b808201808211156118fa576118fa6118a4565b92915050565b818103818111156118fa576118fa6118a4565b600081516119258185602086016114af565b9290920192915050565b848152600084516119478160208501602089016114af565b80830190507fffffffffffffffffffffffffffffffffffffffff0000000000000000000000008560601b1660208201528360348201526054810191505095945050505050565b60008261199c5761199c611875565b500690565b7f68747470733a2f2f000000000000000000000000000000000000000000000000815260006008600085546119d5816116e4565b600182811680156119ed5760018114611a0657611a39565b60ff198416868901528583151584028901019450611a39565b8960005260208060002060005b85811015611a2e5781548b82018a0152908401908201611a13565b505050858389010194505b507f2f000000000000000000000000000000000000000000000000000000000000008452611a6981850189611913565b945050505050611a98817f2f7b646174617d000000000000000000000000000000000000000000000000009052565b600701949350505050565b60006000198203611ab657611ab66118a4565b5060010190565b60008085851115611acd57600080fd5b83861115611ada57600080fd5b5050820193919092039150565b803560208310156118fa57600019602084900360031b1b1692915050565b7fff000000000000000000000000000000000000000000000000000000000000008135818116916001851015611b455780818660010360031b1b83161692505b505092915050565b600081611b5c57611b5c6118a4565b506000190190565b60008351611b768184602088016114af565b7f2e000000000000000000000000000000000000000000000000000000000000009083019081528351611bb08160018401602088016114af565b01600101949350505050565b8385823760008482018481528351611bdb8160208401602088016114af565b016020019695505050505050565b73ffffffffffffffffffffffffffffffffffffffff8616815260a060208201526000611c1860a08301876114ff565b8281036040840152611c2a81876114d3565b90507fffffffff00000000000000000000000000000000000000000000000000000000851660608401528281036080840152610a0281856114d3565b600080600060608486031215611c7b57600080fd5b505081359360208301359350604090920135919050565b600082601f830112611ca357600080fd5b611567838335602085016113e8565b600080600060608486031215611cc757600080fd5b833567ffffffffffffffff8082168214611ce057600080fd5b90935060208501359080821115611cf657600080fd5b611d0287838801611c92565b93506040860135915080821115611d1857600080fd5b50611d2586828701611c92565b9150509250925092565b7f190000000000000000000000000000000000000000000000000000000000000081527fffffffffffffffffffffffffffffffffffffffff0000000000000000000000008560601b1660028201527fffffffffffffffff0000000000000000000000000000000000000000000000008460c01b16601682015282601e82015260008251611dc381603e8501602087016114af565b91909101603e0195945050505050565b8281526040602082015260006114a760408301846114d3565b600060208284031215611dfe57600080fd5b8151801515811461156757600080fd5b818103611e19575050565b611e2382546116e4565b67ffffffffffffffff811115611e3b57611e3b6113b9565b611e49816117ae84546116e4565b6000601f821160018114611e7d5760008315611e655750848201545b600019600385901b1c1916600184901b178455611ee2565b600085815260209020601f19841690600086815260209020845b83811015611eb75782860154825560019586019590910190602001611e97565b5085831015611ed55781850154600019600388901b60f8161c191681555b50505060018360011b0184555b5050505050565b7f4e487b7100000000000000000000000000000000000000000000000000000000600052603160045260246000fdfea2646970667358221220fe3106b71f6c31f1136dbe3057d587f49aee7508cebe51eea26194a10ece4f7764736f6c63430008100033",
    "linkReferences": {}
  },
  "methodIdentifiers": {
    "DNSDecode(bytes)": "6d6aeb10",
    "Dev()": "01e51ae8",
    "ENS()": "1d2e2cc4",
    "Gateways(uint256)": "356a277a",
    "__callback(bytes,bytes)": "c55a5d59",
    "addGateway(address,string)": "0a24bf33",
    "isSigner(address)": "7df73e27",
    "isValid(bytes32,bytes)": "4f309cb8",
    "randomGateways(string)": "1bebc101",
    "removeGateway(uint256)": "e5dac703",
    "replaceGateway(uint256,address,string)": "0eb0a9e8",
    "resolve(bytes,bytes)": "9061b923"
  },
  "id": 18
}