{
  "abi": [
    {
      "inputs": [],
      "stateMutability": "nonpayable",
      "type": "constructor"
    },
    {
      "inputs": [],
      "name": "InvalidHash",
      "type": "error"
    },
    {
      "inputs": [],
      "name": "InvalidSignature",
      "type": "error"
    },
    {
      "inputs": [
        {
          "internalType": "address",
          "name": "sender",
          "type": "address"
        },
        {
          "internalType": "string[]",
          "name": "urls",
          "type": "string[]"
        },
        {
          "internalType": "bytes",
          "name": "callData",
          "type": "bytes"
        },
        {
          "internalType": "bytes4",
          "name": "callbackFunction",
          "type": "bytes4"
        },
        {
          "internalType": "bytes",
          "name": "extraData",
          "type": "bytes"
        }
      ],
      "name": "OffchainLookup",
      "type": "error"
    },
    {
      "inputs": [],
      "name": "RequestError",
      "type": "error"
    },
    {
      "inputs": [],
      "name": "SignatureExpired",
      "type": "error"
    },
    {
      "inputs": [
        {
          "internalType": "bytes",
          "name": "encoded",
          "type": "bytes"
        }
      ],
      "name": "DNSDecode",
      "outputs": [
        {
          "internalType": "string",
          "name": "mainnet",
          "type": "string"
        },
        {
          "internalType": "bytes32",
          "name": "namehash",
          "type": "bytes32"
        }
      ],
      "stateMutability": "pure",
      "type": "function"
    },
    {
      "inputs": [],
      "name": "Dev",
      "outputs": [
        {
          "internalType": "address",
          "name": "",
          "type": "address"
        }
      ],
      "stateMutability": "view",
      "type": "function"
    },
    {
      "inputs": [
        {
          "internalType": "uint256",
          "name": "",
          "type": "uint256"
        }
      ],
      "name": "Gateways",
      "outputs": [
        {
          "internalType": "string",
          "name": "domain",
          "type": "string"
        },
        {
          "internalType": "address",
          "name": "operator",
          "type": "address"
        }
      ],
      "stateMutability": "view",
      "type": "function"
    },
    {
      "inputs": [
        {
          "internalType": "bytes",
          "name": "response",
          "type": "bytes"
        },
        {
          "internalType": "bytes",
          "name": "extraData",
          "type": "bytes"
        }
      ],
      "name": "__callback",
      "outputs": [
        {
          "internalType": "bytes",
          "name": "",
          "type": "bytes"
        }
      ],
      "stateMutability": "view",
      "type": "function"
    },
    {
      "inputs": [
        {
          "internalType": "address",
          "name": "operator",
          "type": "address"
        },
        {
          "internalType": "string",
          "name": "domain",
          "type": "string"
        }
      ],
      "name": "addGateway",
      "outputs": [],
      "stateMutability": "nonpayable",
      "type": "function"
    },
    {
      "inputs": [
        {
          "internalType": "address",
          "name": "",
          "type": "address"
        }
      ],
      "name": "isSigner",
      "outputs": [
        {
          "internalType": "bool",
          "name": "",
          "type": "bool"
        }
      ],
      "stateMutability": "view",
      "type": "function"
    },
    {
      "inputs": [
        {
          "internalType": "bytes32",
          "name": "hash",
          "type": "bytes32"
        },
        {
          "internalType": "bytes",
          "name": "signature",
          "type": "bytes"
        }
      ],
      "name": "isValid",
      "outputs": [
        {
          "internalType": "bool",
          "name": "",
          "type": "bool"
        }
      ],
      "stateMutability": "view",
      "type": "function"
    },
    {
      "inputs": [
        {
          "internalType": "string",
          "name": "mainnet",
          "type": "string"
        }
      ],
      "name": "randomGateways",
      "outputs": [
        {
          "internalType": "string[]",
          "name": "urls",
          "type": "string[]"
        }
      ],
      "stateMutability": "view",
      "type": "function"
    },
    {
      "inputs": [
        {
          "internalType": "uint256",
          "name": "_index",
          "type": "uint256"
        }
      ],
      "name": "removeGateway",
      "outputs": [],
      "stateMutability": "nonpayable",
      "type": "function"
    },
    {
      "inputs": [
        {
          "internalType": "uint256",
          "name": "_index",
          "type": "uint256"
        },
        {
          "internalType": "address",
          "name": "operator",
          "type": "address"
        },
        {
          "internalType": "string",
          "name": "domain",
          "type": "string"
        }
      ],
      "name": "replaceGateway",
      "outputs": [],
      "stateMutability": "nonpayable",
      "type": "function"
    },
    {
      "inputs": [
        {
          "internalType": "bytes",
          "name": "encoded",
          "type": "bytes"
        },
        {
          "internalType": "bytes",
          "name": "data",
          "type": "bytes"
        }
      ],
      "name": "resolve",
      "outputs": [
        {
          "internalType": "bytes",
          "name": "",
          "type": "bytes"
        }
      ],
      "stateMutability": "view",
      "type": "function"
    }
  ],
  "bytecode": {
    "object": "0x60806040523480156200001157600080fd5b506040805160808101825260129181019182527133b7b2b93634973730b6b2b9bcb9973c3cbd60711b606082015290815273a0896ab9606ea2cf884549030ddc960a11b1e6306020820152600180548082018255600091909152815160029091027fb10e2d527612073b26eecdfd717e6a320cf44b4afac2b0732d9fcbe2b7fa0cf601908190620000a39082620001c0565b50602091820151600191820180546001600160a01b0319166001600160a01b0390921691909117905573a0896ab9606ea2cf884549030ddc960a11b1e63060005260029091527fd911a62900d26b9db22a12184638a1151b578cd0258104c3def743da6ba8ee5d805460ff191690911790556200028c565b634e487b7160e01b600052604160045260246000fd5b600181811c908216806200014657607f821691505b6020821081036200016757634e487b7160e01b600052602260045260246000fd5b50919050565b601f821115620001bb57600081815260208120601f850160051c81016020861015620001965750805b601f850160051c820191505b81811015620001b757828155600101620001a2565b5050505b505050565b81516001600160401b03811115620001dc57620001dc6200011b565b620001f481620001ed845462000131565b846200016d565b602080601f8311600181146200022c5760008415620002135750858301515b600019600386901b1c1916600185901b178555620001b7565b600085815260208120601f198616915b828110156200025d578886015182559484019460019091019084016200023c565b50858210156200027c5787850151600019600388901b60f8161c191681555b5050505050600190811b01905550565b611f25806200029c6000396000f3fe608060405234801561001057600080fd5b50600436106100c95760003560e01c80634f309cb8116100815780639061b9231161005b5780639061b923146101e8578063c55a5d5914610208578063e5dac7031461021b57600080fd5b80634f309cb8146101815780636d6aeb10146101a45780637df73e27146101c557600080fd5b80630eb0a9e8116100b25780630eb0a9e81461012d5780631bebc10114610140578063356a277a1461016057600080fd5b806301e51ae8146100ce5780630a24bf3314610118575b600080fd5b6000546100ee9073ffffffffffffffffffffffffffffffffffffffff1681565b60405173ffffffffffffffffffffffffffffffffffffffff90911681526020015b60405180910390f35b61012b6101263660046112e0565b61022e565b005b61012b61013b366004611333565b6103d0565b61015361014e366004611432565b6105e3565b60405161010f919061152b565b61017361016e366004611545565b610731565b60405161010f92919061155e565b61019461018f366004611596565b610803565b604051901515815260200161010f565b6101b76101b23660046115c9565b6109e2565b60405161010f92919061160b565b6101946101d336600461162d565b60026020526000908152604090205460ff1681565b6101fb6101f6366004611648565b610cef565b60405161010f91906116a8565b6101fb610216366004611648565b610e7e565b61012b610229366004611545565b61108b565b60005473ffffffffffffffffffffffffffffffffffffffff16331461025257600080fd5b73ffffffffffffffffffffffffffffffffffffffff831660009081526002602052604090205460ff16156102e7576040517f08c379a000000000000000000000000000000000000000000000000000000000815260206004820152600f60248201527f4f50455241544f525f455849535453000000000000000000000000000000000060448201526064015b60405180910390fd5b6040805160606020601f8501819004028201810183529181018381526001928291908690869081908501838280828437600092018290525093855250505073ffffffffffffffffffffffffffffffffffffffff87166020928301528354600181018555938152208151919260020201908190610363908261175d565b50602091820151600191820180547fffffffffffffffffffffffff00000000000000000000000000000000000000001673ffffffffffffffffffffffffffffffffffffffff928316179055949094166000908152600290915260409020805460ff19169093179092555050565b60005473ffffffffffffffffffffffffffffffffffffffff1633146103f457600080fd5b73ffffffffffffffffffffffffffffffffffffffff831660009081526002602052604090205460ff1615610484576040517f08c379a000000000000000000000000000000000000000000000000000000000815260206004820152601260248201527f4475706c69636174655f4f70657261746f72000000000000000000000000000060448201526064016102de565b6000600260006001878154811061049d5761049d61181d565b600091825260208083206001600290930201919091015473ffffffffffffffffffffffffffffffffffffffff1683528281019390935260409182019020805493151560ff199094169390931790925581516060601f85018390049092028101820183529182018381528291859085908190850183828082843760009201919091525050509082525073ffffffffffffffffffffffffffffffffffffffff851660209091015260018054869081106105565761055661181d565b600091825260209091208251600290920201908190610575908261175d565b50602091820151600191820180547fffffffffffffffffffffffff00000000000000000000000000000000000000001673ffffffffffffffffffffffffffffffffffffffff928316179055949094166000908152600290915260409020805460ff1916909317909255505050565b60015460609060006105f66002836118aa565b6106019060016118be565b90506005811115610610575060055b8067ffffffffffffffff8111156106295761062961138d565b60405190808252806020026020018201604052801561065c57816020015b60608152602001906001900390816106475790505b5092504260005b82811015610728578382873361067a6001436118d7565b4060405160200161068e9493929190611906565b6040516020818303038152906040528051906020012060001c6106b19190611964565b9150600182815481106106c6576106c661181d565b9060005260206000209060020201600001866040516020016106e9929190611978565b60405160208183030381529060405285828151811061070a5761070a61181d565b6020026020010181905250808061072090611a7a565b915050610663565b50505050919050565b6001818154811061074157600080fd5b9060005260206000209060020201600091509050806000018054610764906116bb565b80601f0160208091040260200160405190810160405280929190818152602001828054610790906116bb565b80156107dd5780601f106107b2576101008083540402835291602001916107dd565b820191906000526020600020905b8154815290600101906020018083116107c057829003601f168201915b5050506001909301549192505073ffffffffffffffffffffffffffffffffffffffff1682565b600080808060408511156108665761081f602060008789611a94565b61082891611abe565b92506108378560208189611a94565b61084091611abe565b9150858560408181106108555761085561181d565b919091013560f81c91506108d19050565b610874602060008789611a94565b61087d91611abe565b9250600061088e866020818a611a94565b61089791611abe565b7f7fffffffffffffffffffffffffffffffffffffffffffffffffffffffffffffff8116935090506108cd60ff82901c601b6118be565b9150505b7f7fffffffffffffffffffffffffffffff5d576e7357a4501ddfe92f46681b20a082111561092b576040517f8baa579f00000000000000000000000000000000000000000000000000000000815260040160405180910390fd5b604080516000808252602082018084528a905260ff841692820192909252606081018590526080810184905260019060a0016020604051602081039080840390855afa15801561097f573d6000803e3d6000fd5b5050604051601f19015191505073ffffffffffffffffffffffffffffffffffffffff8116158015906109d6575073ffffffffffffffffffffffffffffffffffffffff811660009081526002602052604090205460ff165b98975050505050505050565b60408051600c8082526101a08201909252606091600091829182918291816020015b6060815260200190600190039081610a0457905050905060005b6000888883818110610a3257610a3261181d565b9050013560f81c60f81b7effffffffffffffffffffffffffffffffffffffffffffffffffffffffffffff19161115610b0f57878188610a7082611a7a565b9350610a7f9284929190611a94565b610a8891611adc565b60f81c9250878188610a9a86836118be565b9350610aa99284929190611a94565b8080601f0160208091040260200160405190810160405280939291908181526020018383808284376000920191909152505084518592508791508110610af157610af161181d565b60200260200101819052508380610b0790611a7a565b945050610a1e565b5080610b1a84611b24565b93508381518110610b2d57610b2d61181d565b602002602001015194506000801b818480610b4790611b24565b955081518110610b5957610b5961181d565b602002602001015180519060200120604051602001610b82929190918252602082015260400190565b60405160208183030381529060405280519060200120935082600003610c3d5780600081518110610bb557610bb561181d565b602002602001015185604051602001610bcf929190611b3b565b6040516020818303038152906040528482600081518110610bf257610bf261181d565b602002602001015180519060200120604051602001610c1b929190918252602082015260400190565b6040516020818303038152906040528051906020012094509450505050610ce8565b8215610ce45780610c4d84611b24565b93508381518110610c6057610c6061181d565b602002602001015185604051602001610c7a929190611b3b565b604051602081830303815290604052945083818481518110610c9e57610c9e61181d565b602002602001015180519060200120604051602001610cc7929190918252602082015260400190565b604051602081830303815290604052805190602001209350610c3d565b5050505b9250929050565b6060600080610cfe87876109e2565b9150915030610d0c836105e3565b610d1a60046000888a611a94565b8460248911610d385760405180602001604052806000815250610d7a565b610d45896024818d611a94565b8080601f0160208091040260200160405190810160405280939291908181526020018383808284376000920191909152505050505b604051602001610d8d9493929190611b93565b60408051601f198184030181529190527fc55a5d59000000000000000000000000000000000000000000000000000000004385610dcb6001836118d7565b6040805191406020830152810188905233606090811b7fffffffffffffffffffffffffffffffffffffffff000000000000000000000000169082015260740160408051601f19818403018152828252805160209182012090830194909452810191909152606081019190915260800160408051601f19818403018152908290527f556f18300000000000000000000000000000000000000000000000000000000082526102de9594939291600401611bc0565b606060008080610e9085870187611c3d565b91945092509050610ea28360036118be565b431180610f0e5750610eb56001846118d7565b6040805191406020830152810183905233606090811b7fffffffffffffffffffffffffffffffffffffffff0000000000000000000000001690820152607401604051602081830303815290604052805190602001208114155b15610f45576040517f0af806e000000000000000000000000000000000000000000000000000000000815260040160405180910390fd5b60008080610f558a8c018c611c89565b9250925092508267ffffffffffffffff16421115610f9f576040517f0819bdcd00000000000000000000000000000000000000000000000000000000815260040160405180910390fd5b3073ffffffffffffffffffffffffffffffffffffffff16634f309cb830858885604051602001610fd29493929190611d06565b60405160208183030381529060405280519060200120846040518363ffffffff1660e01b8152600401611006929190611daa565b602060405180830381865afa158015611023573d6000803e3d6000fd5b505050506040513d601f19601f820116820180604052508101906110479190611dc3565b61107d576040517f8baa579f00000000000000000000000000000000000000000000000000000000815260040160405180910390fd5b9a9950505050505050505050565b60005473ffffffffffffffffffffffffffffffffffffffff1633146110af57600080fd5b600060026000600184815481106110c8576110c861181d565b60009182526020808320600160029093020182015473ffffffffffffffffffffffffffffffffffffffff16845283019390935260409091019020805492151560ff1990931692909217909155805490820110156111bf576001805460001981019081106111375761113761181d565b9060005260206000209060020201600182815481106111585761115861181d565b60009182526020909120600290910201806111738382611de5565b50600191820154910180547fffffffffffffffffffffffff00000000000000000000000000000000000000001673ffffffffffffffffffffffffffffffffffffffff9092169190911790555b60018054806111d0576111d0611ec0565b600082815260208120600019909201916002830201906111f0828261121f565b5060010180547fffffffffffffffffffffffff0000000000000000000000000000000000000000169055905550565b50805461122b906116bb565b6000825580601f1061123b575050565b601f016020900490600052602060002090810190611259919061125c565b50565b5b80821115611271576000815560010161125d565b5090565b803573ffffffffffffffffffffffffffffffffffffffff8116811461129957600080fd5b919050565b60008083601f8401126112b057600080fd5b50813567ffffffffffffffff8111156112c857600080fd5b602083019150836020828501011115610ce857600080fd5b6000806000604084860312156112f557600080fd5b6112fe84611275565b9250602084013567ffffffffffffffff81111561131a57600080fd5b6113268682870161129e565b9497909650939450505050565b6000806000806060858703121561134957600080fd5b8435935061135960208601611275565b9250604085013567ffffffffffffffff81111561137557600080fd5b6113818782880161129e565b95989497509550505050565b7f4e487b7100000000000000000000000000000000000000000000000000000000600052604160045260246000fd5b600067ffffffffffffffff808411156113d7576113d761138d565b604051601f8501601f19908116603f011681019082821181831017156113ff576113ff61138d565b8160405280935085815286868601111561141857600080fd5b858560208301376000602087830101525050509392505050565b60006020828403121561144457600080fd5b813567ffffffffffffffff81111561145b57600080fd5b8201601f8101841361146c57600080fd5b61147b848235602084016113bc565b949350505050565b60005b8381101561149e578181015183820152602001611486565b50506000910152565b600081518084526114bf816020860160208601611483565b601f01601f19169290920160200192915050565b600082825180855260208086019550808260051b84010181860160005b8481101561151e57601f1986840301895261150c8383516114a7565b988401989250908301906001016114f0565b5090979650505050505050565b60208152600061153e60208301846114d3565b9392505050565b60006020828403121561155757600080fd5b5035919050565b60408152600061157160408301856114a7565b905073ffffffffffffffffffffffffffffffffffffffff831660208301529392505050565b6000806000604084860312156115ab57600080fd5b83359250602084013567ffffffffffffffff81111561131a57600080fd5b600080602083850312156115dc57600080fd5b823567ffffffffffffffff8111156115f357600080fd5b6115ff8582860161129e565b90969095509350505050565b60408152600061161e60408301856114a7565b90508260208301529392505050565b60006020828403121561163f57600080fd5b61153e82611275565b6000806000806040858703121561165e57600080fd5b843567ffffffffffffffff8082111561167657600080fd5b6116828883890161129e565b9096509450602087013591508082111561169b57600080fd5b506113818782880161129e565b60208152600061153e60208301846114a7565b600181811c908216806116cf57607f821691505b602082108103611708577f4e487b7100000000000000000000000000000000000000000000000000000000600052602260045260246000fd5b50919050565b601f82111561175857600081815260208120601f850160051c810160208610156117355750805b601f850160051c820191505b8181101561175457828155600101611741565b5050505b505050565b815167ffffffffffffffff8111156117775761177761138d565b61178b8161178584546116bb565b8461170e565b602080601f8311600181146117c057600084156117a85750858301515b600019600386901b1c1916600185901b178555611754565b600085815260208120601f198616915b828110156117ef578886015182559484019460019091019084016117d0565b508582101561180d5787850151600019600388901b60f8161c191681555b5050505050600190811b01905550565b7f4e487b7100000000000000000000000000000000000000000000000000000000600052603260045260246000fd5b7f4e487b7100000000000000000000000000000000000000000000000000000000600052601260045260246000fd5b7f4e487b7100000000000000000000000000000000000000000000000000000000600052601160045260246000fd5b6000826118b9576118b961184c565b500490565b808201808211156118d1576118d161187b565b92915050565b818103818111156118d1576118d161187b565b600081516118fc818560208601611483565b9290920192915050565b8481526000845161191e816020850160208901611483565b80830190507fffffffffffffffffffffffffffffffffffffffff0000000000000000000000008560601b1660208201528360348201526054810191505095945050505050565b6000826119735761197361184c565b500690565b7f68747470733a2f2f000000000000000000000000000000000000000000000000815260006008600085546119ac816116bb565b600182811680156119c457600181146119dd57611a10565b60ff198416868901528583151584028901019450611a10565b8960005260208060002060005b85811015611a055781548b82018a01529084019082016119ea565b505050858389010194505b507f2f000000000000000000000000000000000000000000000000000000000000008452611a40818501896118ea565b945050505050611a6f817f2f7b646174617d000000000000000000000000000000000000000000000000009052565b600701949350505050565b60006000198203611a8d57611a8d61187b565b5060010190565b60008085851115611aa457600080fd5b83861115611ab157600080fd5b5050820193919092039150565b803560208310156118d157600019602084900360031b1b1692915050565b7fff000000000000000000000000000000000000000000000000000000000000008135818116916001851015611b1c5780818660010360031b1b83161692505b505092915050565b600081611b3357611b3361187b565b506000190190565b60008351611b4d818460208801611483565b7f2e000000000000000000000000000000000000000000000000000000000000009083019081528351611b87816001840160208801611483565b01600101949350505050565b8385823760008482018481528351611bb2816020840160208801611483565b016020019695505050505050565b73ffffffffffffffffffffffffffffffffffffffff8616815260a060208201526000611bef60a08301876114d3565b8281036040840152611c0181876114a7565b90507fffffffff000000000000000000000000000000000000000000000000000000008516606084015282810360808401526109d681856114a7565b600080600060608486031215611c5257600080fd5b505081359360208301359350604090920135919050565b600082601f830112611c7a57600080fd5b61153e838335602085016113bc565b600080600060608486031215611c9e57600080fd5b833567ffffffffffffffff8082168214611cb757600080fd5b90935060208501359080821115611ccd57600080fd5b611cd987838801611c69565b93506040860135915080821115611cef57600080fd5b50611cfc86828701611c69565b9150509250925092565b7f190000000000000000000000000000000000000000000000000000000000000081527fffffffffffffffffffffffffffffffffffffffff0000000000000000000000008560601b1660028201527fffffffffffffffff0000000000000000000000000000000000000000000000008460c01b16601682015282601e82015260008251611d9a81603e850160208701611483565b91909101603e0195945050505050565b82815260406020820152600061147b60408301846114a7565b600060208284031215611dd557600080fd5b8151801515811461153e57600080fd5b818103611df0575050565b611dfa82546116bb565b67ffffffffffffffff811115611e1257611e1261138d565b611e208161178584546116bb565b6000601f821160018114611e545760008315611e3c5750848201545b600019600385901b1c1916600184901b178455611eb9565b600085815260209020601f19841690600086815260209020845b83811015611e8e5782860154825560019586019590910190602001611e6e565b5085831015611eac5781850154600019600388901b60f8161c191681555b50505060018360011b0184555b5050505050565b7f4e487b7100000000000000000000000000000000000000000000000000000000600052603160045260246000fdfea2646970667358221220ed86e161c178f07545b10eb2d6336d61c6688b0b79be0639f1f803b9f477b55b64736f6c63430008100033",
    "linkReferences": {}
  },
  "methodIdentifiers": {
    "DNSDecode(bytes)": "6d6aeb10",
    "Dev()": "01e51ae8",
    "Gateways(uint256)": "356a277a",
    "__callback(bytes,bytes)": "c55a5d59",
    "addGateway(address,string)": "0a24bf33",
    "isSigner(address)": "7df73e27",
    "isValid(bytes32,bytes)": "4f309cb8",
    "randomGateways(string)": "1bebc101",
    "removeGateway(uint256)": "e5dac703",
    "replaceGateway(uint256,address,string)": "0eb0a9e8",
    "resolve(bytes,bytes)": "9061b923"
  },
  "id": 17
}