{
  "abi": [
    {
      "inputs": [],
      "stateMutability": "nonpayable",
      "type": "constructor"
    },
    {
      "inputs": [],
      "name": "BadSignature",
      "type": "error"
    },
    {
      "inputs": [],
      "name": "InvalidHash",
      "type": "error"
    },
    {
      "inputs": [],
      "name": "InvalidResponse",
      "type": "error"
    },
    {
      "inputs": [],
      "name": "InvalidSignature",
      "type": "error"
    },
    {
      "inputs": [
        {
          "internalType": "address",
          "name": "sender",
          "type": "address"
        },
        {
          "internalType": "string[]",
          "name": "urls",
          "type": "string[]"
        },
        {
          "internalType": "bytes",
          "name": "callData",
          "type": "bytes"
        },
        {
          "internalType": "bytes4",
          "name": "callbackFunction",
          "type": "bytes4"
        },
        {
          "internalType": "bytes",
          "name": "extraData",
          "type": "bytes"
        }
      ],
      "name": "OffchainLookup",
      "type": "error"
    },
    {
      "inputs": [],
      "name": "RequestError",
      "type": "error"
    },
    {
      "inputs": [],
      "name": "SignatureExpired",
      "type": "error"
    },
    {
      "anonymous": false,
      "inputs": [
        {
          "indexed": true,
          "internalType": "address",
          "name": "previousOwner",
          "type": "address"
        },
        {
          "indexed": true,
          "internalType": "address",
          "name": "newOwner",
          "type": "address"
        }
      ],
      "name": "OwnershipTransferred",
      "type": "event"
    },
    {
      "inputs": [
        {
          "internalType": "bytes",
          "name": "encoded",
          "type": "bytes"
        }
      ],
      "name": "DNSDecode",
      "outputs": [
        {
          "internalType": "string",
          "name": "_name",
          "type": "string"
        },
        {
          "internalType": "bytes32",
          "name": "namehash",
          "type": "bytes32"
        }
      ],
      "stateMutability": "pure",
      "type": "function"
    },
    {
      "inputs": [],
      "name": "Dev",
      "outputs": [
        {
          "internalType": "address",
          "name": "",
          "type": "address"
        }
      ],
      "stateMutability": "view",
      "type": "function"
    },
    {
      "inputs": [
        {
          "internalType": "uint256",
          "name": "",
          "type": "uint256"
        }
      ],
      "name": "Gateways",
      "outputs": [
        {
          "internalType": "string",
          "name": "domain",
          "type": "string"
        },
        {
          "internalType": "address",
          "name": "operator",
          "type": "address"
        }
      ],
      "stateMutability": "view",
      "type": "function"
    },
    {
      "inputs": [
        {
          "internalType": "bytes",
          "name": "response",
          "type": "bytes"
        },
        {
          "internalType": "bytes",
          "name": "extraData",
          "type": "bytes"
        }
      ],
      "name": "__callback",
      "outputs": [
        {
          "internalType": "bytes",
          "name": "",
          "type": "bytes"
        }
      ],
      "stateMutability": "view",
      "type": "function"
    },
    {
      "inputs": [
        {
          "internalType": "address",
          "name": "operator",
          "type": "address"
        },
        {
          "internalType": "string",
          "name": "domain",
          "type": "string"
        }
      ],
      "name": "addGateway",
      "outputs": [],
      "stateMutability": "nonpayable",
      "type": "function"
    },
    {
      "inputs": [],
      "name": "chainID",
      "outputs": [
        {
          "internalType": "string",
          "name": "",
          "type": "string"
        }
      ],
      "stateMutability": "view",
      "type": "function"
    },
    {
      "inputs": [
        {
          "internalType": "address",
          "name": "newDev",
          "type": "address"
        }
      ],
      "name": "changeDev",
      "outputs": [],
      "stateMutability": "nonpayable",
      "type": "function"
    },
    {
      "inputs": [
        {
          "internalType": "address",
          "name": "",
          "type": "address"
        }
      ],
      "name": "isSigner",
      "outputs": [
        {
          "internalType": "bool",
          "name": "",
          "type": "bool"
        }
      ],
      "stateMutability": "view",
      "type": "function"
    },
    {
      "inputs": [
        {
          "internalType": "bytes32",
          "name": "digesthash",
          "type": "bytes32"
        },
        {
          "internalType": "bytes",
          "name": "signature",
          "type": "bytes"
        }
      ],
      "name": "isValid",
      "outputs": [
        {
          "internalType": "bool",
          "name": "",
          "type": "bool"
        }
      ],
      "stateMutability": "view",
      "type": "function"
    },
    {
      "inputs": [
        {
          "internalType": "string",
          "name": "_name",
          "type": "string"
        }
      ],
      "name": "randomGateways",
      "outputs": [
        {
          "internalType": "string[]",
          "name": "urls",
          "type": "string[]"
        }
      ],
      "stateMutability": "view",
      "type": "function"
    },
    {
      "inputs": [
        {
          "internalType": "uint256",
          "name": "_index",
          "type": "uint256"
        }
      ],
      "name": "removeGateway",
      "outputs": [],
      "stateMutability": "nonpayable",
      "type": "function"
    },
    {
      "inputs": [
        {
          "internalType": "uint256",
          "name": "_index",
          "type": "uint256"
        },
        {
          "internalType": "address",
          "name": "operator",
          "type": "address"
        },
        {
          "internalType": "string",
          "name": "domain",
          "type": "string"
        }
      ],
      "name": "replaceGateway",
      "outputs": [],
      "stateMutability": "nonpayable",
      "type": "function"
    },
    {
      "inputs": [
        {
          "internalType": "bytes",
          "name": "encoded",
          "type": "bytes"
        },
        {
          "internalType": "bytes",
          "name": "data",
          "type": "bytes"
        }
      ],
      "name": "resolve",
      "outputs": [
        {
          "internalType": "bytes",
          "name": "",
          "type": "bytes"
        }
      ],
      "stateMutability": "view",
      "type": "function"
    },
    {
      "inputs": [
        {
          "internalType": "bytes4",
          "name": "sig",
          "type": "bytes4"
        }
      ],
      "name": "supportsInterface",
      "outputs": [
        {
          "internalType": "bool",
          "name": "",
          "type": "bool"
        }
      ],
      "stateMutability": "pure",
      "type": "function"
    }
  ],
  "bytecode": {
    "object": "0x60c060405260016080818152603160f81b60a0526200001f9082620001f6565b503480156200002d57600080fd5b50600080546001600160a01b031916331781556040805160808101825260139181019182527f7373686d61747269782e636c75623a3330303200000000000000000000000000606082015290815273a610e343ba79d93b39421fd6bf29067e1ac1aa666020820152600280546001810182559281905281519192027f405787fa12a823e0f2b7631cc41b3ba8828b3321ca811111fa75cd3aa3bb5ace01908190620000d99082620001f6565b50602091820151600191820180546001600160a01b0319166001600160a01b0390921691909117905573a610e343ba79d93b39421fd6bf29067e1ac1aa6660005260039091527f371b2a70d28d03f373e61ab2d46288befcc7612b7721ae6bd393a2e4efd289e9805460ff19169091179055620002c2565b634e487b7160e01b600052604160045260246000fd5b600181811c908216806200017c57607f821691505b6020821081036200019d57634e487b7160e01b600052602260045260246000fd5b50919050565b601f821115620001f157600081815260208120601f850160051c81016020861015620001cc5750805b601f850160051c820191505b81811015620001ed57828155600101620001d8565b5050505b505050565b81516001600160401b0381111562000212576200021262000151565b6200022a8162000223845462000167565b84620001a3565b602080601f831160018114620002625760008415620002495750858301515b600019600386901b1c1916600185901b178555620001ed565b600085815260208120601f198616915b82811015620002935788860151825594840194600190910190840162000272565b5085821015620002b25787850151600019600388901b60f8161c191681555b5050505050600190811b01905550565b61230180620002d26000396000f3fe608060405234801561001057600080fd5b50600436106100ea5760003560e01c80636d6aeb101161008c5780639061b923116100665780639061b9231461022f578063adc879e91461024f578063c55a5d5914610257578063e5dac7031461026a57600080fd5b80636d6aeb10146101d85780637df73e27146101f957806388a8c95c1461021c57600080fd5b80630eb0a9e8116100c85780630eb0a9e8146101715780631bebc10114610184578063356a277a146101a45780634f309cb8146101c557600080fd5b806301e51ae8146100ef57806301ffc9a7146101395780630a24bf331461015c575b600080fd5b60005461010f9073ffffffffffffffffffffffffffffffffffffffff1681565b60405173ffffffffffffffffffffffffffffffffffffffff90911681526020015b60405180910390f35b61014c61014736600461158b565b61027d565b6040519015158152602001610130565b61016f61016a36600461163f565b610316565b005b61016f61017f366004611692565b6104b8565b610197610192366004611791565b6106cb565b604051610130919061188a565b6101b76101b236600461189d565b61081d565b6040516101309291906118b6565b61014c6101d33660046118ee565b6108ef565b6101eb6101e6366004611921565b610987565b604051610130929190611963565b61014c610207366004611985565b60036020526000908152604090205460ff1681565b61016f61022a366004611985565b610c94565b61024261023d3660046119a0565b610d45565b6040516101309190611a00565b610242610ed4565b6102426102653660046119a0565b610f62565b61016f61027836600461189d565b61123b565b60007fffffffff0000000000000000000000000000000000000000000000000000000082167f9061b92300000000000000000000000000000000000000000000000000000000148061031057507fffffffff0000000000000000000000000000000000000000000000000000000082167f01ffc9a700000000000000000000000000000000000000000000000000000000145b92915050565b60005473ffffffffffffffffffffffffffffffffffffffff16331461033a57600080fd5b73ffffffffffffffffffffffffffffffffffffffff831660009081526003602052604090205460ff16156103cf576040517f08c379a000000000000000000000000000000000000000000000000000000000815260206004820152600f60248201527f4f50455241544f525f455849535453000000000000000000000000000000000060448201526064015b60405180910390fd5b6040805160606020601f8501819004028201810183529181018381526002928291908690869081908501838280828437600092018290525093855250505073ffffffffffffffffffffffffffffffffffffffff8716602092830152835460018101855593815220815191926002020190819061044b9082611ab5565b50602091820151600191820180547fffffffffffffffffffffffff00000000000000000000000000000000000000001673ffffffffffffffffffffffffffffffffffffffff928316179055949094166000908152600390915260409020805460ff19169093179092555050565b60005473ffffffffffffffffffffffffffffffffffffffff1633146104dc57600080fd5b73ffffffffffffffffffffffffffffffffffffffff831660009081526003602052604090205460ff161561056c576040517f08c379a000000000000000000000000000000000000000000000000000000000815260206004820152601260248201527f4455504c49434154455f4f50455241544f52000000000000000000000000000060448201526064016103c6565b6000600360006002878154811061058557610585611b75565b600091825260208083206001600290930201919091015473ffffffffffffffffffffffffffffffffffffffff1683528281019390935260409182019020805493151560ff199094169390931790925581516060601f85018390049092028101820183529182018381528291859085908190850183828082843760009201919091525050509082525073ffffffffffffffffffffffffffffffffffffffff8516602090910152600280548690811061063e5761063e611b75565b60009182526020909120825160029092020190819061065d9082611ab5565b50602091820151600191820180547fffffffffffffffffffffffff00000000000000000000000000000000000000001673ffffffffffffffffffffffffffffffffffffffff928316179055949094166000908152600390915260409020805460ff1916909317909255505050565b600280546060916000906106df9083611c02565b6106ea906001611c16565b905060058111156106f9575060055b8067ffffffffffffffff811115610712576107126116ec565b60405190808252806020026020018201604052801561074557816020015b60608152602001906001900390816107305790505b5092504260005b828110156108145783828733610763600143611c29565b406040516020016107779493929190611c3c565b6040516020818303038152906040528051906020012060001c61079a9190611c9a565b9150600282815481106107af576107af611b75565b90600052602060002090600202016000016001876040516020016107d593929190611d21565b6040516020818303038152906040528582815181106107f6576107f6611b75565b6020026020010181905250808061080c90611e18565b91505061074c565b50505050919050565b6002818154811061082d57600080fd5b906000526020600020906002020160009150905080600001805461085090611a13565b80601f016020809104026020016040519081016040528092919081815260200182805461087c90611a13565b80156108c95780601f1061089e576101008083540402835291602001916108c9565b820191906000526020600020905b8154815290600101906020018083116108ac57829003601f168201915b5050506001909301549192505073ffffffffffffffffffffffffffffffffffffffff1682565b6000806109328585858080601f0160208091040260200160405190810160405280939291908181526020018383808284376000920191909152506113cf92505050565b905073ffffffffffffffffffffffffffffffffffffffff81161580159061097e575073ffffffffffffffffffffffffffffffffffffffff811660009081526003602052604090205460ff165b95945050505050565b60408051600c8082526101a08201909252606091600091829182918291816020015b60608152602001906001900390816109a957905050905060005b60008888838181106109d7576109d7611b75565b9050013560f81c60f81b7effffffffffffffffffffffffffffffffffffffffffffffffffffffffffffff19161115610ab457878188610a1582611e18565b9350610a249284929190611e32565b610a2d91611e5c565b60f81c9250878188610a3f8683611c16565b9350610a4e9284929190611e32565b8080601f0160208091040260200160405190810160405280939291908181526020018383808284376000920191909152505084518592508791508110610a9657610a96611b75565b60200260200101819052508380610aac90611e18565b9450506109c3565b5080610abf84611ea4565b93508381518110610ad257610ad2611b75565b602002602001015194506000801b818480610aec90611ea4565b955081518110610afe57610afe611b75565b602002602001015180519060200120604051602001610b27929190918252602082015260400190565b60405160208183030381529060405280519060200120935082600003610be25780600081518110610b5a57610b5a611b75565b602002602001015185604051602001610b74929190611ebb565b6040516020818303038152906040528482600081518110610b9757610b97611b75565b602002602001015180519060200120604051602001610bc0929190918252602082015260400190565b6040516020818303038152906040528051906020012094509450505050610c8d565b8215610c895780610bf284611ea4565b93508381518110610c0557610c05611b75565b602002602001015185604051602001610c1f929190611ebb565b604051602081830303815290604052945083818481518110610c4357610c43611b75565b602002602001015180519060200120604051602001610c6c929190918252602082015260400190565b604051602081830303815290604052805190602001209350610be2565b5050505b9250929050565b60005473ffffffffffffffffffffffffffffffffffffffff163314610cb857600080fd5b6000805460405173ffffffffffffffffffffffffffffffffffffffff808516939216917f8be0079c531659141344cd1fd0a4f28419497f9722a3daafe3b4186f6b6457e091a3600080547fffffffffffffffffffffffff00000000000000000000000000000000000000001673ffffffffffffffffffffffffffffffffffffffff92909216919091179055565b6060600080610d548787610987565b9150915030610d62836106cb565b610d7060046000888a611e32565b8460248911610d8e5760405180602001604052806000815250610dd0565b610d9b896024818d611e32565b8080601f0160208091040260200160405190810160405280939291908181526020018383808284376000920191909152505050505b604051602001610de39493929190611f13565b60408051601f198184030181529190527fc55a5d59000000000000000000000000000000000000000000000000000000004385610e21600183611c29565b6040805191406020830152810188905233606090811b7fffffffffffffffffffffffffffffffffffffffff000000000000000000000000169082015260740160408051601f19818403018152828252805160209182012090830194909452810191909152606081019190915260800160408051601f19818403018152908290527f556f18300000000000000000000000000000000000000000000000000000000082526103c69594939291600401611f40565b60018054610ee190611a13565b80601f0160208091040260200160405190810160405280929190818152602001828054610f0d90611a13565b8015610f5a5780601f10610f2f57610100808354040283529160200191610f5a565b820191906000526020600020905b815481529060010190602001808311610f3d57829003601f168201915b505050505081565b606060008080610f7485870187611fc9565b91945092509050610f86836003611c16565b431180610ff25750610f99600184611c29565b6040805191406020830152810183905233606090811b7fffffffffffffffffffffffffffffffffffffffff0000000000000000000000001690820152607401604051602081830303815290604052805190602001208114155b15611029576040517f0af806e000000000000000000000000000000000000000000000000000000000815260040160405180910390fd5b600080806110398a8c018c612015565b9250925092506040518060400160405280600381526020017f307830000000000000000000000000000000000000000000000000000000000081525061107e90612092565b7fff00000000000000000000000000000000000000000000000000000000000000166110a982612092565b7fff000000000000000000000000000000000000000000000000000000000000001603611102576040517fc715138d00000000000000000000000000000000000000000000000000000000815260040160405180910390fd5b8267ffffffffffffffff16421115611146576040517f0819bdcd00000000000000000000000000000000000000000000000000000000815260040160405180910390fd5b60003084878460405160200161115f94939291906120e2565b60408051601f198184030181529082905280516020909101207f4f309cb800000000000000000000000000000000000000000000000000000000825291503090634f309cb8906111b59084908790600401612186565b602060405180830381865afa1580156111d2573d6000803e3d6000fd5b505050506040513d601f19601f820116820180604052508101906111f6919061219f565b61122c576040517f8baa579f00000000000000000000000000000000000000000000000000000000815260040160405180910390fd5b509a9950505050505050505050565b60005473ffffffffffffffffffffffffffffffffffffffff16331461125f57600080fd5b6000600360006002848154811061127857611278611b75565b6000918252602080832060029283020160019081015473ffffffffffffffffffffffffffffffffffffffff1685529084019490945260409092019020805460ff1916931515939093179092559054908201101561136f576002805460001981019081106112e7576112e7611b75565b90600052602060002090600202016002828154811061130857611308611b75565b600091825260209091206002909102018061132383826121c1565b50600191820154910180547fffffffffffffffffffffffff00000000000000000000000000000000000000001673ffffffffffffffffffffffffffffffffffffffff9092169190911790555b60028054806113805761138061229c565b600082815260208120600019909201916002830201906113a08282611535565b5060010180547fffffffffffffffffffffffff0000000000000000000000000000000000000000169055905550565b6000806000806113de8561144e565b6040805160008152602081018083528b905260ff8516918101919091526060810183905260808101829052929550909350915060019060a0016020604051602081039080840390855afa158015611439573d6000803e3d6000fd5b5050604051601f190151979650505050505050565b600080600083516041146114be576040517f08c379a000000000000000000000000000000000000000000000000000000000815260206004820152601660248201527f5369676e6174757265206c656e67746820213d2036350000000000000000000060448201526064016103c6565b60208401516040850151606086015160001a7f7fffffffffffffffffffffffffffffff5d576e7357a4501ddfe92f46681b20a082111561152a576040517f5cd5d23300000000000000000000000000000000000000000000000000000000815260040160405180910390fd5b969195509350915050565b50805461154190611a13565b6000825580601f10611551575050565b601f01602090049060005260206000209081019061156f9190611572565b50565b5b808211156115875760008155600101611573565b5090565b60006020828403121561159d57600080fd5b81357fffffffff00000000000000000000000000000000000000000000000000000000811681146115cd57600080fd5b9392505050565b803573ffffffffffffffffffffffffffffffffffffffff811681146115f857600080fd5b919050565b60008083601f84011261160f57600080fd5b50813567ffffffffffffffff81111561162757600080fd5b602083019150836020828501011115610c8d57600080fd5b60008060006040848603121561165457600080fd5b61165d846115d4565b9250602084013567ffffffffffffffff81111561167957600080fd5b611685868287016115fd565b9497909650939450505050565b600080600080606085870312156116a857600080fd5b843593506116b8602086016115d4565b9250604085013567ffffffffffffffff8111156116d457600080fd5b6116e0878288016115fd565b95989497509550505050565b7f4e487b7100000000000000000000000000000000000000000000000000000000600052604160045260246000fd5b600067ffffffffffffffff80841115611736576117366116ec565b604051601f8501601f19908116603f0116810190828211818310171561175e5761175e6116ec565b8160405280935085815286868601111561177757600080fd5b858560208301376000602087830101525050509392505050565b6000602082840312156117a357600080fd5b813567ffffffffffffffff8111156117ba57600080fd5b8201601f810184136117cb57600080fd5b6117da8482356020840161171b565b949350505050565b60005b838110156117fd5781810151838201526020016117e5565b50506000910152565b6000815180845261181e8160208601602086016117e2565b601f01601f19169290920160200192915050565b600082825180855260208086019550808260051b84010181860160005b8481101561187d57601f1986840301895261186b838351611806565b9884019892509083019060010161184f565b5090979650505050505050565b6020815260006115cd6020830184611832565b6000602082840312156118af57600080fd5b5035919050565b6040815260006118c96040830185611806565b905073ffffffffffffffffffffffffffffffffffffffff831660208301529392505050565b60008060006040848603121561190357600080fd5b83359250602084013567ffffffffffffffff81111561167957600080fd5b6000806020838503121561193457600080fd5b823567ffffffffffffffff81111561194b57600080fd5b611957858286016115fd565b90969095509350505050565b6040815260006119766040830185611806565b90508260208301529392505050565b60006020828403121561199757600080fd5b6115cd826115d4565b600080600080604085870312156119b657600080fd5b843567ffffffffffffffff808211156119ce57600080fd5b6119da888389016115fd565b909650945060208701359150808211156119f357600080fd5b506116e0878288016115fd565b6020815260006115cd6020830184611806565b600181811c90821680611a2757607f821691505b602082108103611a60577f4e487b7100000000000000000000000000000000000000000000000000000000600052602260045260246000fd5b50919050565b601f821115611ab057600081815260208120601f850160051c81016020861015611a8d5750805b601f850160051c820191505b81811015611aac57828155600101611a99565b5050505b505050565b815167ffffffffffffffff811115611acf57611acf6116ec565b611ae381611add8454611a13565b84611a66565b602080601f831160018114611b185760008415611b005750858301515b600019600386901b1c1916600185901b178555611aac565b600085815260208120601f198616915b82811015611b4757888601518255948401946001909101908401611b28565b5085821015611b655787850151600019600388901b60f8161c191681555b5050505050600190811b01905550565b7f4e487b7100000000000000000000000000000000000000000000000000000000600052603260045260246000fd5b7f4e487b7100000000000000000000000000000000000000000000000000000000600052601260045260246000fd5b7f4e487b7100000000000000000000000000000000000000000000000000000000600052601160045260246000fd5b600082611c1157611c11611ba4565b500490565b8082018082111561031057610310611bd3565b8181038181111561031057610310611bd3565b84815260008451611c548160208501602089016117e2565b80830190507fffffffffffffffffffffffffffffffffffffffff0000000000000000000000008560601b1660208201528360348201526054810191505095945050505050565b600082611ca957611ca9611ba4565b500690565b60008154611cbb81611a13565b60018281168015611cd35760018114611ce857611d17565b60ff1984168752821515830287019450611d17565b8560005260208060002060005b85811015611d0e5781548a820152908401908201611cf5565b50505082870194505b5050505092915050565b7f68747470733a2f2f00000000000000000000000000000000000000000000000081526000611d536008830186611cae565b7f2f6569703135350000000000000000000000000000000000000000000000000081527f3a000000000000000000000000000000000000000000000000000000000000006007820152611da96008820186611cae565b90507f2f0000000000000000000000000000000000000000000000000000000000000081528351611de18160018401602088016117e2565b7f2f7b646174617d000000000000000000000000000000000000000000000000006001929091019182015260080195945050505050565b60006000198203611e2b57611e2b611bd3565b5060010190565b60008085851115611e4257600080fd5b83861115611e4f57600080fd5b5050820193919092039150565b7fff000000000000000000000000000000000000000000000000000000000000008135818116916001851015611e9c5780818660010360031b1b83161692505b505092915050565b600081611eb357611eb3611bd3565b506000190190565b60008351611ecd8184602088016117e2565b7f2e000000000000000000000000000000000000000000000000000000000000009083019081528351611f078160018401602088016117e2565b01600101949350505050565b8385823760008482018481528351611f328160208401602088016117e2565b016020019695505050505050565b73ffffffffffffffffffffffffffffffffffffffff8616815260a060208201526000611f6f60a0830187611832565b8281036040840152611f818187611806565b90507fffffffff00000000000000000000000000000000000000000000000000000000851660608401528281036080840152611fbd8185611806565b98975050505050505050565b600080600060608486031215611fde57600080fd5b505081359360208301359350604090920135919050565b600082601f83011261200657600080fd5b6115cd8383356020850161171b565b60008060006060848603121561202a57600080fd5b833567ffffffffffffffff808216821461204357600080fd5b9093506020850135908082111561205957600080fd5b61206587838801611ff5565b9350604086013591508082111561207b57600080fd5b5061208886828701611ff5565b9150509250925092565b6000815160208301517fff00000000000000000000000000000000000000000000000000000000000000808216935060018310156120da5780818460010360031b1b83161693505b505050919050565b7f190000000000000000000000000000000000000000000000000000000000000081527fffffffffffffffffffffffffffffffffffffffff0000000000000000000000008560601b1660028201527fffffffffffffffff0000000000000000000000000000000000000000000000008460c01b16601682015282601e8201526000825161217681603e8501602087016117e2565b91909101603e0195945050505050565b8281526040602082015260006117da6040830184611806565b6000602082840312156121b157600080fd5b815180151581146115cd57600080fd5b8181036121cc575050565b6121d68254611a13565b67ffffffffffffffff8111156121ee576121ee6116ec565b6121fc81611add8454611a13565b6000601f82116001811461223057600083156122185750848201545b600019600385901b1c1916600184901b178455612295565b600085815260209020601f19841690600086815260209020845b8381101561226a578286015482556001958601959091019060200161224a565b50858310156122885781850154600019600388901b60f8161c191681555b50505060018360011b0184555b5050505050565b7f4e487b7100000000000000000000000000000000000000000000000000000000600052603160045260246000fdfea2646970667358221220fdcfadc0449c4cfdee22d2ec765cb728129f03dc22c72bee5a70d7591600dbca64736f6c63430008100033",
    "linkReferences": {}
  },
  "methodIdentifiers": {
    "DNSDecode(bytes)": "6d6aeb10",
    "Dev()": "01e51ae8",
    "Gateways(uint256)": "356a277a",
    "__callback(bytes,bytes)": "c55a5d59",
    "addGateway(address,string)": "0a24bf33",
    "chainID()": "adc879e9",
    "changeDev(address)": "88a8c95c",
    "isSigner(address)": "7df73e27",
    "isValid(bytes32,bytes)": "4f309cb8",
    "randomGateways(string)": "1bebc101",
    "removeGateway(uint256)": "e5dac703",
    "replaceGateway(uint256,address,string)": "0eb0a9e8",
    "resolve(bytes,bytes)": "9061b923",
    "supportsInterface(bytes4)": "01ffc9a7"
  },
  "id": 18
}