{
  "abi": [
    {
      "inputs": [],
      "stateMutability": "nonpayable",
      "type": "constructor"
    },
    {
      "inputs": [],
      "name": "BadSignature",
      "type": "error"
    },
    {
      "inputs": [],
      "name": "InvalidHash",
      "type": "error"
    },
    {
      "inputs": [],
      "name": "InvalidResponse",
      "type": "error"
    },
    {
      "inputs": [],
      "name": "InvalidSignature",
      "type": "error"
    },
    {
      "inputs": [
        {
          "internalType": "address",
          "name": "sender",
          "type": "address"
        },
        {
          "internalType": "string[]",
          "name": "urls",
          "type": "string[]"
        },
        {
          "internalType": "bytes",
          "name": "callData",
          "type": "bytes"
        },
        {
          "internalType": "bytes4",
          "name": "callbackFunction",
          "type": "bytes4"
        },
        {
          "internalType": "bytes",
          "name": "extraData",
          "type": "bytes"
        }
      ],
      "name": "OffchainLookup",
      "type": "error"
    },
    {
      "inputs": [],
      "name": "RequestError",
      "type": "error"
    },
    {
      "inputs": [],
      "name": "SignatureExpired",
      "type": "error"
    },
    {
      "anonymous": false,
      "inputs": [
        {
          "indexed": true,
          "internalType": "address",
          "name": "previousOwner",
          "type": "address"
        },
        {
          "indexed": true,
          "internalType": "address",
          "name": "newOwner",
          "type": "address"
        }
      ],
      "name": "OwnershipTransferred",
      "type": "event"
    },
    {
      "inputs": [
        {
          "internalType": "bytes",
          "name": "encoded",
          "type": "bytes"
        }
      ],
      "name": "DNSDecode",
      "outputs": [
        {
          "internalType": "string",
          "name": "_name",
          "type": "string"
        },
        {
          "internalType": "bytes32",
          "name": "namehash",
          "type": "bytes32"
        }
      ],
      "stateMutability": "pure",
      "type": "function"
    },
    {
      "inputs": [],
      "name": "Dev",
      "outputs": [
        {
          "internalType": "address",
          "name": "",
          "type": "address"
        }
      ],
      "stateMutability": "view",
      "type": "function"
    },
    {
      "inputs": [
        {
          "internalType": "uint256",
          "name": "",
          "type": "uint256"
        }
      ],
      "name": "Gateways",
      "outputs": [
        {
          "internalType": "string",
          "name": "domain",
          "type": "string"
        },
        {
          "internalType": "address",
          "name": "operator",
          "type": "address"
        }
      ],
      "stateMutability": "view",
      "type": "function"
    },
    {
      "inputs": [
        {
          "internalType": "bytes",
          "name": "response",
          "type": "bytes"
        },
        {
          "internalType": "bytes",
          "name": "extraData",
          "type": "bytes"
        }
      ],
      "name": "__callback",
      "outputs": [
        {
          "internalType": "bytes",
          "name": "",
          "type": "bytes"
        }
      ],
      "stateMutability": "view",
      "type": "function"
    },
    {
      "inputs": [
        {
          "internalType": "address",
          "name": "operator",
          "type": "address"
        },
        {
          "internalType": "string",
          "name": "domain",
          "type": "string"
        }
      ],
      "name": "addGateway",
      "outputs": [],
      "stateMutability": "nonpayable",
      "type": "function"
    },
    {
      "inputs": [],
      "name": "chainID",
      "outputs": [
        {
          "internalType": "string",
          "name": "",
          "type": "string"
        }
      ],
      "stateMutability": "view",
      "type": "function"
    },
    {
      "inputs": [
        {
          "internalType": "address",
          "name": "newDev",
          "type": "address"
        }
      ],
      "name": "changeDev",
      "outputs": [],
      "stateMutability": "nonpayable",
      "type": "function"
    },
    {
      "inputs": [
        {
          "internalType": "address",
          "name": "",
          "type": "address"
        }
      ],
      "name": "isSigner",
      "outputs": [
        {
          "internalType": "bool",
          "name": "",
          "type": "bool"
        }
      ],
      "stateMutability": "view",
      "type": "function"
    },
    {
      "inputs": [
        {
          "internalType": "bytes32",
          "name": "digesthash",
          "type": "bytes32"
        },
        {
          "internalType": "bytes",
          "name": "signature",
          "type": "bytes"
        }
      ],
      "name": "isValid",
      "outputs": [
        {
          "internalType": "bool",
          "name": "",
          "type": "bool"
        }
      ],
      "stateMutability": "view",
      "type": "function"
    },
    {
      "inputs": [
        {
          "internalType": "string",
          "name": "_name",
          "type": "string"
        }
      ],
      "name": "randomGateways",
      "outputs": [
        {
          "internalType": "string[]",
          "name": "urls",
          "type": "string[]"
        }
      ],
      "stateMutability": "view",
      "type": "function"
    },
    {
      "inputs": [
        {
          "internalType": "uint256",
          "name": "_index",
          "type": "uint256"
        }
      ],
      "name": "removeGateway",
      "outputs": [],
      "stateMutability": "nonpayable",
      "type": "function"
    },
    {
      "inputs": [
        {
          "internalType": "uint256",
          "name": "_index",
          "type": "uint256"
        },
        {
          "internalType": "address",
          "name": "operator",
          "type": "address"
        },
        {
          "internalType": "string",
          "name": "domain",
          "type": "string"
        }
      ],
      "name": "replaceGateway",
      "outputs": [],
      "stateMutability": "nonpayable",
      "type": "function"
    },
    {
      "inputs": [
        {
          "internalType": "bytes",
          "name": "encoded",
          "type": "bytes"
        },
        {
          "internalType": "bytes",
          "name": "data",
          "type": "bytes"
        }
      ],
      "name": "resolve",
      "outputs": [
        {
          "internalType": "bytes",
          "name": "",
          "type": "bytes"
        }
      ],
      "stateMutability": "view",
      "type": "function"
    },
    {
      "inputs": [
        {
          "internalType": "bytes4",
          "name": "sig",
          "type": "bytes4"
        }
      ],
      "name": "supportsInterface",
      "outputs": [
        {
          "internalType": "bool",
          "name": "",
          "type": "bool"
        }
      ],
      "stateMutability": "pure",
      "type": "function"
    }
  ],
  "bytecode": {
    "object": "0x60c060405260016080818152603160f81b60a0526200001f9082620001f6565b503480156200002d57600080fd5b50600080546001600160a01b031916331781556040805160808101825260139181019182527f7373686d61747269782e636c75623a3330303200000000000000000000000000606082015290815273a610e343ba79d93b39421fd6bf29067e1ac1aa666020820152600280546001810182559281905281519192027f405787fa12a823e0f2b7631cc41b3ba8828b3321ca811111fa75cd3aa3bb5ace01908190620000d99082620001f6565b50602091820151600191820180546001600160a01b0319166001600160a01b0390921691909117905573a610e343ba79d93b39421fd6bf29067e1ac1aa6660005260039091527f371b2a70d28d03f373e61ab2d46288befcc7612b7721ae6bd393a2e4efd289e9805460ff19169091179055620002c2565b634e487b7160e01b600052604160045260246000fd5b600181811c908216806200017c57607f821691505b6020821081036200019d57634e487b7160e01b600052602260045260246000fd5b50919050565b601f821115620001f157600081815260208120601f850160051c81016020861015620001cc5750805b601f850160051c820191505b81811015620001ed57828155600101620001d8565b5050505b505050565b81516001600160401b0381111562000212576200021262000151565b6200022a8162000223845462000167565b84620001a3565b602080601f831160018114620002625760008415620002495750858301515b600019600386901b1c1916600185901b178555620001ed565b600085815260208120601f198616915b82811015620002935788860151825594840194600190910190840162000272565b5085821015620002b25787850151600019600388901b60f8161c191681555b5050505050600190811b01905550565b61233180620002d26000396000f3fe608060405234801561001057600080fd5b50600436106100ea5760003560e01c80636d6aeb101161008c5780639061b923116100665780639061b9231461022f578063adc879e91461024f578063c55a5d5914610257578063e5dac7031461026a57600080fd5b80636d6aeb10146101d85780637df73e27146101f957806388a8c95c1461021c57600080fd5b80630eb0a9e8116100c85780630eb0a9e8146101715780631bebc10114610184578063356a277a146101a45780634f309cb8146101c557600080fd5b806301e51ae8146100ef57806301ffc9a7146101395780630a24bf331461015c575b600080fd5b60005461010f9073ffffffffffffffffffffffffffffffffffffffff1681565b60405173ffffffffffffffffffffffffffffffffffffffff90911681526020015b60405180910390f35b61014c61014736600461159d565b61027d565b6040519015158152602001610130565b61016f61016a366004611651565b610316565b005b61016f61017f3660046116a4565b6104b8565b6101976101923660046117a3565b6106cb565b604051610130919061189c565b6101b76101b23660046118af565b61081d565b6040516101309291906118c8565b61014c6101d3366004611900565b6108ef565b6101eb6101e6366004611933565b610952565b604051610130929190611975565b61014c610207366004611997565b60036020526000908152604090205460ff1681565b61016f61022a366004611997565b610c5f565b61024261023d3660046119b2565b610d10565b6040516101309190611a12565b610242610e9f565b6102426102653660046119b2565b610f2d565b61016f6102783660046118af565b611206565b60007fffffffff0000000000000000000000000000000000000000000000000000000082167f9061b92300000000000000000000000000000000000000000000000000000000148061031057507fffffffff0000000000000000000000000000000000000000000000000000000082167f01ffc9a700000000000000000000000000000000000000000000000000000000145b92915050565b60005473ffffffffffffffffffffffffffffffffffffffff16331461033a57600080fd5b73ffffffffffffffffffffffffffffffffffffffff831660009081526003602052604090205460ff16156103cf576040517f08c379a000000000000000000000000000000000000000000000000000000000815260206004820152600f60248201527f4f50455241544f525f455849535453000000000000000000000000000000000060448201526064015b60405180910390fd5b6040805160606020601f8501819004028201810183529181018381526002928291908690869081908501838280828437600092018290525093855250505073ffffffffffffffffffffffffffffffffffffffff8716602092830152835460018101855593815220815191926002020190819061044b9082611ac7565b50602091820151600191820180547fffffffffffffffffffffffff00000000000000000000000000000000000000001673ffffffffffffffffffffffffffffffffffffffff928316179055949094166000908152600390915260409020805460ff19169093179092555050565b60005473ffffffffffffffffffffffffffffffffffffffff1633146104dc57600080fd5b73ffffffffffffffffffffffffffffffffffffffff831660009081526003602052604090205460ff161561056c576040517f08c379a000000000000000000000000000000000000000000000000000000000815260206004820152601260248201527f4455504c49434154455f4f50455241544f52000000000000000000000000000060448201526064016103c6565b6000600360006002878154811061058557610585611b87565b600091825260208083206001600290930201919091015473ffffffffffffffffffffffffffffffffffffffff1683528281019390935260409182019020805493151560ff199094169390931790925581516060601f85018390049092028101820183529182018381528291859085908190850183828082843760009201919091525050509082525073ffffffffffffffffffffffffffffffffffffffff8516602090910152600280548690811061063e5761063e611b87565b60009182526020909120825160029092020190819061065d9082611ac7565b50602091820151600191820180547fffffffffffffffffffffffff00000000000000000000000000000000000000001673ffffffffffffffffffffffffffffffffffffffff928316179055949094166000908152600390915260409020805460ff1916909317909255505050565b600280546060916000906106df9083611c14565b6106ea906001611c28565b905060058111156106f9575060055b8067ffffffffffffffff811115610712576107126116fe565b60405190808252806020026020018201604052801561074557816020015b60608152602001906001900390816107305790505b5092504260005b828110156108145783828733610763600143611c3b565b406040516020016107779493929190611c4e565b6040516020818303038152906040528051906020012060001c61079a9190611cac565b9150600282815481106107af576107af611b87565b90600052602060002090600202016000016001876040516020016107d593929190611d33565b6040516020818303038152906040528582815181106107f6576107f6611b87565b6020026020010181905250808061080c90611e2a565b91505061074c565b50505050919050565b6002818154811061082d57600080fd5b906000526020600020906002020160009150905080600001805461085090611a25565b80601f016020809104026020016040519081016040528092919081815260200182805461087c90611a25565b80156108c95780601f1061089e576101008083540402835291602001916108c9565b820191906000526020600020905b8154815290600101906020018083116108ac57829003601f168201915b5050506001909301549192505073ffffffffffffffffffffffffffffffffffffffff1682565b6000806108fd85858561139a565b905073ffffffffffffffffffffffffffffffffffffffff811615801590610949575073ffffffffffffffffffffffffffffffffffffffff811660009081526003602052604090205460ff165b95945050505050565b60408051600c8082526101a08201909252606091600091829182918291816020015b606081526020019060019003908161097457905050905060005b60008888838181106109a2576109a2611b87565b9050013560f81c60f81b7effffffffffffffffffffffffffffffffffffffffffffffffffffffffffffff19161115610a7f578781886109e082611e2a565b93506109ef9284929190611e44565b6109f891611e6e565b60f81c9250878188610a0a8683611c28565b9350610a199284929190611e44565b8080601f0160208091040260200160405190810160405280939291908181526020018383808284376000920191909152505084518592508791508110610a6157610a61611b87565b60200260200101819052508380610a7790611e2a565b94505061098e565b5080610a8a84611eb6565b93508381518110610a9d57610a9d611b87565b602002602001015194506000801b818480610ab790611eb6565b955081518110610ac957610ac9611b87565b602002602001015180519060200120604051602001610af2929190918252602082015260400190565b60405160208183030381529060405280519060200120935082600003610bad5780600081518110610b2557610b25611b87565b602002602001015185604051602001610b3f929190611ecd565b6040516020818303038152906040528482600081518110610b6257610b62611b87565b602002602001015180519060200120604051602001610b8b929190918252602082015260400190565b6040516020818303038152906040528051906020012094509450505050610c58565b8215610c545780610bbd84611eb6565b93508381518110610bd057610bd0611b87565b602002602001015185604051602001610bea929190611ecd565b604051602081830303815290604052945083818481518110610c0e57610c0e611b87565b602002602001015180519060200120604051602001610c37929190918252602082015260400190565b604051602081830303815290604052805190602001209350610bad565b5050505b9250929050565b60005473ffffffffffffffffffffffffffffffffffffffff163314610c8357600080fd5b6000805460405173ffffffffffffffffffffffffffffffffffffffff808516939216917f8be0079c531659141344cd1fd0a4f28419497f9722a3daafe3b4186f6b6457e091a3600080547fffffffffffffffffffffffff00000000000000000000000000000000000000001673ffffffffffffffffffffffffffffffffffffffff92909216919091179055565b6060600080610d1f8787610952565b9150915030610d2d836106cb565b610d3b60046000888a611e44565b8460248911610d595760405180602001604052806000815250610d9b565b610d66896024818d611e44565b8080601f0160208091040260200160405190810160405280939291908181526020018383808284376000920191909152505050505b604051602001610dae9493929190611f25565b60408051601f198184030181529190527fc55a5d59000000000000000000000000000000000000000000000000000000004385610dec600183611c3b565b6040805191406020830152810188905233606090811b7fffffffffffffffffffffffffffffffffffffffff000000000000000000000000169082015260740160408051601f19818403018152828252805160209182012090830194909452810191909152606081019190915260800160408051601f19818403018152908290527f556f18300000000000000000000000000000000000000000000000000000000082526103c69594939291600401611f52565b60018054610eac90611a25565b80601f0160208091040260200160405190810160405280929190818152602001828054610ed890611a25565b8015610f255780601f10610efa57610100808354040283529160200191610f25565b820191906000526020600020905b815481529060010190602001808311610f0857829003601f168201915b505050505081565b606060008080610f3f85870187611fdb565b91945092509050610f51836003611c28565b431180610fbd5750610f64600184611c3b565b6040805191406020830152810183905233606090811b7fffffffffffffffffffffffffffffffffffffffff0000000000000000000000001690820152607401604051602081830303815290604052805190602001208114155b15610ff4576040517f0af806e000000000000000000000000000000000000000000000000000000000815260040160405180910390fd5b600080806110048a8c018c612027565b9250925092506040518060400160405280600381526020017f3078300000000000000000000000000000000000000000000000000000000000815250611049906120a4565b7fff0000000000000000000000000000000000000000000000000000000000000016611074826120a4565b7fff0000000000000000000000000000000000000000000000000000000000000016036110cd576040517fc715138d00000000000000000000000000000000000000000000000000000000815260040160405180910390fd5b8267ffffffffffffffff16421115611111576040517f0819bdcd00000000000000000000000000000000000000000000000000000000815260040160405180910390fd5b60003084878460405160200161112a94939291906120f4565b60408051601f198184030181529082905280516020909101207f4f309cb800000000000000000000000000000000000000000000000000000000825291503090634f309cb8906111809084908790600401612198565b602060405180830381865afa15801561119d573d6000803e3d6000fd5b505050506040513d601f19601f820116820180604052508101906111c191906121b1565b6111f7576040517f8baa579f00000000000000000000000000000000000000000000000000000000815260040160405180910390fd5b509a9950505050505050505050565b60005473ffffffffffffffffffffffffffffffffffffffff16331461122a57600080fd5b6000600360006002848154811061124357611243611b87565b6000918252602080832060029283020160019081015473ffffffffffffffffffffffffffffffffffffffff1685529084019490945260409092019020805460ff1916931515939093179092559054908201101561133a576002805460001981019081106112b2576112b2611b87565b9060005260206000209060020201600282815481106112d3576112d3611b87565b60009182526020909120600290910201806112ee83826121d3565b50600191820154910180547fffffffffffffffffffffffff00000000000000000000000000000000000000001673ffffffffffffffffffffffffffffffffffffffff9092169190911790555b600280548061134b5761134b6122ae565b6000828152602081206000199092019160028302019061136b8282611547565b5060010180547fffffffffffffffffffffffff0000000000000000000000000000000000000000169055905550565b600060418214611406576040517f08c379a000000000000000000000000000000000000000000000000000000000815260206004820152601660248201527f5369676e6174757265206c656e67746820213d2036350000000000000000000060448201526064016103c6565b60006114156020828587611e44565b61141e916122dd565b905060007f7fffffffffffffffffffffffffffffffffffffffffffffffffffffffffffffff6114508560208189611e44565b611459916122dd565b169050600060ff61146d866020818a611e44565b611476916122dd565b611482911c601b611c28565b90507f7fffffffffffffffffffffffffffffff5d576e7357a4501ddfe92f46681b20a08211156114de576040517f5cd5d23300000000000000000000000000000000000000000000000000000000815260040160405180910390fd5b60408051600081526020810180835289905260ff831691810191909152606081018490526080810183905260019060a0016020604051602081039080840390855afa158015611531573d6000803e3d6000fd5b5050604051601f19015198975050505050505050565b50805461155390611a25565b6000825580601f10611563575050565b601f0160209004906000526020600020908101906115819190611584565b50565b5b808211156115995760008155600101611585565b5090565b6000602082840312156115af57600080fd5b81357fffffffff00000000000000000000000000000000000000000000000000000000811681146115df57600080fd5b9392505050565b803573ffffffffffffffffffffffffffffffffffffffff8116811461160a57600080fd5b919050565b60008083601f84011261162157600080fd5b50813567ffffffffffffffff81111561163957600080fd5b602083019150836020828501011115610c5857600080fd5b60008060006040848603121561166657600080fd5b61166f846115e6565b9250602084013567ffffffffffffffff81111561168b57600080fd5b6116978682870161160f565b9497909650939450505050565b600080600080606085870312156116ba57600080fd5b843593506116ca602086016115e6565b9250604085013567ffffffffffffffff8111156116e657600080fd5b6116f28782880161160f565b95989497509550505050565b7f4e487b7100000000000000000000000000000000000000000000000000000000600052604160045260246000fd5b600067ffffffffffffffff80841115611748576117486116fe565b604051601f8501601f19908116603f01168101908282118183101715611770576117706116fe565b8160405280935085815286868601111561178957600080fd5b858560208301376000602087830101525050509392505050565b6000602082840312156117b557600080fd5b813567ffffffffffffffff8111156117cc57600080fd5b8201601f810184136117dd57600080fd5b6117ec8482356020840161172d565b949350505050565b60005b8381101561180f5781810151838201526020016117f7565b50506000910152565b600081518084526118308160208601602086016117f4565b601f01601f19169290920160200192915050565b600082825180855260208086019550808260051b84010181860160005b8481101561188f57601f1986840301895261187d838351611818565b98840198925090830190600101611861565b5090979650505050505050565b6020815260006115df6020830184611844565b6000602082840312156118c157600080fd5b5035919050565b6040815260006118db6040830185611818565b905073ffffffffffffffffffffffffffffffffffffffff831660208301529392505050565b60008060006040848603121561191557600080fd5b83359250602084013567ffffffffffffffff81111561168b57600080fd5b6000806020838503121561194657600080fd5b823567ffffffffffffffff81111561195d57600080fd5b6119698582860161160f565b90969095509350505050565b6040815260006119886040830185611818565b90508260208301529392505050565b6000602082840312156119a957600080fd5b6115df826115e6565b600080600080604085870312156119c857600080fd5b843567ffffffffffffffff808211156119e057600080fd5b6119ec8883890161160f565b90965094506020870135915080821115611a0557600080fd5b506116f28782880161160f565b6020815260006115df6020830184611818565b600181811c90821680611a3957607f821691505b602082108103611a72577f4e487b7100000000000000000000000000000000000000000000000000000000600052602260045260246000fd5b50919050565b601f821115611ac257600081815260208120601f850160051c81016020861015611a9f5750805b601f850160051c820191505b81811015611abe57828155600101611aab565b5050505b505050565b815167ffffffffffffffff811115611ae157611ae16116fe565b611af581611aef8454611a25565b84611a78565b602080601f831160018114611b2a5760008415611b125750858301515b600019600386901b1c1916600185901b178555611abe565b600085815260208120601f198616915b82811015611b5957888601518255948401946001909101908401611b3a565b5085821015611b775787850151600019600388901b60f8161c191681555b5050505050600190811b01905550565b7f4e487b7100000000000000000000000000000000000000000000000000000000600052603260045260246000fd5b7f4e487b7100000000000000000000000000000000000000000000000000000000600052601260045260246000fd5b7f4e487b7100000000000000000000000000000000000000000000000000000000600052601160045260246000fd5b600082611c2357611c23611bb6565b500490565b8082018082111561031057610310611be5565b8181038181111561031057610310611be5565b84815260008451611c668160208501602089016117f4565b80830190507fffffffffffffffffffffffffffffffffffffffff0000000000000000000000008560601b1660208201528360348201526054810191505095945050505050565b600082611cbb57611cbb611bb6565b500690565b60008154611ccd81611a25565b60018281168015611ce55760018114611cfa57611d29565b60ff1984168752821515830287019450611d29565b8560005260208060002060005b85811015611d205781548a820152908401908201611d07565b50505082870194505b5050505092915050565b7f68747470733a2f2f00000000000000000000000000000000000000000000000081526000611d656008830186611cc0565b7f2f6569703135350000000000000000000000000000000000000000000000000081527f3a000000000000000000000000000000000000000000000000000000000000006007820152611dbb6008820186611cc0565b90507f2f0000000000000000000000000000000000000000000000000000000000000081528351611df38160018401602088016117f4565b7f2f7b646174617d000000000000000000000000000000000000000000000000006001929091019182015260080195945050505050565b60006000198203611e3d57611e3d611be5565b5060010190565b60008085851115611e5457600080fd5b83861115611e6157600080fd5b5050820193919092039150565b7fff000000000000000000000000000000000000000000000000000000000000008135818116916001851015611eae5780818660010360031b1b83161692505b505092915050565b600081611ec557611ec5611be5565b506000190190565b60008351611edf8184602088016117f4565b7f2e000000000000000000000000000000000000000000000000000000000000009083019081528351611f198160018401602088016117f4565b01600101949350505050565b8385823760008482018481528351611f448160208401602088016117f4565b016020019695505050505050565b73ffffffffffffffffffffffffffffffffffffffff8616815260a060208201526000611f8160a0830187611844565b8281036040840152611f938187611818565b90507fffffffff00000000000000000000000000000000000000000000000000000000851660608401528281036080840152611fcf8185611818565b98975050505050505050565b600080600060608486031215611ff057600080fd5b505081359360208301359350604090920135919050565b600082601f83011261201857600080fd5b6115df8383356020850161172d565b60008060006060848603121561203c57600080fd5b833567ffffffffffffffff808216821461205557600080fd5b9093506020850135908082111561206b57600080fd5b61207787838801612007565b9350604086013591508082111561208d57600080fd5b5061209a86828701612007565b9150509250925092565b6000815160208301517fff00000000000000000000000000000000000000000000000000000000000000808216935060018310156120ec5780818460010360031b1b83161693505b505050919050565b7f190000000000000000000000000000000000000000000000000000000000000081527fffffffffffffffffffffffffffffffffffffffff0000000000000000000000008560601b1660028201527fffffffffffffffff0000000000000000000000000000000000000000000000008460c01b16601682015282601e8201526000825161218881603e8501602087016117f4565b91909101603e0195945050505050565b8281526040602082015260006117ec6040830184611818565b6000602082840312156121c357600080fd5b815180151581146115df57600080fd5b8181036121de575050565b6121e88254611a25565b67ffffffffffffffff811115612200576122006116fe565b61220e81611aef8454611a25565b6000601f821160018114612242576000831561222a5750848201545b600019600385901b1c1916600184901b1784556122a7565b600085815260209020601f19841690600086815260209020845b8381101561227c578286015482556001958601959091019060200161225c565b508583101561229a5781850154600019600388901b60f8161c191681555b50505060018360011b0184555b5050505050565b7f4e487b7100000000000000000000000000000000000000000000000000000000600052603160045260246000fd5b8035602083101561031057600019602084900360031b1b169291505056fea26469706673582212208fc5e9c756459daba2d9b6a1c3796d324fe2a249e3f9428dfaf8970fa2a7a99e64736f6c63430008100033",
    "linkReferences": {}
  },
  "methodIdentifiers": {
    "DNSDecode(bytes)": "6d6aeb10",
    "Dev()": "01e51ae8",
    "Gateways(uint256)": "356a277a",
    "__callback(bytes,bytes)": "c55a5d59",
    "addGateway(address,string)": "0a24bf33",
    "chainID()": "adc879e9",
    "changeDev(address)": "88a8c95c",
    "isSigner(address)": "7df73e27",
    "isValid(bytes32,bytes)": "4f309cb8",
    "randomGateways(string)": "1bebc101",
    "removeGateway(uint256)": "e5dac703",
    "replaceGateway(uint256,address,string)": "0eb0a9e8",
    "resolve(bytes,bytes)": "9061b923",
    "supportsInterface(bytes4)": "01ffc9a7"
  },
  "id": 19
}